:100000000C9462000C947C1D0C94B71D0C948A0017
:100010000C948A000C948A000C948A000C948A0038
:100020000C948A000C948A000C948A000C948A0028
:100030000C948A000C948A000C948A000C948A0018
:100040000C9407010C948A000C943C030C947A03E2
:100050000C948A000C948A000C948A000C948A00F8
:100060000C948A000C948A00000000070002010032
:100070000003040600000000000000000102040864
:100080001020408001020408102001020408102002
:10009000040404040404040402020202020203032E
:1000A00003030303000000002300260029000000D2
:1000B0000000250028002B0000000000240027007D
:1000C0002A00F91D11241FBECFEFD8E0DEBFCDBF3F
:1000D00012E0A0E0B1E0E2EDF9E402C005900D927B
:1000E000AE32B107D9F723E0AEE2B2E001C01D9213
:1000F000A330B207E1F710E0C2E6D0E004C02197D8
:10010000FE010E94B81EC136D107C9F70E945519D9
:100110000C94E7240C9400008093000108958E3025
:1001200008F08E502091000190E4299F9001112445
:100130008770822B80937C0080917A00806480930A
:100140007A0080917A0086FDFCCF809178009091B2
:10015000790008951F93CF93DF93182FEB0161E08F
:100160000E941402209739F460E0812FDF91CF9133
:100170001F910C945002CF3FD10511F461E0F5CFEF
:10018000E12FF0E0E859FF4FE491E33031F140F422
:10019000E130B1F0E230E1F0C038D1052CF3EECF20
:1001A000E63029F1E73059F1E430B1F78091800071
:1001B000806280938000D0938B00C0938A0004C03B
:1001C00084B5806884BDC7BDDF91CF911F9108952C
:1001D00084B5806284BDC8BDF7CF809180008068FF
:1001E00080938000D0938900C0938800EDCF8091E8
:1001F000B00080688093B000C093B300E5CF8091D9
:10020000B00080628093B000C093B400DDCF1F9235
:100210001FB61F9211242F933F938F939F93AF93F9
:10022000BF9380912E0290912F02A0913002B09145
:1002300031023091360223E0230F2D3750F501961D
:10024000A11DB11D2093360280932E0290932F02A0
:10025000A0933002B0933102809132029091330228
:10026000A0913402B09135020196A11DB11D809379
:10027000320290933302A0933402B0933502BF91BF
:10028000AF919F918F913F912F911F901FBE1F9013
:10029000189526E8230F0296A11DB11DD3CF2FB7C5
:1002A000F89460912E0270912F028091300290910B
:1002B00031022FBF08953FB7F89480913202909198
:1002C0003302A0913402B091350226B5A89B05C037
:1002D0002F3F19F00196A11DB11D3FBFBA2FA92FC5
:1002E000982F8827BC01CD01620F711D811D911DC2
:1002F00042E0660F771F881F991F4A95D1F708952E
:10030000CF92DF92EF92FF92CF93DF936B017C014C
:100310000E945B01EB01C114D104E104F10439F442
:10032000DF91CF91FF90EF90DF90CF9008950E94E2
:100330005B016C1B7D0B683E734068F381E0C81A5B
:10034000D108E108F108C851DC4FE5CF019739F039
:10035000880F991F880F991F02970197F1F7089549
:10036000789484B5826084BD84B5816084BD85B590
:10037000826085BD85B5816085BDEEE6F0E0808157
:1003800081608083E1E8F0E0108280818260808378
:10039000808181608083E0E8F0E0808181608083FB
:1003A000E1EBF0E0808184608083E0EBF0E080812D
:1003B00081608083EAE7F0E08081846080838081CF
:1003C0008260808380818160808380818068808377
:1003D0001092C1000895833081F028F4813099F0A3
:1003E0008230A9F008958630A9F08730C9F08430B2
:1003F000B1F4809180008F7D03C0809180008F7761
:1004000080938000089584B58F7784BD089584B566
:100410008F7DFBCF8091B0008F778093B0000895DF
:100420008091B0008F7DF9CFCF93DF9390E0FC01F6
:10043000E458FF4F249180579F4FFC0184918823FB
:10044000C9F090E0880F991FFC01E854FF4FA59177
:10045000B491FC01E255FF4FC591D49161110DC0DB
:100460009FB7F8948C91209582238C9388812823C0
:1004700028839FBFDF91CF910895623051F49FB7D9
:10048000F8943C91822F809583238C93E8812E2BC6
:10049000EFCF8FB7F894EC912E2B2C938FBFEACF30
:1004A0001F93CF93DF93162F282F30E0F901E859DF
:1004B000FF4F8491F901E458FF4FD491F901E057BF
:1004C000FF4FC491CC23A1F081110E94EB01EC2FCE
:1004D000F0E0EE0FFF1FE255FF4FA591B4918FB7EB
:1004E000F894EC91111108C0D095DE23DC938FBFF6
:1004F000DF91CF911F910895DE2BF8CFCF93DF933B
:10050000282F30E0F901E859FF4F8491F901E458B0
:10051000FF4FD491F901E057FF4FC491CC23A1F0D4
:1005200081110E94EB01EC2FF0E0EE0FFF1FEC5564
:10053000FF4FA591B491EC91ED2381E090E009F497
:1005400080E0DF91CF91089580E090E0FACFFC0148
:1005500024853585F901E05CFF4F808191812E5B18
:100560003F4FF90120813181821B930B8F739927B3
:100570000895FC0184859585FC01E05CFF4F408176
:1005800051813296208131814217530741F02081F9
:100590003181820F931FFC01808190E008958FEFDD
:1005A0009FEF0895DC011C968D919C91FC01E05C0D
:1005B000FF4F40815181329620813181421753078C
:1005C00081F020813181820F931FDC018C91208189
:1005D00031812F5F3F4F2F7333273183208390E08A
:1005E00008958FEF9FEF0895FC0191A1992329F0C1
:1005F000A489B5898C9186FFF9CF11A20895CF9374
:10060000DF93FC0126853785D901A05CBF4F8D9112
:100610009C91119701968F739927E901CE5BDF4F6B
:100620004881598148175907D9F34D915C91240F9E
:10063000351FD9016C93A685B785A05CBF4F119675
:100640009C938E93A689B7898C91978D21E030E099
:1006500001C0220F9A95EAF7822B8C9381E081A347
:100660000488F589E02D80818064808381E090E0BA
:10067000DF91CF91089508952F932FB72F934F9324
:100680005F938F939F93EF93FF938091C00082FDC0
:1006900025C02091C6008091DD029091DE0240913C
:1006A000DF025091E00201968F739927481759078E
:1006B00059F0E091DD02F091DE02E356FD4F208318
:1006C0009093DE028093DD02FF91EF919F918F91D5
:1006D0005F914F912F912FBF2F9118958091C60058
:1006E000F3CF87E392E00E94A702892B11F00C94CC
:1006F0003B0308952F932FB72F933F938F939F938F
:10070000EF93FF932091990230919A0280919B027E
:1007100090919C022817390771F48091C1008F7D58
:100720008093C100FF91EF919F918F913F912F9105
:100730002FBF2F911895E0919B02F0919C02E75AF0
:10074000FD4F208180919B0290919C0201968F73B6
:10075000992790939C0280939B022093C600E2CF3E
:100760008F929F92AF92BF92CF92DF92EF92FF92C1
:100770000F931F93CF93DF93CDB7DEB7FC011382A6
:10078000128288EE93E0A0E0B0E084839583A68394
:10079000B7838DE092E09183808375876487578764
:1007A0004687318B208B138B028BF58AE48AD78A9C
:1007B000C68AB18EA08E938E828E8F85848F888913
:1007C000858F8989868F8A89878F8B8980A3DF911E
:1007D000CF911F910F91FF90EF90DF90CF90BF903E
:1007E000AF909F908F900895CF92DF92EF92FF92FB
:1007F000CF93DF93EC016A017B01C11481EED8062F
:10080000E104F10409F04FC0EC89FD89108260E831
:1008100074E88EE190E0A70196010E945D1E2150D0
:100820003109410951095695479537952795E8892A
:10083000F9893083EA89FB89208319A2EE89FF892F
:1008400020813C8D81E090E0AC0101C0440F3A95DD
:10085000EAF7242B2083EE89FF8920813D8DAC01AE
:1008600001C0440F3A95EAF7242B2083EE89FF89D3
:1008700020813E8DAC0101C0440F3A95EAF7242B4C
:100880002083EE89FF8920813F8D01C0880F3A9532
:10089000EAF7809582238083DF91CF91FF90EF90DC
:1008A000DF90CF900895EC89FD8928A181E090E048
:1008B00001C0880F2A95EAF7808360E079E08DE334
:1008C00090E0A70196010E945D1E21503109410967
:1008D00051095695479537952795211580E1380799
:1008E00008F092CFA4CFCF92DF92EF92FF921F93A6
:1008F000CF93DF93EC016A017B01122FC11481EECB
:10090000D806E104F10409F052C0EC89FD89108297
:1009100060E874E88EE190E0A70196010E945D1EF8
:100920002150310941095109569547953795279529
:10093000E889F9893083EA89FB892083E88DF98D7C
:100940001083EE89FF8920813C8D81E090E0AC012D
:1009500001C0440F3A95EAF7242B2083EE89FF89E2
:1009600020813D8DAC0101C0440F3A95EAF7242B5C
:100970002083EE89FF8920813E8DAC0101C0440FA8
:100980003A95EAF7242B2083EE89FF8920813F8D59
:1009900001C0880F3A95EAF7809582238083DF9122
:1009A000CF911F91FF90EF90DF90CF900895EC8949
:1009B000FD8928A181E090E001C0880F2A95EAF71F
:1009C000808360E079E08DE390E0A70196010E94CA
:1009D0005D1E2150310941095109569547953795BA
:1009E0002795211580E1380708F08FCFA1CFCF934D
:1009F000DF93FC0186859785DC01A05CBF4F8E5B91
:100A00009F4F4D915C911197EC01288139814217DC
:100A10005307B9F7A689B7894C91248D81E090E0FE
:100A2000BC0102C0660F771F2A95E2F79B01209553
:100A300024232C93A689B7894C91258DEC0102C003
:100A4000CC0FDD1F2A95E2F79E01209524232C93DD
:100A5000A689B7894C91268DBC0102C0660F771F0D
:100A60002A95E2F79B01209524232C93A689B78928
:100A70002C91378D01C0880F3A95EAF78095822333
:100A80008C9384859585FC01EE5BFF4F208131813D
:100A9000805C9F4FEC0139832883DF91CF910895CB
:100AA00081E00895CF92DF92EF92FF920F931F9310
:100AB000CF93DF936C017B01E40EF51E10E000E0A4
:100AC0006E157F0571F0EB01D601ED91FC9101905F
:100AD000F081E02D6991C6010995080F191FBE012B
:100AE000EFCFC801DF91CF911F910F91FF90EF9051
:100AF000DF90CF900895EF92FF920F931F93CF93C3
:100B0000DF937C018B01D0E0C0E0F80164910F5FBE
:100B10001F4F662359F0D701ED91FC910190F081B0
:100B2000E02DC7010995C80FD91FEFCFCE01DF9186
:100B3000CF911F910F91FF90EF900895AF92BF92C8
:100B4000CF92DF92EF92FF920F931F93CF93DF9399
:100B50007C016B01D0E0C0E010E000E0D60114960B
:100B60008D919C91C817D90788F4D701ED91FC911C
:100B7000A080B180BE01C6010E94F30F682FC7019B
:100B8000F5010995080F191F2196E8CFC801DF91DB
:100B9000CF911F910F91FF90EF90DF90CF90BF907A
:100BA000AF9008950C94341EDC01ED91FC910190FE
:100BB000F081E02D0994DB01ED91FC9111970190FA
:100BC000F081E02DBC01CD0109940F931F93CF93C9
:100BD000DF93EC016DE00E94D4058C016AE0CE0148
:100BE0000E94D405800F911FDF91CF911F910F912B
:100BF00008950F931F93CF93DF93EC010E947B0521
:100C00008C01CE010E94E505800F911FDF91CF91ED
:100C10001F910F9108950F931F93CF93DF93EC01D2
:100C20000E949E058C01CE010E94E505800F911F58
:100C3000DF91CF911F910F9108950F931F93CF9341
:100C4000DF93EC010E94341E8C01CE010E94E50569
:100C5000800F911FDF91CF911F910F9108950F93F6
:100C60001F93CF93DF93EC010E94D4058C01CE013A
:100C70000E94E505800F911FDF91CF911F910F9189
:100C800008950F931F93CF93DF93EC010E94DB0530
:100C90008C01CE010E94E505800F911FDF91CF915D
:100CA0001F910F9108954F925F926F927F929F9242
:100CB000AF92BF92CF92DF92EF92FF920F931F936A
:100CC000CF93DF93CDB7DEB7A1970FB6F894DEBF11
:100CD0000FBECDBF5C016A017B01922E19A281E09B
:100CE000821710F08AE0982E8E010F5D1F4F492C5D
:100CF000512C712C612CC701B601A30192010E94F5
:100D00005D1E8C2D929E801911248A3034F5805DF1
:100D1000F80182938F01C414D504E604F704D0F4DB
:100D2000BF01C5010E94341EA1960FB6F894DEBF24
:100D30000FBECDBFDF91CF911F910F91FF90EF902C
:100D4000DF90CF90BF90AF909F907F906F905F901B
:100D50004F90089569017A01CECF895CD9CFCF92A7
:100D6000DF92EF92FF920F931F93CF93DF93EC01EB
:100D70006A017B012115310579F4E881F98101903F
:100D8000F081E02D642FDF91CF911F910F91FF90A3
:100D9000EF90DF90CF9009942A303105E9F42AE0F2
:100DA000F7FE1AC06DE20E94D4058C014427552736
:100DB000BA014C195D096E097F092AE0CE010E9433
:100DC0005306800F911FDF91CF911F910F91FF90DC
:100DD000EF90DF90CF900895B701A601CE01DF918B
:100DE000CF911F910F91FF90EF90DF90CF900C94D7
:100DF00053069A01AB01770F660B770B0C94AF0685
:100E00000F931F93CF93DF93EC010E94F9068C019F
:100E1000CE010E94E505800F911FDF91CF911F91B8
:100E20000F9108950F931F93CF93DF93EC010E94CE
:100E3000AF068C01CE010E94E505800F911FDF9166
:100E4000CF911F910F9108952115310541F4DC01D7
:100E5000ED91FC910190F081E02D642F09940C94A8
:100E600053069A01462F50E070E060E00C9424078E
:100E70000F931F93CF93DF93EC010E9431078C01F6
:100E8000CE010E94E505800F911FDF91CF911F9148
:100E90000F9108959A01AB0170E060E00C94240773
:100EA0000F931F93CF93DF93EC010E944A078C01AD
:100EB000CE010E94E505800F911FDF91CF911F9118
:100EC0000F9108950F931F93CF93DF93EC010E942E
:100ED00024078C01CE010E94E505800F911FDF9150
:100EE000CF911F910F9108954F925F926F927F92D1
:100EF0008F929F92AF92BF92CF92DF92EF92FF922A
:100F00001F93CF93DF93EC016A017B01122FAB019A
:100F10009601CB01B6010E94FC2069E172E08111CB
:100F200026C046015701E894B7F82FEF3FEF4FE78F
:100F30005FE7C501B4010E94FC2081110CC02FEFB6
:100F40003FEF4FE75FE7C501B4010E942B1F6DE142
:100F500072E0181664F02FEF3FEF4FE75FE4C70130
:100F6000B6010E948A201816A4F461E272E0CE0154
:100F7000DF91CF911F91FF90EF90DF90CF90BF90C6
:100F8000AF909F908F907F906F905F904F900C9458
:100F9000341E2FEF3FEF4FE75FECC701B6010E9411
:100FA0002B1F87FDE2CF20E030E0A901C701B60189
:100FB0000E942B1FB12CA12C87FF09C06DE2CE012E
:100FC0000E94D4055C01F7FAF094F7F8F094912CA4
:100FD00060E070E080E09FE3191541F020E030E030
:100FE00040E251E40E94301F9394F6CFA70196018E
:100FF0000E94BF1E2B013C010E94A91F6B017C01B6
:101000000E94D81F9B01AC01C301B2010E94BE1E09
:101010002B013C012AE0B701A601CE010E94530634
:101020007C01EA0CFB1C112339F069ED71E0CE0163
:101030000E94341EE80EF91E115018F120E030E035
:1010400040E251E4C301B2010E948F202B013C0118
:101050000E94A21F4B014AE050E0CE010E94F90617
:10106000E80EF91EB401990C880B990B0E94DA1F47
:101070009B01AC01C301B2010E94BE1E2B013C01C9
:10108000DBCFC701DF91CF911F91FF90EF90DF90F1
:10109000CF90BF90AF909F908F907F906F905F9018
:1010A0004F9008950C9474070F931F93CF93DF9381
:1010B000EC010E9474078C01CE010E94E505800FAF
:1010C000911FDF91CF911F910F9108950F931F935F
:1010D000CF93DF93EC010E944F01688779878A875D
:1010E0009B87E881F9810680F781E02DCE01099583
:1010F00097FF15C00E944F01088519852A853B85F9
:10110000601B710B820B930B0C811D812E813F8123
:10111000601771078207930720F38FEF9FEFDF912E
:10112000CF911F910F9108950F931F93CF93DF934A
:10113000EC010E944F01688779878A879B87E88145
:10114000F9810084F185E02DCE01099597FF15C046
:101150000E944F01088519852A853B85601B710B0C
:10116000820B930B0C811D812E813F8160177107CB
:101170008207930720F38FEF9FEFDF91CF911F91AD
:101180000F910895CF93DF93EC01CE010E94940854
:1011900097FD11C08D32910571F09C0120533109EA
:1011A0002A30310540F0E881F9810680F781E02D91
:1011B000CE010995EACFDF91CF910895FC014483D8
:1011C00055836683778308956F927F928F929F9263
:1011D000AF92BF92CF92DF92EF92FF920F931F9345
:1011E000CF93DF935C016B013A014901FB018081E0
:1011F000811145C081E0DF91CF911F910F91FF9048
:10120000EF90DF90CF90BF90AF909F908F907F90A6
:101210006F900895D0E0C0E0C5010E9466081816DE
:1012200019065CF5F601EE0DFF1D2081022E000C63
:10123000330B8217930751F0F6012081022E000C28
:10124000330BF12CE12C8217930731F4FFEFEF1AE7
:10125000FF0AE614F70470F601151105D9F2F4013E
:10126000EC0FFD1F2081022E000C330B8217930719
:1012700089F62196C017D10778F280E0BCCFD0E084
:10128000C0E0F12CE12CC8CF0F931F9310E000E0D9
:1012900030E020E00E94E4081F910F9108950F9321
:1012A0001F939A01FA0101900020E9F731978F010D
:1012B000041B150BFB0101900020E9F73197AF01EA
:1012C000461B570B0E94E4081F910F91089550E0B0
:1012D00040E00C944F09BF92CF92DF92EF92FF92C1
:1012E0000F931F93CF93DF938C01C62F0E94C208E8
:1012F000FC01C12CD12C760197FD3EC0B12C0C2EE7
:10130000000CDD0BCE17DF07D9F0ED32F10509F443
:101310003FC0CF01C0970A9798F4AAE0B0E0A701B8
:1013200096010E94AD1E6F01FF0FEE08FF08C60E6A
:10133000D71EE81EF91E80E3C81AD108E108F1089B
:10134000D801ED91FC910680F781E02DC801099547
:10135000C8010E949408FC01C0970A9798F2CE1722
:10136000DF0781F2BB2041F0F094E094D094C09468
:10137000C11CD11CE11CF11CC701B601DF91CF914A
:101380001F910F91FF90EF90DF90CF90BF90089545
:10139000BB24B394D5CF61E00C946B097F928F92FC
:1013A0009F92AF92BF92CF92DF92EF92FF920F93F4
:1013B0001F93CF93DF93EC01762E0E94C208E82F93
:1013C00060E070E0CB01E7FD5EC0812C912C80E8ED
:1013D000A82E8FE3B82EC12CD12C760110E000E0AE
:1013E000E71551F1ED3209F45CC0EE3209F45BC04F
:1013F00080ED8E0F8A3000F5AAE0B0E0A7019601DB
:101400000E94AD1ECE2EEE0FDD08EE08FF08C60EC0
:10141000D71EE81EF91E80E3C81AD108E108F108BA
:10142000112351F02DEC3CEC4CEC5DE3C501B40113
:101430000E948F204B015C01E881F9810680F781D1
:10144000E02DCE010995CE010E949408E82F90ED81
:10145000980F9A3028F28E3219F2781609F200238A
:1014600041F0F094E094D094C094C11CD11CE11CD4
:10147000F11CC701B6010E94DA1F112321F0A5015A
:1014800094010E948F20DF91CF911F910F91FF90C7
:10149000EF90DF90CF90BF90AF909F908F907F9014
:1014A000089501E0C9CF11E0C7CF61E00C94CE09E7
:1014B000CF92DF92EF92FF920F931F93CF93DF9320
:1014C0007C018B016A01D0E0C0E0CC15DD0551F054
:1014D000C7010E94660897FD05C0F8018193219617
:1014E0008F01F3CFCE01DF91CF911F910F91FF902C
:1014F000EF90DF90CF900895AF92BF92CF92DF929E
:10150000EF92FF920F931F93CF93DF936C015A01D9
:101510007901D0E0C0E0062F660F110B232B69F490
:10152000CE01DF91CF911F910F91FF90EF90DF904F
:10153000CF90BF90AF9008955F01C6010E946608EA
:1015400097FDEECF0817190759F3F50181932196FE
:10155000EC16FD0689F7E4CF0F931F93CF93DF932B
:10156000EC018B016DE371E00E945D0BC8010E94EC
:10157000660897FD05C0682FCE010E944B0DF6CF7F
:10158000CE01DF91CF911F910F910895EF92FF92BD
:101590000F931F93CF93DF93EC017B01042F6DE337
:1015A00071E00E945D0BC7010E946608002E000CCE
:1015B000110B97FD0BC00817190741F0682FCE01DA
:1015C0000E944B0DC7010E946608F3CFCE01DF9148
:1015D000CF911F910F91FF90EF900895FC018081B2
:1015E00091810C949621CF93DF93EC0188819981AE
:1015F000009711F00E949621198218821D821C8288
:101600001B821A82DF91CF9108950F931F93CF937E
:10161000DF93EC018B016F5F7F4F888199810E947E
:101620002E22009751F0998388831B830A8381E0DF
:10163000DF91CF911F910F91089580E0F9CFCF9363
:10164000DF93EC0188819981892B49F08A819B8104
:101650008617970720F081E0DF91CF910895CE01A2
:101660000E94050B8823C1F38C819D81892B99F7FA
:10167000E881F9811082EFCFEF92FF920F931F93D1
:10168000CF93DF93EC017B018A01BA010E941F0B0B
:1016900081110BC0CE010E94F30ACE01DF91CF91E0
:1016A0001F910F91FF90EF9008951D830C83B70158
:1016B000888199810E94A823F0CFFC0111821082B9
:1016C000138212821582148216826115710551F0FF
:1016D000FB0101900020E9F73197AF01461B570B42
:1016E0000C943C0B08950F931F93CF93DF938C01C1
:1016F000EB01FC01808191810097C9F04281538107
:101700002C813D814217530780F0688179810E94C6
:10171000A8238C819D81F801958384831D821C827E
:10172000DF91CF911F910F9108950E94962188819A
:101730009981F801918380838A819B81938382833D
:101740008C819D8195838483198218821B821A82E1
:10175000E5CFFC011182108213821282158214825D
:1017600016820C94730BFC01118210821382128278
:101770001582148216820C94730BCF93DF93EC01C5
:10178000FB018617970749F060817181611571052A
:1017900041F0448155810E943C0BCE01DF91CF91F5
:1017A00008950E94F30AF9CFFC011182108213827E
:1017B00012821582148216820C94BD0BCF93DF9394
:1017C000EC018617970711F00E94730BCE01DF9191
:1017D000CF910895CF93DF93EC016817790711F04B
:1017E0000E94730BCE01DF91CF910895CF93DF93C9
:1017F000EC016115710571F0FB0101900020E9F722
:101800003197AF01461B570B0E943C0BCE01DF9175
:10181000CF9108950E94F30AF9CFCF93DF9300D0C0
:10182000CDB7DEB7FC0111821082138212821582BD
:101830001482168269831A82BE016F5F7F4F0E94F5
:10184000F60B0F900F90DF91CF9108950F931F9398
:10185000CF93DF93CDB7DEB729970FB6F894DEBFED
:101860000FBECDBF8C01862FF8011182108213822A
:10187000128215821482168250E0BE016F5F7F4F84
:1018800090E00E946324BE016F5F7F4FC8010E94F9
:10189000F60B29960FB6F894DEBF0FBECDBFDF91D1
:1018A000CF911F910F9108950F931F93CF93DF93C3
:1018B000CDB7DEB762970FB6F894DEBF0FBECDBFCF
:1018C0008C01CB01F80111821082138212821582E1
:1018D0001482168250E0BE016F5F7F4F0E94F12399
:1018E000BE016F5F7F4FC8010E94F60B62960FB674
:1018F000F894DEBF0FBECDBFDF91CF911F910F9146
:1019000008950F931F93CF93DF93CDB7DEB7619701
:101910000FB6F894DEBF0FBECDBF8C01CB01F8012E
:10192000118210821382128215821482168250E074
:10193000BE016F5F7F4F0E946324BE016F5F7F4FC8
:10194000C8010E94F60B61960FB6F894DEBF0FBE79
:10195000CDBFDF91CF911F910F9108950F931F93EA
:10196000CF93DF93CDB7DEB7A2970FB6F894DEBF63
:101970000FBECDBF8C01CB01BA01F80111821082DC
:101980001382128215821482168230E0AE014F5FFC
:101990005F4F0E940724BE016F5F7F4FC8010E9406
:1019A000F60BA2960FB6F894DEBF0FBECDBFDF9147
:1019B000CF911F910F9108950F931F93CF93DF93B2
:1019C000CDB7DEB7A1970FB6F894DEBF0FBECDBF7F
:1019D0008C01CB01BA01F8011182108213821282AC
:1019E00015821482168230E0AE014F5F5F4F0E9475
:1019F0003624BE016F5F7F4FC8010E94F60BA1968F
:101A00000FB6F894DEBF0FBECDBFDF91CF911F910F
:101A10000F910895EF92FF920F931F93CF93DF934F
:101A2000EC017B01672B41F480E0DF91CF911F91A6
:101A30000F91FF90EF90089541155105A1F00C8191
:101A40001D81040F151FB8010E941F0B882361F32D
:101A5000288139818C819D81B701820F931F0E945B
:101A6000A8231D830C8381E0E0CFFB0144815581D5
:101A7000608171810C940A0D6115710551F0FB01B3
:101A800001900020E9F73197AF01461B570B0C94EA
:101A90000A0D80E00895CF93DF9300D0CDB7DEB775
:101AA00069831A8241E050E0BE016F5F7F4F0E9460
:101AB0000A0D0F900F90DF91CF910895EF92FF9252
:101AC0000F931F93CF93DF9300D000D0CDB7DEB735
:101AD0007C01862F4AE08E010F5F1F4FB80190E016
:101AE0000E94FC23F80101900020E9F73197AF0133
:101AF000401B510BB801C7010E940A0D0F900F90B7
:101B00000F900F90DF91CF911F910F91FF90EF9069
:101B10000895EF92FF920F931F93CF93DF9300D01E
:101B200000D000D00F92CDB7DEB77C01CB014AE0E8
:101B30008E010F5F1F4FB8010E94FC23F801019036
:101B40000020E9F73197AF01401B510BB801C701E5
:101B50000E940A0D27960FB6F894DEBF0FBECDBFC8
:101B6000DF91CF911F910F91FF90EF900895EF9229
:101B7000FF920F931F93CF93DF9300D000D000D03C
:101B8000CDB7DEB77C01CB014AE08E010F5F1F4F5E
:101B9000B8010E946E24F80101900020E9F7319706
:101BA000AF01401B510BB801C7010E940A0D2696D8
:101BB0000FB6F894DEBF0FBECDBFDF91CF911F915E
:101BC0000F91FF90EF900895EF92FF920F931F9364
:101BD000CF93DF93CDB7DEB72C970FB6F894DEBF67
:101BE0000FBECDBF7C01CB01BA012AE08E010F5F91
:101BF0001F4FA8010E941224F80101900020E9F76C
:101C00003197AF01401B510BB801C7010E940A0D6B
:101C10002C960FB6F894DEBF0FBECDBFDF91CF91EB
:101C20001F910F91FF90EF900895EF92FF920F9305
:101C30001F93CF93DF93CDB7DEB72B970FB6F894F2
:101C4000DEBF0FBECDBF7C01CB01BA012AE08E0101
:101C50000F5F1F4FA8010E944124F801019000204E
:101C6000E9F73197AF01401B510BB801C7010E9442
:101C70000A0D2B960FB6F894DEBF0FBECDBFDF91D5
:101C8000CF911F910F91FF90EF900895CF93DF9325
:101C9000EC01FB0144815581608171810E940A0D34
:101CA000811103C0CE010E94F30ACE01DF91CF91D2
:101CB0000895CF93DF93EC016115710539F4CE01DE
:101CC0000E94F30ACE01DF91CF910895FB010190AC
:101CD0000020E9F73197AF01461B570B0E940A0D10
:101CE000882369F3EFCFCF93DF93EC010E944B0D74
:101CF000811103C0CE010E94F30ACE01DF91CF9182
:101D00000895CF93DF93EC010E945E0D811103C013
:101D1000CE010E94F30ACE01DF91CF910895CF93B7
:101D2000DF93EC010E94890D811103C0CE010E9456
:101D3000F30ACE01DF91CF910895CF93DF93EC01A9
:101D40000E94B70D811103C0CE010E94F30ACE019B
:101D5000DF91CF910895CF93DF93EC010E94E40DC2
:101D6000811103C0CE010E94F30ACE01DF91CF9111
:101D70000895CF93DF93EC010E94150E811103C0EB
:101D8000CE010E94F30ACE01DF91CF910895CF9347
:101D9000DF93EC01A881B981EB01E881F98110970B
:101DA000F1F03097B1F4EC018C819D81892BC9F061
:101DB0008C9190E00BC0DB0114968D919C91892B46
:101DC00081F0808190E0919581959109DF91CF918B
:101DD0000895BF01CD01DF91CF910C949F233097DF
:101DE00051F790E080E0F2CFFC0144815581FB0186
:101DF000248135814217530729F40E94C70E21E040
:101E0000892B09F020E0822F0895FC01248135817F
:101E1000232B31F421E0FB01672B49F4822F089535
:101E2000808191816115710539F421E0FC01808187
:101E30008823A1F320E0F2CF0E949F2321E0892B89
:101E400069F3F8CF0E94C70E892F881F8827881F43
:101E500008950E94C70E21E0181619060CF020E024
:101E6000822F08950E94C70E21E0181619060CF45F
:101E700020E0822F08950E94C70E892F8095881F29
:101E80008827881F0895CF92DF92EF92FF920F93D9
:101E90001F93CF93DF93FB018617970789F1DC012E
:101EA00014962D913C91159744815581241735073F
:101EB000D9F4232B29F100811181ED90FC90F701D9
:101EC00081917F018823E1F0082E000C990B0E947C
:101ED00069236C01E8018991082E000C990B0E947E
:101EE0006923C816D90651F080E0DF91CF911F9188
:101EF0000F91FF90EF90DF90CF9008958E01DFCF8C
:101F000081E0F3CFFA01DB0114964D915C91DC0185
:101F100014962D913C911597241B350B2E173F07D6
:101F200088F08D919C91009769F0DB016D917C9117
:101F30006115710539F08E0F9F1F0E94AF2321E0BC
:101F4000892B09F020E0822F0895FC0144815581FE
:101F5000FB01248135814217530720F050E040E017
:101F60000C94820F80E00895FC0124813581FB01EF
:101F70004481558124173507A0F0FC0180819181AF
:101F8000009779F0FB01608171816115710549F05D
:101F9000241B350B820F931F0E949F2321E0892B66
:101FA00009F020E0822F0895FC0124813581621719
:101FB000730730F480819181860F971FFC01408365
:101FC0000895FC01248135816217730720F4808114
:101FD0009181009729F41092E10281EE92E0089538
:101FE000860F971F0895FC012481358162177307BE
:101FF00048F480819181009729F0860F971FFC019A
:102000008081089580E008950C94F30F0F931F933F
:10201000CF93DF938B014115510559F0611571057F
:1020200041F0FC01C481D5812C173D0738F0FB013C
:102030001082DF91CF911F910F9108954150510966
:10204000C21BD30B4C175D0708F4EA01FC01608149
:102050007181620F731FAE01C8010E94BD23C00FC2
:10206000D11F1882E6CFCF93DF93FC012481358105
:102070004217530788F4C081D181062E000C770BDC
:10208000CE01840F951F0E949423009729F08C1B8A
:102090009D0BDF91CF9108958FEF9FEFFACF50E026
:1020A00040E00C943310CF93DF93FC012481358101
:1020B0004217530788F4C081D181FB01608171818F
:1020C000CE01840F951F0E94D723009729F08C1B07
:1020D0009D0BDF91CF9108958FEF9FEFFACF50E0E6
:1020E00040E00C945310DF92EF92FF920F931F93F6
:1020F000CF93DF938C01DC0114968D919C91159701
:102100004817590750F08FEF9FEFDF91CF911F9144
:102110000F91FF90EF90DF900895EA012196ED91E5
:10212000FC911197EC0FFD1FD0801082ED90FC9078
:10213000062E000C770BC7010E94CC23CE0DDF1DAD
:10214000D882009701F3F80120813181821B930B23
:10215000DCCFFC0144815581415051090C9473102E
:10216000AF92BF92CF92DF92EF92FF920F931F93A5
:10217000CF93DF936B01EA01FB0144815581411547
:10218000510561F1FC01248135812115310531F1C1
:102190002417350718F1C217D30710F0E90121976A
:1021A000FC0100811181C801AA24AA94BB24BA941D
:1021B0007801EC0EFD1EE816F906A0F0F60160812C
:1021C00071810E94D723009769F09C01201B310B7D
:1021D000C217D30708F059010196EDCFAA24AA949B
:1021E000BB24BA94C501DF91CF911F910F91FF904D
:1021F000EF90DF90CF90BF90AF900895FC014481A5
:102200005581FB0124813581421B530B0C94B01086
:10221000AF92BF92CF92DF92EF92FF920F931F93F4
:10222000CF93DF935C016B017A0189012417350795
:1022300020F48F2D7901042F182F6DE371E0C50173
:102240000E945D0BD6011496CD91DC91CE15DF0571
:10225000C8F00C171D0708F4E801D601ED91FC91B8
:102260001197EC0FFD1F108110826D917C916E0D06
:102270007F1DC5010E94F60BF60180819181C80F78
:10228000D91F1883C501DF91CF911F910F91FF9046
:10229000EF90DF90CF90BF90AF900895CF93DF93F2
:1022A000EC01FB01248135810E940811CE01DF91F0
:1022B000CF910895DC01ED91FC91309749F0819127
:1022C000882331F08613FBCFDF0111974C93F7CFB2
:1022D00008952F923F924F925F926F927F928F92CA
:1022E0009F92AF92BF92CF92DF92EF92FF920F93A5
:1022F0001F93CF93DF938C015B017A01FC01448033
:1023000055804114510409F4CCC0FB0164807580F0
:102310006114710409F4C5C0FA01C480D580C618DF
:10232000D708FC01C081D181C114D104B9F4F501F1
:1023300060817181CE010E94D723EC01009709F4DE
:10234000B0C0F70160817181448155810E94792379
:10235000F70184819581C80FD91FE9CFD7FC11C03F
:10236000FB01208031804201B101CE010E94D723C0
:10237000009709F44AC0EC01C60DD71D8C0C9D1CBA
:10238000F3CF3E01F50160817181CE010E94D72318
:102390002C01009721F14C018C1A9D0AA401BE0169
:1023A000C3010E947923680C791CF7016081718157
:1023B00044815581C3010E947923F701848095806F
:1023C000680C791CF501C481D581C40DD51DF801B7
:1023D000848195818C0D9D1D95838483D3CFBE010F
:1023E000C301DF91CF911F910F91FF90EF90DF908C
:1023F000CF90BF90AF909F908F907F906F905F90A5
:102400004F903F902F900C94A8234814590409F43E
:1024100048C0F8018281938188159905E0F1F8019F
:10242000448155814150510957FD3BC0B501C80158
:102430000E94B010EC0197FD34C0F5012481358174
:10244000280F391FF80180819181820F931F4481E9
:102450005581421B530BBC018C0D9D1D0E94822394
:10246000F801848195818C0D9D1D95838483208145
:102470003181820F931FFC011082F80180819181CC
:10248000F70160817181448155818C0F9D1F0E94ED
:102490007923AE01C7CFB401C8010E94050B811199
:1024A000BECFDF91CF911F910F91FF90EF90DF9002
:1024B000CF90BF90AF909F908F907F906F905F90E4
:1024C0004F903F902F900895CF93DF93FC01C081F0
:1024D000D181209761F08991882349F0082E000C62
:1024E000990B0E946923FE0131978083F4CFDF911D
:1024F000CF910895CF93DF93FC01C081D1812097C4
:1025000061F08991882349F0082E000C990B0E94F4
:102510007123FE0131978083F4CFDF91CF9108952D
:10252000AF92BF92CF92DF92EF92FF920F931F93E1
:10253000CF93DF938C01DC01ED90FC901197E114B7
:10254000F104E1F11496CD91DC912097B9F1570196
:102550006501F50181915F01082E000C990B0E9425
:102560006023892BA9F72197CE0DDF1D8881082EC6
:10257000000C990B0E946023892B29F0CC15DD05F6
:1025800010F02197F3CFAE014F5F5F4F4C195D09FB
:10259000D80115965C934E931497EC14FD0420F427
:1025A000B601C7010E947923D801ED91FC911197E2
:1025B00014968D919C91E80FF91F1082DF91CF91B5
:1025C0001F910F91FF90EF90DF90CF90BF90AF9051
:1025D0000895FC0180819181009711F00C94F822FC
:1025E00060E070E0CB0108950C9401210C9401216E
:1025F0000C9496210C949621FC0181E090E02081BE
:10260000222311F090E080E0089521E0FC01208376
:10261000089508950895CF93DF93EC0166E271E089
:1026200087E392E00E94D205488159816A817B81CB
:1026300022E030E087E392E00E94520869E271E014
:1026400087E392E00E94D2054C815D816E817F819B
:1026500022E030E087E392E00E9452086EE271E0EF
:1026600087E392E00E94D205488559856A857B857B
:1026700022E030E087E392E00E9452086DE371E0CF
:1026800087E392E0DF91CF910C941D06CF92DF9209
:10269000EF92FF920F931F93CF93DF93EC018EE0A5
:1026A0000E948F006C018FE00E948F007C0180E10E
:1026B0000E948F008C01B601DD0C880B990B0E94E3
:1026C000DA1F20E030E040E850E40E948F2020E054
:1026D00030EC4FE754E40E94301F688379838A838B
:1026E0009B83B701FF0C880B990B0E94DA1F20E037
:1026F00030E040E05FE30E948F2020E030EC4FE7C5
:1027000054E40E94301F6C837D838E839F83B801C5
:10271000110F880B990B0E94DA1F20E030E040E493
:1027200050E40E948F2020E030EC4FE754E40E94F8
:10273000301F688779878A879B87CE01DF91CF9189
:102740001F910F91FF90EF90DF90CF900895CF935E
:10275000DF93CDB7DEB728970FB6F894DEBF0FBE74
:10276000CDBFCE0101960E94CC1A888528960FB65F
:10277000F894DEBF0FBECDBFDF91CF9108950895CD
:1027800040E052EC61E070E087E392E00E94F403E5
:102790004FEF5FEF6FEF7FE787E392E00E94DE0885
:1027A00062E088E00E94140262E08BE00E94140262
:1027B00061E08DE00E94140260E08EE00E9414024D
:1027C00060E08FE00E94140260E080E10E94140249
:1027D0000E94B51A559A229A4FEF48BD2FEF30E06C
:1027E00030938B0020938A0084B5806284BDE0E83A
:1027F000F0E080818062808391E090931E01569A80
:10280000219A47BD309389002093880084B5806861
:1028100084BD808180688083909319010E94701D1F
:1028200060E08EE00E94140260E08FE00C941402DD
:102830009F92AF92BF92CF92DF92EF92FF920F934F
:102840001F93CF93DF9300D000D000D00F92CDB76D
:10285000DEB7D22EF42EC52EB62EA72E982E01301E
:1028600009F445C0002399F1023049F510E04AE02F
:1028700050E0612F87E392E00E94310760E287E336
:1028800092E00E94D4051F5F173089F787E392E03A
:102890000E94E505ED14F8F080E027960FB6F89455
:1028A000DEBF0FBECDBFDF91CF911F910F91FF9083
:1028B000EF90DF90CF90BF90AF909F9008954E150E
:1028C00058F35E1548F381E06E1538F7E5CFE21650
:1028D00018F3E31608F3EF14F8F2EC14E8F2EB1433
:1028E000D8F2EA14C8F281E0E914B8F6D5CFE216BE
:1028F00098F2E31688F2E41678F2E51668F2E61626
:1029000058F281E0E91448F2C7CF2F923F924F92DC
:102910005F926F927F928F929F92AF92BF92CF926F
:10292000DF92EF92FF920F931F93CF93DF93CDB778
:10293000DEB7A3970FB6F894DEBF0FBECDBF89A355
:102940009E01275F3F4F38A32F8F3F8D3AA348A1A9
:102950004BA322242A94312CCE0109960E94CC1A32
:102960008889811108C0CE0101960E94CC1A888501
:10297000882309F40BC287E0EAA1FBA1DE0151968E
:1029800001900D928A95E1F787E0FE017196DE01D4
:10299000589601900D928A95E1F702EE12E0288D8B
:1029A000398D4A8D5B8D6C8D7D8D8E8D0E94321C94
:1029B000F32EB42E152F062FF72FE82F29833A83F5
:1029C0004B835C836D837E838F83A22FB0E020E8EE
:1029D0003FEF4FEF5FEF0E94AD1E2B013C01AF2D8B
:1029E000B0E02AEA3FEF4FEF5FEF0E94AD1E7301A8
:1029F0006201C60ED71EE81EF91EAB2DB0E024ED15
:102A00003FEF4FEF5FEF0E94AD1EC60ED71EE81ED0
:102A1000F91E812F90E0B0E0A0E020E030E0A901B5
:102A2000281B390B4A0B5B0BDA01C901880F991F70
:102A3000AA1FBB1F8C0D9D1DAE1DBF1D10E030E0F9
:102A400020E068017901CC0CDD1CEE1CFF1CCC0CD5
:102A5000DD1CEE1CFF1CC00ED11EE21EF31ECC0CB2
:102A6000DD1CEE1CFF1CCC0CDD1CEE1CFF1CCC0C7A
:102A7000DD1CEE1CFF1CC80ED91EEA1EFB1E2F2FEC
:102A800030E0A2E5B0E00E949E1EC60ED71EE81EF2
:102A9000F91E2E2F30E0ACE7B0E00E949E1EC60E5D
:102AA000D71EE81EF91EC701B60120E037E040E05E
:102AB00050E00E947F1E122F8091F0029091F1024F
:102AC000A091F202B091F30249015A01881A990AC1
:102AD000AA0ABB0A61E071E0C71679EFD7067FEF5B
:102AE000E706F7060CF060E08827B7FD8395992785
:102AF000AA27BB2769017A0168130CC0C090F402B1
:102B0000D090F502E090F602F090F702C20ED31ECC
:102B1000E41EF51E2093F0023093F1024093F2027E
:102B20005093F302C092F402D092F502E092F602C2
:102B3000F092F702622F220F770B880B990B0E94FD
:102B4000DA1F20910701309108014091090150914D
:102B50000A010E948F202B013C01C701B6010E948F
:102B6000DA1F20910B0130910C0140910D01509121
:102B70000E010E948F209B01AC01C301B2010E9493
:102B8000BF1E6B017C01C501B4010E94DA1F2091B8
:102B90000F013091100140911101509112010E94DA
:102BA0008F209B01AC01C701B6010E94BF1E6B01C3
:102BB0007C0120E030E040E053EC0E942B1F87FDB9
:102BC000EBC020E030E04EEF52E4C701B6010E94B6
:102BD0008A2018160CF4E0C0C701B6010E94A21F9B
:102BE00017FDE0C06D3308F06CE36E7F0CE3061B4D
:102BF000009513EC80911E01813039F18FEF88BD73
:102C000030928B0020928A00C0901A01D0901B0154
:102C1000E0901C01F0901D0102C06C017D0161E09B
:102C200070E080E090E00E94800180911A01909114
:102C30001B01A0911C01B0911D018C159D05AE05D5
:102C4000BF0559F791E090931E0108BD80911901CD
:102C5000813039F12FEF27BD309289002092880012
:102C6000C0901501D0901601E0901701F090180166
:102C700002C06C017D0161E070E080E090E00E94A4
:102C800080018091150190911601A0911701B091DA
:102C900018018C159D05AE05BF0559F731E030933D
:102CA000190117BD8EE1E82E09A129813A814B81D6
:102CB0005C816D817E818F810E941814882309F4C4
:102CC0004BCE8FEF88BD8FEF90E090938B00809379
:102CD0008A00C0901A01D0901B01E0901C01F09076
:102CE0001D0102C06C017D0161E070E080E090E0B8
:102CF0000E94800180911A0190911B01A0911C01FA
:102D0000B0911D018C159D05AE05BF0559F78FEFDC
:102D100087BD8FEF90E09093890080938800C090EA
:102D20001501D0901601E0901701F090180102C033
:102D30006C017D0161E070E080E090E00E94800124
:102D40008091150190911601A0911701B091180181
:102D50008C159D05AE05BF0559F7A3960FB6F894DF
:102D6000DEBF0FBECDBFDF91CF911F910F91FF90BE
:102D7000EF90DF90CF90BF90AF909F908F907F901B
:102D80006F905F904F903F902F900895888988238F
:102D900009F4E9CD188AE7CD0FEF17FF2ACF1FEF0F
:102DA00003EC28CF61956D3330F46E7F1CE3161B66
:102DB000109503EC1FCF6CE36E7F1CE3161B109580
:102DC000F8CF4F925F926F927F928F929F92AF92C5
:102DD000BF92CF92DF92EF92FF921F93CF93DF9338
:102DE000C42F80901A0190901B01A0901C01B090FC
:102DF0001D014090150150901601609017017090D0
:102E00001801B0E0A0E020911E01613009F415C165
:102E1000881A990AAA0ABB0A481A590A6A0A7B0A36
:102E2000213009F4E1C0C095D0E0D0938B00C0936D
:102E30008A0080911901813009F4ADC0D0938900D6
:102E4000C09388001FEFCFEFD0E080911A019091DE
:102E50001B01A0911C01B0911D0188159905AA05BF
:102E6000BB050CF466C018BDD0938B00C0938A00DC
:102E7000C0901A01D0901B01E0901C01F0901D0140
:102E800002C06C017D0161E070E080E090E00E9492
:102E9000800180911A0190911B01A0911C01B091B9
:102EA0001D018C159D05AE05BF0559F780911501D3
:102EB00090911601A0911701B09118018415950504
:102EC000A605B70514F28FEF87BD8FEF90E09093C2
:102ED000890080938800C0901501D0901601E09081
:102EE0001701F090180102C06C017D0161E070E0F3
:102EF00080E090E00E948001809115019091160180
:102F0000A0911701B09118018C159D05AE05BF0564
:102F100059F7DF91CF911F91FF90EF90DF90CF9005
:102F2000BF90AF909F908F907F906F905F904F90E9
:102F300008958091150190911601A0911701B0910B
:102F4000180184159505A605B7050CF47ECF17BDAD
:102F5000D0938900C0938800C0901501D0901601CD
:102F6000E0901701F090180102C06C017D0161E052
:102F700070E080E090E00E948001809115019091C6
:102F80001601A0911701B09118018C159D05AE0591
:102F9000BF0559F75ACF8FEF87BD8FEF90E0909321
:102FA000890080938800C0901501D0901601E090B0
:102FB0001701F090180102C06C017D0161E070E022
:102FC00080E090E00E9480018091150190911601AF
:102FD000A0911701B09118018C159D05AE05BF0594
:102FE00059F7109219012ACF8FEF88BD8FEF90E02B
:102FF00090938B0080938A00C0901A01D0901B019F
:10300000E0901C01F0901D0102C06C017D0161E0A7
:1030100070E080E090E00E94800180911A01909120
:103020001B01A0911C01B0911D018C159D05AE05E1
:10303000BF0559F710921E01F6CE880E991EAA1EE2
:10304000BB1E480E591E6A1E7B1E213049F18FEFB0
:1030500088BD8FEF90E090938B0080938A00C090A2
:103060001A01D0901B01E0901C01F0901D0102C0DC
:103070006C017D0161E070E080E090E00E948001E1
:1030800080911A0190911B01A0911C01B0911D012A
:103090008C159D05AE05BF0559F781E080931E0193
:1030A000C095C8BD80911901813049F18FEF87BD6E
:1030B0008FEF90E09093890080938800C090150175
:1030C000D0901601E0901701F090180102C06C0139
:1030D0007D0161E070E080E090E00E9480018091DD
:1030E000150190911601A0911701B09118018C154E
:1030F0009D05AE05BF0559F781E080931901C7BD55
:10310000A1CE8F929F92AF92BF92CF92DF92EF9219
:10311000FF92CF93DF93EC01C880D980EA80FB80D7
:10312000C60ED11CE11CF11C8C81813001F18FEFA6
:1031300088BD8FEF90E090938B0080938A00888009
:103140009980AA80BB8002C04C015D0161E070E003
:1031500080E090E00E94800188819981AA81BB81F2
:1031600088159905AA05BB0579F781E08C8385EA66
:1031700088BD88819981AA81BB818C159D05AE058A
:10318000BF05BCF38FEF88BD8FEF90E090938B006D
:1031900080938A00C880D980EA80FB8002C06C01DD
:1031A0007D0161E070E080E090E00E948001888114
:1031B0009981AA81BB818C159D05AE05BF0579F764
:1031C000DF91CF91FF90EF90DF90CF90BF90AF90C5
:1031D0009F908F9008958F929F92AF92BF92CF92BF
:1031E000DF92EF92FF92CF93DF93EC01C880D980FA
:1031F000EA80FB80C60ED11CE11CF11C8C81813061
:1032000001F18FEF87BD8FEF90E09093890080935D
:10321000880088809980AA80BB8002C04C015D0133
:1032200061E070E080E090E00E94800188819981F7
:10323000AA81BB8188159905AA05BB0579F781E0AC
:103240008C8385EA87BD88819981AA81BB818C1591
:103250009D05AE05BF05BCF38FEF87BD8FEF90E0F6
:103260009093890080938800C880D980EA80FB8091
:1032700002C06C017D0161E070E080E090E00E949E
:10328000800188819981AA81BB818C159D05AE053D
:10329000BF0579F7DF91CF91FF90EF90DF90CF904E
:1032A000BF90AF909F908F900895CDB7DEB7A49751
:1032B0000FB6F894DEBF0FBECDBF0E94B0010E94D2
:1032C000C01363E371E087E392E00E94D205CE0170
:1032D00001967C0110E000E0B8018EEF92E00E94C0
:1032E000F21DF70181937F010F5F1F4F0C30110515
:1032F00099F78CE0FE013196DE011D9601900D924A
:103300008A95E1F77E01FDE0EF0EF11CC7010E94F6
:103310000B136EE371E087E392E00E94D205CE01C9
:1033200001960E944613CE0101960E940B1368E09D
:1033300070E082EE92E00E94BF1CCE0149960E948E
:1033400046138CE0FE017996A7E0B1E001900D9262
:103350008A95E1F78CE0E7E0F1E0DE01119601905B
:103360000D928A95E1F78E010F5F1F4F6801C0949F
:10337000D094F80141918F01B6016E0F7F1F8EEF3F
:1033800092E00E94F51D0E151F0599F781E00E943D
:10339000851446E461E08AE090E00E94E1166FE067
:1033A0008AE191E00E94811881E00E94851446E440
:1033B00061E085E090E00E94E11668E285E191E03D
:1033C0000E94EB1882E00E94851446E461E085E0EB
:1033D00090E00E94E1166EE18AE191E00E9481187E
:1033E00080E00E94851446E461E08AE090E00E945B
:1033F000E11681E00E9485146EE185E191E00E9472
:10340000EB1881E00E94851446E461E08AE090E0D8
:103410000E94E11681E00E94851468E285E191E056
:103420000E94EB1880E00E948514FFCFE22FF32F5B
:103430004DBF5EBF099521E04091130150911401E9
:103440004817590711F0822F089520E0822F089520
:10345000FC018091130190911401E817F90711F014
:1034600080E0089581E020813181232BC9F3089504
:10347000FC0180819181892B11F080E0089581E029
:10348000E85FF240D1F30895CF93DF93CDB7DEB775
:103490006B970FB6F894DEBF0FBECDBF9B8F8A8FA0
:1034A0002091130130911401398F288F2817390783
:1034B000D1F0CE010196E88DF98D918380830E9431
:1034C0001F23892B09F43FC0288D398D30931401B7
:1034D000209313016B960FB6F894DEBF0FBECDBFDD
:1034E000DF91CF91089569E471E087E392E00E9453
:1034F000D20562E571E087E392E00E94D2052AE0FE
:1035000030E04EE250E060E070E087E392E00E943D
:10351000120769E571E087E392E00E94D20566E652
:1035200071E087E392E00E94D20561ED71E087E3EC
:1035300092E00E941D061A82198289819A81019661
:103540009A838983FACF61E070E0EA8DFB8D8081F8
:1035500091810E943F23209113013091140128177B
:10356000390711F00C94441A089561E082E10E9439
:10357000500261E083E10E945002E9EBF0E08081BB
:103580008E7F808380818D7F80838CE08093B800E4
:1035900085E48093BC000895CF93DF9300D0CDB72E
:1035A000DEB7FC0184EA8093BC009091BC0097FFD9
:1035B000FCCF9091B900987F903169F0983309F46D
:1035C00021C1983041F010821782CF010F900F90E7
:1035D000DF91CF91089583E18093BB0084E88093CD
:1035E000BC009091BC0097FFFCCF8091B900887F10
:1035F000883309F404C1803409F0F6C084EC809368
:10360000BC009091BC0097FFFCCF8091B900887FEF
:10361000803509F0E9C09091BB0084EC8093BC0038
:103620008091BC0087FFFCCF8091B900887F8035F6
:1036300009F0DAC08091BB0084EC8093BC008091DB
:10364000BC0087FFFCCF8091B900887F803509F0EE
:10365000CBC02091BB0084EC8093BC008091BC0067
:1036600087FFFCCF8091B900887F803509F0BCC00E
:103670008091BB0084EC8093BC008091BC0087FFEC
:10368000FCCF8091B900887F803509F0ADC03091C2
:10369000BB0084EC8093BC008091BC0087FFFCCF12
:1036A0008091B900887F803509F09EC08091BB0071
:1036B00084EC8093BC008091BC0087FFFCCF80919C
:1036C000B900887F803509F08FC07091BB0084EC11
:1036D0008093BC008091BC0087FFFCCF8091B90033
:1036E000887F803509F080C08091BB0084EC809396
:1036F000BC008091BC0087FFFCCF8091B900887F1F
:10370000803509F071C06091BB0084EC8093BC00EF
:103710008091BC0087FFFCCF8091B900887F803505
:1037200009F062C08091BB0084EC8093BC00809162
:10373000BC0087FFFCCF8091B900887F803509F0FD
:1037400053C05091BB0084EC8093BC008091BC00BE
:1037500087FFFCCF8091B900887F803509F044C095
:103760008091BB0084EC8093BC008091BC0087FFFB
:10377000FCCF8091B900887F8035B1F54091BB00C6
:1037800084EC8093BC008091BC0087FFFCCF8091CB
:10379000B900887F803541F58091BB0084EC80932F
:1037A000BC008091BC0087FFFCCF8091B900887F6E
:1037B0008035D1F48091BB0084E88093BC00809177
:1037C000BC0087FFFCCF8091B900887F883561F409
:1037D0008091BB00908321833283738364835583FC
:1037E000468381E0878302C01082178284E9809338
:1037F000BC00CF010F900F90DF91CF91089584E925
:103800008093BC006BED71E087E392E00E94D205EB
:1038100062E571E087E392E00E94D2052AE030E0A1
:103820004FEC50E060E070E087E392E00E94120706
:1038300069E571E087E392E00E94D20561EF71E0F3
:1038400087E392E00E94D20561ED71E087E392E0A8
:103850000E941D061A82198289819A8101969A8393
:103860008983FACFBF92CF92DF92EF92FF920F93AC
:103870001F93CF93DF93CDB7DEB72E970FB6F89493
:10388000DEBF0FBECDBFD52EE62EB72EF82EF80127
:103890008281A32FA81BBB0B1FEF1A9FC0011B9F88
:1038A000900D1124638170E00E94491EC62E848110
:1038B000481B550B149FC001159F900D1124658165
:1038C00070E00E94491E462F8681AD2DA81BBB0BC0
:1038D0001A9FC0011B9F900D1124678170E00E9408
:1038E000491ED62E8085AE2DA81BBB0B1A9FC0018A
:1038F0001B9F900D1124618570E00E94491EE62EE9
:103900008285AB2DA81BBB0B1A9FC0011B9F900D7E
:103910001124638570E00E94491E062F8485AF2D17
:10392000A81BBB0B1A9FC0011B9F900D112465851E
:1039300070E00E94491EF62E8081281B330B129FD7
:10394000C001139F900D1124618170E00E94491EF7
:10395000262F3C2D5D2D6E2D702F8F2D90E02E96F5
:103960000FB6F894DEBF0FBECDBFDF91CF911F9190
:103970000F91FF90EF90DF90CF90BF9008959F92AE
:10398000AF92BF92CF92DF92EF92FF920F931F936D
:10399000CF93DF93CDB7DEB76E970FB6F894DEBF47
:1039A0000FBECDBF5C01C62E61E08DE00E94140207
:1039B00061E08DE00E9450028C2D0E947E020197F2
:1039C000D9F360E08DE00E94500287E0EFE1F1E082
:1039D000DE01589601900D928A95E1F78E010F5EF7
:1039E0001F4F87E0F80111928A95E9F768EE73E0BE
:1039F00080E090E00E948001CE0148967C01DD24A9
:103A0000D3948C2D0E947E02019709F042C0CE0112
:103A100009960E94CC1A8889811108C0CE010196AE
:103A20000E94CC1A8885882379F1D88A7E859D8466
:103A30005C856B852A8599854F85F701D80180E0E3
:103A400030819317B8F03C91391708F49C938F5F3D
:103A5000319611968730A9F2992D843089F360F45C
:103A6000962F823069F3952F833051F3922F308156
:103A7000931748F79083EBCF972F853009F3942F56
:103A80008630F1F2922FF3CF8889882339F2188A91
:103A9000C5CF9701D501F80181918F01F90191916D
:103AA0009F019C93891B11968C9311971296E01697
:103AB000F10689F761E08DE00E9450026E960FB624
:103AC000F894DEBF0FBECDBFDF91CF911F910F9154
:103AD000FF90EF90DF90CF90BF90AF909F900895B0
:103AE0008DB31DBA52985A9853985B9885E080938D
:103AF000690083E08DBB08951F921FB61F921124A9
:103B00008F939F93AF93BF9380911E018823D9F029
:103B100080911A0190911B01A0911C01B0911D018F
:103B20000196A11DB11D80931A0190931B01A093D2
:103B30001C01B0931D01BF91AF919F918F911F9078
:103B40001FBE1F90189580911A0190911B01A091A2
:103B50001C01B0911D010197A109B10980931A01BF
:103B600090931B01A0931C01B0931D01E4CF1F9201
:103B70001FB61F9211248F939F93AF93BF93809191
:103B800019018823D9F08091150190911601A09117
:103B90001701B09118010196A11DB11D8093150167
:103BA00090931601A0931701B0931801BF91AF91A4
:103BB0009F918F911F901FBE1F90189580911501A6
:103BC00090911601A0911701B09118010197A109D8
:103BD000B1098093150190931601A0931701B0933A
:103BE0001801E4CFCB010C948824CB01642F0C94F2
:103BF0009024E7E3F2E01382128288EE93E0A0E0E3
:103C0000B0E084839583A683B7838DE092E09183AF
:103C100080838DE992E09587848789E592E0978794
:103C2000868785EC90E0918B808B84EC90E0938B81
:103C3000828B80EC90E0958B848B81EC90E0978B6D
:103C4000868B82EC90E0918F808F86EC90E0938F52
:103C5000828F84E0848F83E0858F87E0868F85E084
:103C6000878F81E080A308956115710579F0FB01CC
:103C700001900020E9F73197AF01461B570BDC019B
:103C8000ED91FC910280F381E02D099490E080E0B9
:103C90000895AA1BBB1B51E107C0AA1FBB1FA61793
:103CA000B70710F0A61BB70B881F991F5A95A9F7E5
:103CB00080959095BC01CD010895A1E21A2EAA1B12
:103CC000BB1BFD010DC0AA1FBB1FEE1FFF1FA217CC
:103CD000B307E407F50720F0A21BB30BE40BF50BC9
:103CE000661F771F881F991F1A9469F76095709552
:103CF000809590959B01AC01BD01CF010895052EE3
:103D000097FB1EF400940E94961E57FD07D00E9458
:103D10005D1E07FC03D04EF40C94961E5095409502
:103D2000309521953F4F4F4F5F4F08959095809567
:103D3000709561957F4F8F4F9F4F0895A29FB0015F
:103D4000B39FC001A39F700D811D1124911DB29FCF
:103D5000700D811D1124911D08950E949E1EA59F26
:103D6000900DB49F900DA49F800D911D1124089576
:103D7000EE0FFF1F0590F491E02D09945058BB27DA
:103D8000AA270E94D61E0C9450200E94422038F090
:103D90000E94492020F039F49F3F19F426F40C9436
:103DA0003F200EF4E095E7FB0C943920E92F0E94A8
:103DB000612058F3BA17620773078407950720F04C
:103DC00079F4A6F50C9483200EF4E0950B2EBA2F0F
:103DD000A02D0B01B90190010C01CA01A001112411
:103DE000FF27591B99F0593F50F4503E68F11A16BD
:103DF000F040A22F232F342F4427585FF3CF46954E
:103E000037952795A795F0405395C9F77EF41F166F
:103E1000BA0B620B730B840BBAF09150A1F0FF0F39
:103E2000BB1F661F771F881FC2F70EC0BA0F621F25
:103E3000731F841F48F4879577956795B795F79515
:103E40009E3F08F0B0CF9395880F08F09927EE0FAA
:103E50009795879508950E94152008F481E00895AC
:103E60000E94441F0C9450200E94492058F00E9448
:103E7000422040F029F45F3F29F00C943920511181
:103E80000C9484200C943F200E94612068F39923B5
:103E9000B1F3552391F3951B550BBB27AA27621746
:103EA0007307840738F09F5F5F4F220F331F441F53
:103EB000AA1FA9F335D00E2E3AF0E0E832D0915087
:103EC0005040E695001CCAF72BD0FE2F29D0660F74
:103ED000771F881FBB1F261737074807AB07B0E8B7
:103EE00009F0BB0B802DBF01FF2793585F4F3AF0BD
:103EF0009E3F510578F00C9439200C9484205F3F4C
:103F0000E4F3983ED4F3869577956795B795F79542
:103F10009F5FC9F7880F911D9695879597F908952A
:103F2000E1E0660F771F881FBB1F621773078407C6
:103F3000BA0720F0621B730B840BBA0BEE1F88F7D5
:103F4000E09508950E94A91F6894B1110C948420F3
:103F500008950E94692088F09F5798F0B92F9927FB
:103F6000B751B0F0E1F0660F771F881F991F1AF064
:103F7000BA95C9F714C0B13091F00E948320B1E026
:103F800008950C948320672F782F8827B85F39F025
:103F9000B93FCCF3869577956795B395D9F73EF4FD
:103FA00090958095709561957F4F8F4F9F4F0895A5
:103FB000E89409C097FB3EF49095809570956195C3
:103FC0007F4F8F4F9F4F9923A9F0F92F96E9BB2779
:103FD0009395F695879577956795B795F111F8CFF5
:103FE000FAF4BB0F11F460FF1BC06F5F7F4F8F4F60
:103FF0009F4F16C0882311F096E911C0772321F056
:104000009EE8872F762F05C0662371F096E8862FED
:1040100070E060E02AF09A95660F771F881FDAF744
:10402000880F9695879597F90895990F0008550F71
:10403000AA0BE0E8FEEF16161706E807F907C0F02E
:1040400012161306E407F50798F0621B730B840B36
:10405000950B39F40A2661F0232B242B252B21F410
:1040600008950A2609F4A140A6958FEF811D811DB0
:10407000089597F99F6780E870E060E008959FEFEA
:1040800080EC089500240A941616170618060906EF
:10409000089500240A9412161306140605060895BE
:1040A000092E0394000C11F4882352F0BB0F40F446
:1040B000BF2B11F460FF04C06F5F7F4F8F4F9F4F86
:1040C000089557FD9058440F551F59F05F3F71F008
:1040D0004795880F97FB991F61F09F3F79F087956F
:1040E0000895121613061406551FF2CF4695F1DFF8
:1040F00008C0161617061806991FF1CF8695710588
:10410000610508940895E894BB2766277727CB01BB
:1041100097F908950E94152008F48FEF08950E94E2
:10412000A2200C9450200E94422038F00E94492086
:1041300020F0952311F00C9439200C943F20112489
:104140000C9484200E94612070F3959FC1F3950F19
:1041500050E0551F629FF001729FBB27F00DB11D0B
:10416000639FAA27F00DB11DAA1F649F6627B00D9B
:10417000A11D661F829F2227B00DA11D621F739F84
:10418000B00DA11D621F839FA00D611D221F749F92
:104190003327A00D611D231F849F600D211D822FD9
:1041A000762F6A2F11249F5750409AF0F1F0882300
:1041B0004AF0EE0FFF1FBB1F661F771F881F91502D
:1041C0005040A9F79E3F510580F00C9439200C9483
:1041D00084205F3FE4F3983ED4F386957795679506
:1041E000B795F795E7959F5FC1F7FE2B880F911D57
:1041F0009695879597F908950E941520880B990B3D
:104200000895CF93DF938230910510F482E090E01F
:10421000E0910103F091020320E030E0C0E0D0E043
:10422000309711F14081518148175907C0F0481764
:10423000590761F482819381209719F09B838A83C7
:104240002BC0909302038093010326C021153105F2
:1042500019F04217530718F49A01BE01DF01EF016C
:104260000280F381E02DDCCF2115310509F1281BF7
:10427000390B2430310590F412968D919C9113974F
:104280006115710521F0FB019383828304C0909333
:10429000020380930103FD01329644C0FD01E20F49
:1042A000F31F81939193225031092D933C933AC08F
:1042B0002091FF0230910003232B41F42091030150
:1042C00030910401309300032093FF0220910101FB
:1042D000309102012115310541F42DB73EB74091CF
:1042E000050150910601241B350BE091FF02F0916E
:1042F0000003E217F307A0F42E1B3F0B2817390722
:1043000078F0AC014E5F5F4F2417350748F04E0F31
:104310005F1F509300034093FF028193919302C06B
:10432000E0E0F0E0CF01DF91CF9108950F931F936C
:10433000CF93DF93009709F48CC0FC01329713826E
:10434000128200910103109102030115110581F4FD
:1043500020813181820F931F2091FF023091000351
:104360002817390779F5F0930003E093FF0271C035
:10437000D80140E050E0AE17BF0750F412962D91DF
:104380003C911397AD012115310509F1D901F3CF06
:104390009D01DA013383228360817181860F971F2B
:1043A0008217930769F4EC0128813981260F371FA2
:1043B0002E5F3F4F318320838A819B819383828349
:1043C000452B29F4F0930203E093010342C01396B6
:1043D000FC93EE931297ED01499159919E01240FA0
:1043E000351FE217F30771F480819181840F951FC7
:1043F000029611969C938E938281938113969C933F
:104400008E931297E0E0F0E0D80112968D919C9186
:104410001397009719F0F8018C01F6CF8D919C91BC
:1044200098012E5F3F4F820F931F2091FF02309122
:1044300000032817390769F4309729F41092020312
:104440001092010302C013821282109300030093A2
:10445000FF02DF91CF911F910F910895A0E0B0E08E
:10446000E4E3F2E20C94B424EC01009721F4CB01D4
:104470000E940121B8C0FC01E60FF71F9C012250E9
:104480003109E217F30708F4ACC0D9010D911C9172
:10449000119706171707B0F00530110508F49FC0F3
:1044A000C80104978617970708F499C002501109AC
:1044B000061B170B019311936D937C93CF010E9400
:1044C00096218DC05B01A01AB10A4C01800E911E8D
:1044D000A0910103B091020340E050E0E12CF12CE7
:1044E000109709F44AC0A815B905D1F56D907C90D4
:1044F0001197630182E0C80ED11CCA14DB0480F15D
:10450000A3014A195B096A0182E0C80ED11C129608
:10451000BC9012971396AC91B5E0CB16D10440F045
:10452000B282A38351834083D9016D937C930AC0E7
:104530000E5F1F4FC301800F911FF901918380838C
:10454000EB2DFA2FE114F10431F0D7011396FC930F
:10455000EE93129744C0F0930203E09301033FC02F
:104560008D919C9111974817590708F4AC017D0172
:1045700012960D90BC91A02DB3CF8091FF02909127
:10458000000388159905E1F446175707C8F4809190
:10459000010190910201009741F48DB79EB74091BF
:1045A000050150910601841B950BE817F907C8F423
:1045B000F0930003E093FF02F901718360830FC061
:1045C000CB010E9401217C01009759F0A801BE0196
:1045D0000E947923CE010E949621C70104C0CE011A
:1045E00002C080E090E0CDB7DEB7EEE00C94D024BE
:1045F0001F93FC0199278827BC01E8941191103280
:10460000E9F3193010F01E30C8F31B3251F01D329F
:1046100049F4689406C00E942124610F711D811D18
:10462000911D119110531A30B0F33EF4909580957E
:10463000709561957F4F8F4F9F4F1F910895DC01BB
:104640002D923D924D925D926D927D928D929D92B2
:10465000AD92BD92CD92DD92ED92FD920D931D93A0
:10466000CD93DD93FF91EF918DB78D938EB78D93A1
:104670008FB78D93ED93FD93882799270994DC01DB
:10468000CB0181309105811D2D903D904D905D9025
:104690006D907D908D909D90AD90BD90CD90DD9072
:1046A000ED90FD900D911D91CD91DD91ED91FD91DC
:1046B0000D90F894FEBF0FBEEDBFED91FD910994F2
:1046C00091110C949D24803219F089508550C8F7BF
:1046D00008959111089581548A5108F4805E855A95
:1046E00008959111089581568A5108F48052855891
:1046F0000895FB01DC0102C001900D924150504031
:10470000D8F708956817790768F4FB01DC01E40F16
:10471000F51FA40FB51F02C002900E9241505040E9
:10472000D8F708950C947923FC018191861721F024
:104730008823D9F7992708953197CF010895FB0170
:10474000DC018D91019080190110D9F3990B089526
:10475000FB01DC0101900D920020E1F70895FB01BF
:10476000DC014150504030F08D910190801919F4D6
:104770000020B9F7881B990B0895FB01DC0141501B
:10478000504048F001900D920020C9F701C01D92E1
:1047900041505040E0F70895FC0181E090E0019025
:1047A000061609F4CF010020D1F701970895FB0107
:1047B00051915523A9F0BF01DC014D9145174111DD
:1047C000E1F759F4CD010190002049F04D914015D9
:1047D0004111C9F3FB014111EFCF81E090E0019756
:1047E00008954532510520F4423010F00C94FC231A
:1047F000FB011082CB010895BB274A3031F4992385
:1048000022F4BDE2909581959F4F0C946F24253240
:10481000310520F4223010F00C941224FA01108299
:10482000CA010895BB272A3051F4992342F4BDE20E
:1048300090958095709561957F4F8F4F9F4F0C9409
:104840004224592F482F372F262F660F771F881F96
:10485000991F660F771F881F991F620F731F841F90
:10486000951F660F771F881F991F08952532310500
:1048700020F4223010F00C944124FA011082CA0175
:104880000895BB27FA01A62F6217710581059105CE
:10489000330B30FB66F0AA27660F771F881F991F1E
:1048A000AA1FA21710F0A21B63953850A9F7A05DAC
:1048B000AA3308F0A95DA19336F7B111B193108224
:1048C000CA010C94A0244532510520F4423010F066
:1048D0000C946E24FB011082CB010895BB27FB01D1
:1048E0005527AA27880F991FAA1FA41710F0A41BE9
:1048F00083955051B9F7A05DAA3308F0A95DA19343
:10490000009779F7B111B1931192CB010C94A024C7
:10491000F999FECF92BD81BDF89A992780B5089587
:10492000262FF999FECF92BD81BD20BD0FB6F89418
:10493000FA9AF99A0FBE0196089599278827089543
:10494000DC01FC01672F71917723E1F7329704C0F6
:104950007C916D9370836291AE17BF07C8F3089581
:104960002F923F924F925F926F927F928F929F927F
:10497000AF92BF92CF92DF92EF92FF920F931F936D
:10498000CF93DF93CDB7DEB7CA1BDB0B0FB6F8941E
:10499000DEBF0FBECDBF09942A88398848885F845E
:1049A0006E847D848C849B84AA84B984C884DF80CF
:1049B000EE80FD800C811B81AA81B981CE0FD11DB3
:1049C0000FB6F894DEBF0FBECDBFED010895F89489
:0249D000FFCF17
:1049D200010000030320000000803FCDCCCC3D004D
:1049E20000803FF80200000000010000000001FF0B
:1049F200FFFFFFFFFFFF703D002C20693D002C20D0
:104A0200643D0053746F7265643A202020004D6546
:104A12006173757265643A2000636F726F2E637002
:104A22007000206C696E6520004173736572746951
:104A32006F6E3A202200436F726F7574696E653A29
:104A42003A63757272656E746C795F72756E6E69B7
:104A52006E6720213D2026636F726F20262620225A
:104A620043616E6E6F742063616C6C207969656C52
:104A7200645F666173745F746F2829206F6E20749F
:104A820068652063757272656E746C792D72756ECD
:104A92006E696E6720636F726F7574696E652E2220
:104AA2000022206661696C65642E006932635F6C66
:104AB200696E655F666F6C6C6F7765722E6370707E
:104AC2000066616C73652026262022556E72656130
:104AD200636861626C652E220000000000FF0252D2
:104AE20005A702D202B902F4026E616E00696E6617
:0E4AF200006F766600000000000A13520500F7
:00000001FF
