:100000000C9462000C94291A0C94641A0C948A00C3
:100010000C948A000C948A000C948A000C948A0038
:100020000C948A000C948A000C948A000C948A0028
:100030000C948A000C948A000C948A000C948A0018
:100040000C948C000C948A000C94C1020C94FF0256
:100050000C948A000C948A000C948A000C948A00F8
:100060000C948A000C948A00000000070002010032
:100070000003040600000000000000000102040864
:100080001020408001020408102001020408102002
:10009000040404040404040402020202020203032E
:1000A00003030303000000002300260029000000D2
:1000B0000000250028002B0000000000240027007D
:1000C0002A009F1A11241FBECFEFD8E0DEBFCDBF9C
:1000D00012E0A0E0B1E0EEEDF2E402C005900D9276
:1000E000AC37B107D9F723E0ACE7B2E001C01D920D
:1000F000A234B207E1F710E0C2E6D0E004C02197D5
:10010000FE010E94531BC136D107C9F70E946D162C
:100110000C946D210C9400001F921FB61F921124A5
:100120002F933F938F939F93AF93BF9380917C02C4
:1001300090917D02A0917E02B0917F023091840265
:1001400023E0230F2D3750F50196A11DB11D2093FB
:10015000840280937C0290937D02A0937E02B093F0
:100160007F028091800290918102A0918202B091E1
:1001700083020196A11DB11D80938002909381029C
:10018000A0938202B0938302BF91AF919F918F9110
:100190003F912F911F901FBE1F90189526E8230FA7
:1001A0000296A11DB11DD3CF2FB7F89460917C02A8
:1001B00070917D0280917E0290917F022FBF089501
:1001C0003FB7F8948091800290918102A0918202C1
:1001D000B091830226B5A89B05C02F3F19F0019668
:1001E000A11DB11D3FBFBA2FA92F982F8827BC0191
:1001F000CD01620F711D811D911D42E0660F771FB9
:10020000881F991F4A95D1F70895CF92DF92EF92F8
:10021000FF92CF93DF936B017C010E94E000EB0122
:10022000C114D104E104F10439F4DF91CF91FF90BE
:10023000EF90DF90CF9008950E94E0006C1B7D0B43
:10024000683E734068F381E0C81AD108E108F108FC
:10025000C851DC4FE5CF019739F0880F991F880FFF
:10026000991F02970197F1F70895789484B58260F9
:1002700084BD84B5816084BD85B5826085BD85B54A
:10028000816085BDEEE6F0E0808181608083E1E8F9
:10029000F0E0108280818260808380818160808331
:1002A000E0E8F0E0808181608083E1EBF0E0808134
:1002B00084608083E0EBF0E0808181608083EAE706
:1002C000F0E080818460808380818260808380818F
:1002D000816080838081806880831092C10008954E
:1002E000833081F028F4813099F08230A9F00895AC
:1002F0008630A9F08730C9F08430B1F48091800055
:100300008F7D03C0809180008F7780938000089557
:1003100084B58F7784BD089584B58F7DFBCF8091A0
:10032000B0008F778093B00008958091B0008F7DEA
:10033000F9CFCF93DF9390E0FC01E458FF4F249175
:1003400080579F4FFC0184918823C9F090E0880F6B
:10035000991FFC01E854FF4FA591B491FC01E255AF
:10036000FF4FC591D49161110DC09FB7F8948C9146
:10037000209582238C938881282328839FBFDF9137
:10038000CF910895623051F49FB7F8943C91822F39
:10039000809583238C93E8812E2BEFCF8FB7F89431
:1003A000EC912E2B2C938FBFEACF1F93CF93DF932B
:1003B000162F282F30E0F901E859FF4F8491F901F9
:1003C000E458FF4FD491F901E057FF4FC491CC237B
:1003D000A1F081110E947001EC2FF0E0EE0FFF1FE1
:1003E000E255FF4FA591B4918FB7F894EC9111119C
:1003F00008C0D095DE23DC938FBFDF91CF911F9192
:100400000895DE2BF8CFCF93DF93282F30E0F9014A
:10041000E859FF4F8491F901E458FF4FD491F90155
:10042000E057FF4FC491CC23A1F081110E947001CD
:10043000EC2FF0E0EE0FFF1FEC55FF4FA591B491AC
:10044000EC91ED2381E090E009F480E0DF91CF9121
:10045000089580E090E0FACFFC0124853585F9010C
:10046000E05CFF4F808191812E5B3F4FF90120813D
:100470003181821B930B8F7399270895FC0184852A
:100480009585FC01E05CFF4F4081518132962081CF
:1004900031814217530741F020813181820F931F30
:1004A000FC01808190E008958FEF9FEF0895DC01BB
:1004B0001C968D919C91FC01E05CFF4F4081518125
:1004C0003296208131814217530781F0208131819A
:1004D000820F931FDC018C91208131812F5F3F4F70
:1004E0002F7333273183208390E008958FEF9FEFA0
:1004F0000895FC0191A1992329F0A489B5898C91D3
:1005000086FFF9CF11A20895CF93DF93FC012685D2
:100510003785D901A05CBF4F8D919C9111970196B1
:100520008F739927E901CE5BDF4F488159814817C6
:100530005907D9F34D915C91240F351FD9016C9364
:10054000A685B785A05CBF4F11969C938E93A68914
:10055000B7898C91978D21E030E001C0220F9A95E8
:10056000EAF7822B8C9381E081A30488F589E02D42
:1005700080818064808381E090E0DF91CF91089555
:1005800008952F932FB72F934F935F938F939F933C
:10059000EF93FF938091C00082FD25C02091C6009B
:1005A00080912B0390912C0340912D0350912E03A9
:1005B00001968F7399274817590759F0E0912B033B
:1005C000F0912C03E551FD4F208390932C038093F1
:1005D0002B03FF91EF919F918F915F914F912F91FD
:1005E0002FBF2F9118958091C600F3CF85E892E038
:1005F0000E942C02892B11F00C94C00208952F93B5
:100600002FB72F933F938F939F93EF93FF93209157
:10061000E7023091E8028091E9029091EA022817FE
:10062000390771F48091C1008F7D8093C100FF91E3
:10063000EF919F918F913F912F912FBF2F911895FF
:10064000E091E902F091EA02E955FD4F20818091A5
:10065000E9029091EA0201968F7399279093EA023A
:100660008093E9022093C600E2CF8F929F92AF92CF
:10067000BF92CF92DF92EF92FF920F931F93CF938F
:10068000DF93CDB7DEB7FC011382128288EE93E0D0
:10069000A0E0B0E084839583A683B7838BE592E0E6
:1006A000918380837587648757874687318B208B3A
:1006B000138B028BF58AE48AD78AC68AB18EA08E04
:1006C000938E828E8F85848F8889858F8989868F86
:1006D0008A89878F8B8980A3DF91CF911F910F919A
:1006E000FF90EF90DF90CF90BF90AF909F908F9052
:1006F0000895CF92DF92EF92FF92CF93DF93EC01B8
:100700006A017B01C11481EED806E104F10409F00D
:100710004FC0EC89FD89108260E874E88EE190E0BA
:10072000A70196010E94171B215031094109510967
:100730005695479537952795E889F9893083EA8951
:10074000FB89208319A2EE89FF8920813C8D81E0FD
:1007500090E0AC0101C0440F3A95EAF7242B2083C6
:10076000EE89FF8920813D8DAC0101C0440F3A958F
:10077000EAF7242B2083EE89FF8920813E8DAC018E
:1007800001C0440F3A95EAF7242B2083EE89FF89B4
:1007900020813F8D01C0880F3A95EAF7809582232A
:1007A0008083DF91CF91FF90EF90DF90CF900895FD
:1007B000EC89FD8928A181E090E001C0880F2A958D
:1007C000EAF7808360E079E08DE390E0A70196018D
:1007D0000E94171B2150310941095109569547952F
:1007E00037952795211580E1380708F092CFA4CFDF
:1007F000CF92DF92EF92FF921F93CF93DF93EC01A2
:100800006A017B01122FC11481EED806E104F104C4
:1008100009F052C0EC89FD89108260E874E88EE12D
:1008200090E0A70196010E94171B21503109410950
:1008300051095695479537952795E889F989308369
:10084000EA89FB892083E88DF98D1083EE89FF8981
:1008500020813C8D81E090E0AC0101C0440F3A95CD
:10086000EAF7242B2083EE89FF8920813D8DAC019E
:1008700001C0440F3A95EAF7242B2083EE89FF89C3
:1008800020813E8DAC0101C0440F3A95EAF7242B3C
:100890002083EE89FF8920813F8D01C0880F3A9522
:1008A000EAF7809582238083DF91CF911F91FF909B
:1008B000EF90DF90CF900895EC89FD8928A181E029
:1008C00090E001C0880F2A95EAF7808360E079E024
:1008D0008DE390E0A70196010E94171B215031097A
:1008E000410951095695479537952795211580E17E
:1008F000380708F08FCFA1CFCF93DF93FC01868517
:100900009785DC01A05CBF4F8E5B9F4F4D915C9142
:100910001197EC012881398142175307B9F7A6894D
:10092000B7894C91248D81E090E0BC0102C0660F34
:10093000771F2A95E2F79B01209524232C93A68903
:10094000B7894C91258DEC0102C0CC0FDD1F2A9593
:10095000E2F79E01209524232C93A689B7894C9118
:10096000268DBC0102C0660F771F2A95E2F79B0116
:10097000209524232C93A689B7892C91378D01C00B
:10098000880F3A95EAF7809582238C938485958524
:10099000FC01EE5BFF4F20813181805C9F4FEC01B9
:1009A00039832883DF91CF91089581E00895CF9214
:1009B000DF92EF92FF920F931F93CF93DF936C011F
:1009C0007B01E40EF51E10E000E06E157F0571F06E
:1009D000EB01D601ED91FC910190F081E02D699140
:1009E000C6010995080F191FBE01EFCFC801DF919D
:1009F000CF911F910F91FF90EF90DF90CF900895CE
:100A0000EF92FF920F931F93CF93DF937C018B01A3
:100A1000D0E0C0E0F80164910F5F1F4F662359F0EA
:100A2000D701ED91FC910190F081E02DC70109956E
:100A3000C80FD91FEFCFCE01DF91CF911F910F913A
:100A4000FF90EF900895AF92BF92CF92DF92EF9216
:100A5000FF920F931F93CF93DF937C016B01D0E044
:100A6000C0E010E000E0D60114968D919C91C8176B
:100A7000D90788F4D701ED91FC91A080B180BE0127
:100A8000C6010E94780F682FC701F5010995080F6C
:100A9000191F2196E8CFC801DF91CF911F910F91C7
:100AA000FF90EF90DF90CF90BF90AF9008950C949F
:100AB000DA1ADC01ED91FC910190F081E02D0994AE
:100AC000DB01ED91FC9111970190F081E02DBC01CB
:100AD000CD0109940F931F93CF93DF93EC016DE049
:100AE0000E9459058C016AE0CE010E945905800FD1
:100AF000911FDF91CF911F910F9108950F931F9335
:100B0000CF93DF93EC010E9400058C01CE010E947F
:100B10006A05800F911FDF91CF911F910F9108956A
:100B20000F931F93CF93DF93EC010E9423058C0159
:100B3000CE010E946A05800F911FDF91CF911F9116
:100B40000F9108950F931F93CF93DF93EC010E94B1
:100B5000DA1A8C01CE010E946A05800F911FDF9185
:100B6000CF911F910F9108950F931F93CF93DF9310
:100B7000EC010E9459058C01CE010E946A05800F8C
:100B8000911FDF91CF911F910F9108950F931F93A4
:100B9000CF93DF93EC010E9460058C01CE010E948F
:100BA0006A05800F911FDF91CF911F910F910895DA
:100BB0004F925F926F927F929F92AF92BF92CF922D
:100BC000DF92EF92FF920F931F93CF93DF93CDB7F6
:100BD000DEB7A1970FB6F894DEBF0FBECDBF5C01A4
:100BE0006A017B01922E19A281E0821710F08AE03F
:100BF000982E8E010F5D1F4F492C512C712C612CAA
:100C0000C701B601A30192010E94171B8C2D929E71
:100C1000801911248A3034F5805DF80182938F01A8
:100C2000C414D504E604F704D0F4BF01C5010E9442
:100C3000DA1AA1960FB6F894DEBF0FBECDBFDF91D2
:100C4000CF911F910F91FF90EF90DF90CF90BF90C9
:100C5000AF909F907F906F905F904F900895690143
:100C60007A01CECF895CD9CFCF92DF92EF92FF92FB
:100C70000F931F93CF93DF93EC016A017B01211542
:100C8000310579F4E881F9810190F081E02D642F3C
:100C9000DF91CF911F910F91FF90EF90DF90CF9058
:100CA00009942A303105E9F42AE0F7FE1AC06DE212
:100CB0000E9459058C0144275527BA014C195D093A
:100CC0006E097F092AE0CE010E94D805800F911F8E
:100CD000DF91CF911F910F91FF90EF90DF90CF9018
:100CE0000895B701A601CE01DF91CF911F910F9119
:100CF000FF90EF90DF90CF900C94D8059A01AB0154
:100D0000770F660B770B0C9434060F931F93CF93DA
:100D1000DF93EC010E947E068C01CE010E946A05E1
:100D2000800F911FDF91CF911F910F9108950F9325
:100D30001F93CF93DF93EC010E9434068C01CE0108
:100D40000E946A05800F911FDF91CF911F910F9133
:100D500008952115310541F4DC01ED91FC910190DC
:100D6000F081E02D642F09940C94D8059A01462F48
:100D700050E070E060E00C94A9060F931F93CF93AE
:100D8000DF93EC010E94B6068C01CE010E946A0539
:100D9000800F911FDF91CF911F910F9108959A01BC
:100DA000AB0170E060E00C94A9060F931F93CF9302
:100DB000DF93EC010E94CF068C01CE010E946A05F0
:100DC000800F911FDF91CF911F910F9108950F9385
:100DD0001F93CF93DF93EC010E94A9068C01CE01F3
:100DE0000E946A05800F911FDF91CF911F910F9193
:100DF00008954F925F926F927F928F929F92AF92DF
:100E0000BF92CF92DF92EF92FF921F93CF93DF9327
:100E1000EC016A017B01122FAB019601CB01B601F7
:100E20000E94971D67E672E0811126C046015701B6
:100E3000E894B7F82FEF3FEF4FE75FE7C501B40144
:100E40000E94971D81110CC02FEF3FEF4FE75FE726
:100E5000C501B4010E94C61B6BE672E0181664F06F
:100E60002FEF3FEF4FE75FE4C701B6010E94251D5A
:100E70001816A4F46FE672E0CE01DF91CF911F91B6
:100E8000FF90EF90DF90CF90BF90AF909F908F90AA
:100E90007F906F905F904F900C94DA1A2FEF3FEF96
:100EA0004FE75FECC701B6010E94C61B87FDE2CF8A
:100EB00020E030E0A901C701B6010E94C61BB12C99
:100EC000A12C87FF09C06DE2CE010E9459055C018B
:100ED000F7FAF094F7F8F094912C60E070E080E07D
:100EE0009FE3191541F020E030E040E251E40E9418
:100EF000CB1B9394F6CFA70196010E945A1B2B019E
:100F00003C010E94441C6B017C010E94731C9B01EC
:100F1000AC01C301B2010E94591B2B013C012AE024
:100F2000B701A601CE010E94D8057C01EA0CFB1C8A
:100F3000112339F061E571E0CE010E94DA1AE80E62
:100F4000F91E115018F120E030E040E251E4C301F5
:100F5000B2010E942A1D2B013C010E943D1C4B0145
:100F60004AE050E0CE010E947E06E80EF91EB40170
:100F7000990C880B990B0E94751C9B01AC01C30155
:100F8000B2010E94591B2B013C01DBCFC701DF914D
:100F9000CF911F91FF90EF90DF90CF90BF90AF90D7
:100FA0009F908F907F906F905F904F9008950C94DA
:100FB000F9060F931F93CF93DF93EC010E94F9067C
:100FC0008C01CE010E946A05800F911FDF91CF91A5
:100FD0001F910F9108950F931F93CF93DF93EC010F
:100FE0000E94D400688779878A879B87E881F98186
:100FF0000680F781E02DCE01099597FF15C00E946C
:10100000D400088519852A853B85601B710B820BEE
:10101000930B0C811D812E813F8160177107820720
:10102000930720F38FEF9FEFDF91CF911F910F91E7
:1010300008950F931F93CF93DF93EC010E94D40088
:10104000688779878A879B87E881F9810084F185A1
:10105000E02DCE01099597FF15C00E94D4000885A8
:1010600019852A853B85601B710B820B930B0C81C4
:101070001D812E813F81601771078207930720F33E
:101080008FEF9FEFDF91CF911F910F910895CF9335
:10109000DF93EC01CE010E94190897FD11C08D323B
:1010A000910571F09C01205331092A30310540F03F
:1010B000E881F9810680F781E02DCE010995EACF1C
:1010C000DF91CF910895FC01448355836683778334
:1010D00008956F927F928F929F92AF92BF92CF921C
:1010E000DF92EF92FF920F931F93CF93DF935C01F8
:1010F0006B013A014901FB018081811145C081E00A
:10110000DF91CF911F910F91FF90EF90DF90CF90E3
:10111000BF90AF909F908F907F906F900895D0E098
:10112000C0E0C5010E94EB07181619065CF5F60130
:10113000EE0DFF1D2081022E000C330B821793074A
:1011400051F0F6012081022E000C330BF12CE12C22
:101150008217930731F4FFEFEF1AFF0AE614F70442
:1011600070F601151105D9F2F401EC0FFD1F208175
:10117000022E000C330B8217930789F62196C017B5
:10118000D10778F280E0BCCFD0E0C0E0F12CE12CB8
:10119000C8CF0F931F9310E000E030E020E00E94E2
:1011A00069081F910F9108950F931F939A01FA01F7
:1011B00001900020E9F731978F01041B150BFB010B
:1011C00001900020E9F73197AF01461B570B0E94B1
:1011D00069081F910F91089550E040E00C94D408E5
:1011E000BF92CF92DF92EF92FF920F931F93CF9314
:1011F000DF938C01C62F0E944708FC01C12CD12C23
:10120000760197FD3EC0B12C0C2E000CDD0BCE17E5
:10121000DF07D9F0ED32F10509F43FC0CF01C097E7
:101220000A9798F4AAE0B0E0A70196010E94481B33
:101230006F01FF0FEE08FF08C60ED71EE81EF91E4D
:1012400080E3C81AD108E108F108D801ED91FC91BA
:101250000680F781E02DC8010995C8010E94190890
:10126000FC01C0970A9798F2CE17DF0781F2BB20E6
:1012700041F0F094E094D094C094C11CD11CE11CC6
:10128000F11CC701B601DF91CF911F910F91FF9023
:10129000EF90DF90CF90BF900895BB24B394D5CF4B
:1012A00061E00C94F0087F928F929F92AF92BF9270
:1012B000CF92DF92EF92FF920F931F93CF93DF9322
:1012C000EC01762E0E944708E82F60E070E0CB0129
:1012D000E7FD5EC0812C912C80E8A82E8FE3B82E0C
:1012E000C12CD12C760110E000E0E71551F1ED3270
:1012F00009F45CC0EE3209F45BC080ED8E0F8A30D9
:1013000000F5AAE0B0E0A70196010E94481BCE2E8E
:10131000EE0FDD08EE08FF08C60ED71EE81EF91E08
:1013200080E3C81AD108E108F108112351F02DEC2F
:101330003CEC4CEC5DE3C501B4010E942A1D4B015D
:101340005C01E881F9810680F781E02DCE010995E5
:10135000CE010E941908E82F90ED980F9A3028F2DC
:101360008E3219F2781609F2002341F0F094E094DD
:10137000D094C094C11CD11CE11CF11CC701B60162
:101380000E94751C112321F0A50194010E942A1DC1
:10139000DF91CF911F910F91FF90EF90DF90CF9051
:1013A000BF90AF909F908F907F90089501E0C9CF3C
:1013B00011E0C7CF61E00C945309CF92DF92EF9216
:1013C000FF920F931F93CF93DF937C018B016A01F0
:1013D000D0E0C0E0CC15DD0551F0C7010E94EB075D
:1013E00097FD05C0F801819321968F01F3CFCE01BF
:1013F000DF91CF911F910F91FF90EF90DF90CF90F1
:101400000895AF92BF92CF92DF92EF92FF920F9327
:101410001F93CF93DF936C015A017901D0E0C0E0B4
:10142000062F660F110B232B69F4CE01DF91CF91AC
:101430001F910F91FF90EF90DF90CF90BF90AF90F2
:1014400008955F01C6010E94EB0797FDEECF0817D4
:10145000190759F3F50181932196EC16FD0689F7DA
:10146000E4CF0F931F93CF93DF93EC018B016DE5D6
:1014700071E00E94E20AC8010E94EB0797FD05C0D7
:10148000682FCE010E94D00CF6CFCE01DF91CF9114
:101490001F910F910895EF92FF920F931F93CF9397
:1014A000DF93EC017B01042F6DE571E00E94E20AFD
:1014B000C7010E94EB07002E000C110B97FD0BC01B
:1014C0000817190741F0682FCE010E94D00CC70100
:1014D0000E94EB07F3CFCE01DF91CF911F910F91C7
:1014E000FF90EF900895FC01808191810C94311E52
:1014F000CF93DF93EC0188819981009711F00E94CE
:10150000311E198218821D821C821B821A82DF9171
:10151000CF9108950F931F93CF93DF93EC018B012D
:101520006F5F7F4F888199810E94C91E009751F09B
:10153000998388831B830A8381E0DF91CF911F9178
:101540000F91089580E0F9CFCF93DF93EC0188816C
:101550009981892B49F08A819B818617970720F012
:1015600081E0DF91CF910895CE010E948A0A8823FD
:10157000C1F38C819D81892B99F7E881F9811082D3
:10158000EFCFEF92FF920F931F93CF93DF93EC0176
:101590007B018A01BA010E94A40A81110BC0CE010D
:1015A0000E94780ACE01DF91CF911F910F91FF9099
:1015B000EF9008951D830C83B701888199810E9463
:1015C0004320F0CFFC011182108213821282158217
:1015D000148216826115710551F0FB010190002003
:1015E000E9F73197AF01461B570B0C94C10A0895D8
:1015F0000F931F93CF93DF938C01EB01FC0180814C
:1016000091810097C9F0428153812C813D8142171D
:10161000530780F0688179810E9443208C819D81ED
:10162000F801958384831D821C82DF91CF911F91E5
:101630000F9108950E94311E88819981F80191834C
:1016400080838A819B81938382838C819D81958312
:101650008483198218821B821A82E5CFFC011182D1
:101660001082138212821582148216820C94F80A58
:10167000FC0111821082138212821582148216825A
:101680000C94F80ACF93DF93EC01FB0186179707C0
:1016900049F0608171816115710541F04481558186
:1016A0000E94C10ACE01DF91CF9108950E94780A6D
:1016B000F9CFFC01118210821382128215821482EA
:1016C00016820C94420BCF93DF93EC018617970799
:1016D00011F00E94F80ACE01DF91CF910895CF93C7
:1016E000DF93EC016817790711F00E94F80ACE0128
:1016F000DF91CF910895CF93DF93EC0161157105D0
:1017000071F0FB0101900020E9F73197AF01461B12
:10171000570B0E94C10ACE01DF91CF9108950E941C
:10172000780AF9CFCF93DF9300D0CDB7DEB7FC01B5
:1017300011821082138212821582148216826983AA
:101740001A82BE016F5F7F4F0E947B0B0F900F903C
:10175000DF91CF9108950F931F93CF93DF93CDB770
:10176000DEB729970FB6F894DEBF0FBECDBF8C0150
:10177000862FF80111821082138212821582148240
:10178000168250E0BE016F5F7F4F90E00E94FE2006
:10179000BE016F5F7F4FC8010E947B0B29960FB679
:1017A000F894DEBF0FBECDBFDF91CF911F910F9197
:1017B00008950F931F93CF93DF93CDB7DEB7629752
:1017C0000FB6F894DEBF0FBECDBF8C01CB01F80180
:1017D000118210821382128215821482168250E0C6
:1017E000BE016F5F7F4F0E948C20BE016F5F7F4FF5
:1017F000C8010E947B0B62960FB6F894DEBF0FBE45
:10180000CDBFDF91CF911F910F9108950F931F933B
:10181000CF93DF93CDB7DEB761970FB6F894DEBFF5
:101820000FBECDBF8C01CB01F80111821082138253
:10183000128215821482168250E0BE016F5F7F4FC4
:101840000E94FE20BE016F5F7F4FC8010E947B0B8C
:1018500061960FB6F894DEBF0FBECDBFDF91CF917A
:101860001F910F9108950F931F93CF93DF93CDB7DF
:10187000DEB7A2970FB6F894DEBF0FBECDBF8C01C6
:10188000CB01BA01F80111821082138212821582F3
:101890001482168230E0AE014F5F5F4F0E94A2209B
:1018A000BE016F5F7F4FC8010E947B0BA2960FB6EF
:1018B000F894DEBF0FBECDBFDF91CF911F910F9186
:1018C00008950F931F93CF93DF93CDB7DEB7A19702
:1018D0000FB6F894DEBF0FBECDBF8C01CB01BA01AD
:1018E000F8011182108213821282158214821682EC
:1018F00030E0AE014F5F5F4F0E94D120BE016F5FAD
:101900007F4FC8010E947B0BA1960FB6F894DEBFF3
:101910000FBECDBFDF91CF911F910F910895EF9230
:10192000FF920F931F93CF93DF93EC017B01672B03
:1019300041F480E0DF91CF911F910F91FF90EF90E4
:10194000089541155105A1F00C811D81040F151F4B
:10195000B8010E94A40A882361F3288139818C810F
:101960009D81B701820F931F0E9443201D830C832A
:1019700081E0E0CFFB0144815581608171810C944D
:101980008F0C6115710551F0FB0101900020E9F702
:101990003197AF01461B570B0C948F0C80E00895D4
:1019A000CF93DF9300D0CDB7DEB769831A8241E0D1
:1019B00050E0BE016F5F7F4F0E948F0C0F900F9021
:1019C000DF91CF910895EF92FF920F931F93CF93E2
:1019D000DF9300D000D0CDB7DEB77C01862F4AE080
:1019E0008E010F5F1F4FB80190E00E949720F80111
:1019F00001900020E9F73197AF01401B510BB8016E
:101A0000C7010E948F0C0F900F900F900F90DF91E5
:101A1000CF911F910F91FF90EF900895EF92FF9259
:101A20000F931F93CF93DF9300D000D000D00F927D
:101A3000CDB7DEB77C01CB014AE08E010F5F1F4FAF
:101A4000B8010E949720F80101900020E9F7319732
:101A5000AF01401B510BB801C7010E948F0C2796A4
:101A60000FB6F894DEBF0FBECDBFDF91CF911F91AF
:101A70000F91FF90EF900895EF92FF920F931F93B5
:101A8000CF93DF9300D000D000D0CDB7DEB77C017C
:101A9000CB014AE08E010F5F1F4FB8010E94092160
:101AA000F80101900020E9F73197AF01401B510B7D
:101AB000B801C7010E948F0C26960FB6F894DEBFBE
:101AC0000FBECDBFDF91CF911F910F91FF90EF908F
:101AD0000895EF92FF920F931F93CF93DF93CDB7AB
:101AE000DEB72C970FB6F894DEBF0FBECDBF7C01DA
:101AF000CB01BA012AE08E010F5F1F4FA8010E949F
:101B0000AD20F80101900020E9F73197AF01401BAB
:101B1000510BB801C7010E948F0C2C960FB6F89498
:101B2000DEBF0FBECDBFDF91CF911F910F91FF9010
:101B3000EF900895EF92FF920F931F93CF93DF934F
:101B4000CDB7DEB72B970FB6F894DEBF0FBECDBF73
:101B50007C01CB01BA012AE08E010F5F1F4FA80163
:101B60000E94DC20F80101900020E9F73197AF01D5
:101B7000401B510BB801C7010E948F0C2B960FB66A
:101B8000F894DEBF0FBECDBFDF91CF911F910F91B3
:101B9000FF90EF900895CF93DF93EC01FB01448118
:101BA0005581608171810E948F0C811103C0CE012B
:101BB0000E94780ACE01DF91CF910895CF93DF93F1
:101BC000EC016115710539F4CE010E94780ACE014D
:101BD000DF91CF910895FB0101900020E9F7319743
:101BE000AF01461B570B0E948F0C882369F3EFCF80
:101BF000CF93DF93EC010E94D00C811103C0CE0182
:101C00000E94780ACE01DF91CF910895CF93DF93A0
:101C1000EC010E94E30C811103C0CE010E94780AFE
:101C2000CE01DF91CF910895CF93DF93EC010E9415
:101C30000E0D811103C0CE010E94780ACE01DF9102
:101C4000CF910895CF93DF93EC010E943C0D811159
:101C500003C0CE010E94780ACE01DF91CF91089592
:101C6000CF93DF93EC010E94690D811103C0CE0177
:101C70000E94780ACE01DF91CF910895CF93DF9330
:101C8000EC010E949A0D811103C0CE010E94780AD6
:101C9000CE01DF91CF910895CF93DF93EC01A8811E
:101CA000B981EB01E881F9811097F1F03097B1F437
:101CB000EC018C819D81892BC9F08C9190E00BC047
:101CC000DB0114968D919C91892B81F0808190E0AD
:101CD000919581959109DF91CF910895BF01CD0133
:101CE000DF91CF910C943A20309751F790E080E04B
:101CF000F2CFFC0144815581FB01248135814217DB
:101D0000530729F40E944C0E21E0892B09F020E0B2
:101D1000822F0895FC0124813581232B31F421E0A9
:101D2000FB01672B49F4822F089580819181611511
:101D3000710539F421E0FC0180818823A1F320E0C2
:101D4000F2CF0E943A2021E0892B69F3F8CF0E945C
:101D50004C0E892F881F8827881F08950E944C0EDB
:101D600021E0181619060CF020E0822F08950E9439
:101D70004C0E21E0181619060CF420E0822F08956D
:101D80000E944C0E892F8095881F8827881F0895F0
:101D9000CF92DF92EF92FF920F931F93CF93DF9337
:101DA000FB018617970789F1DC0114962D913C9170
:101DB00015974481558124173507D9F4232B29F130
:101DC00000811181ED90FC90F70181917F018823C2
:101DD000E1F0082E000C990B0E9404206C01E80130
:101DE0008991082E000C990B0E940420C816D90670
:101DF00051F080E0DF91CF911F910F91FF90EF9014
:101E0000DF90CF9008958E01DFCF81E0F3CFFA010C
:101E1000DB0114964D915C91DC0114962D913C915F
:101E20001597241B350B2E173F0788F08D919C9139
:101E3000009769F0DB016D917C916115710539F0B6
:101E40008E0F9F1F0E944A2021E0892B09F020E07D
:101E5000822F0895FC0144815581FB012481358145
:101E60004217530720F050E040E00C94070F80E049
:101E70000895FC0124813581FB014481558124179B
:101E80003507A0F0FC0180819181009779F0FB017A
:101E9000608171816115710549F0241B350B820F3A
:101EA000931F0E943A2021E0892B09F020E0822F25
:101EB0000895FC01248135816217730730F4808115
:101EC0009181860F971FFC0140830895FC012481B6
:101ED00035816217730720F480819181009729F47E
:101EE00010922F038FE293E00895860F971F0895B5
:101EF000FC01248135816217730748F48081918148
:101F0000009729F0860F971FFC018081089580E0DB
:101F100008950C94780F0F931F93CF93DF938B0149
:101F20004115510559F06115710541F0FC01C4815D
:101F3000D5812C173D0738F0FB011082DF91CF913E
:101F40001F910F91089541505109C21BD30B4C179B
:101F50005D0708F4EA01FC0160817181620F731F63
:101F6000AE01C8010E945820C00FD11F1882E6CFD1
:101F7000CF93DF93FC01248135814217530788F406
:101F8000C081D181062E000C770BCE01840F951FE6
:101F90000E942F20009729F08C1B9D0BDF91CF9181
:101FA00008958FEF9FEFFACF50E040E00C94B80F08
:101FB000CF93DF93FC01248135814217530788F4C6
:101FC000C081D181FB0160817181CE01840F951F99
:101FD0000E947220009729F08C1B9D0BDF91CF91FE
:101FE00008958FEF9FEFFACF50E040E00C94D80FA8
:101FF000DF92EF92FF920F931F93CF93DF938C01A9
:10200000DC0114968D919C9115974817590750F053
:102010008FEF9FEFDF91CF911F910F91FF90EF9086
:10202000DF900895EA012196ED91FC911197EC0F54
:10203000FD1FD0801082ED90FC90062E000C770BD7
:10204000C7010E946720CE0DDF1DD882009701F3E3
:10205000F80120813181821B930BDCCFFC0144818C
:102060005581415051090C94F80FAF92BF92CF9215
:10207000DF92EF92FF920F931F93CF93DF936B0149
:10208000EA01FB01448155814115510561F1FC01D3
:10209000248135812115310531F12417350718F1D7
:1020A000C217D30710F0E9012197FC0100811181CB
:1020B000C801AA24AA94BB24BA947801EC0EFD1E90
:1020C000E816F906A0F0F601608171810E94722085
:1020D000009769F09C01201B310BC217D30708F051
:1020E00059010196EDCFAA24AA94BB24BA94C50144
:1020F000DF91CF911F910F91FF90EF90DF90CF90E4
:10210000BF90AF900895FC0144815581FB0124816B
:102110003581421B530B0C943510AF92BF92CF9276
:10212000DF92EF92FF920F931F93CF93DF935C01A7
:102130006B017A0189012417350720F48F2D79016D
:10214000042F182F6DE571E0C5010E94E20AD60147
:102150001496CD91DC91CE15DF05C8F00C171D0744
:1021600008F4E801D601ED91FC911197EC0FFD1FE9
:10217000108110826D917C916E0D7F1DC5010E94B2
:102180007B0BF60180819181C80FD91F1883C5018F
:10219000DF91CF911F910F91FF90EF90DF90CF9043
:1021A000BF90AF900895CF93DF93EC01FB012481A2
:1021B00035810E948D10CE01DF91CF910895DC0111
:1021C000ED91FC91309749F08191882331F086138D
:1021D000FBCFDF0111974C93F7CF08952F923F92D9
:1021E0004F925F926F927F928F929F92AF92BF9227
:1021F000CF92DF92EF92FF920F931F93CF93DF93D3
:102200008C015B017A01FC0144805580411451042A
:1022100009F4CCC0FB01648075806114710409F479
:10222000C5C0FA01C480D580C618D708FC01C0819A
:10223000D181C114D104B9F4F50160817181CE015D
:102240000E947220EC01009709F4B0C0F701608190
:102250007181448155810E941420F7018481958108
:10226000C80FD91FE9CFD7FC11C0FB0120803180F6
:102270004201B101CE010E947220009709F44AC0C8
:10228000EC01C60DD71D8C0C9D1CF3CF3E01F50152
:1022900060817181CE010E9472202C01009721F192
:1022A0004C018C1A9D0AA401BE01C3010E94142096
:1022B000680C791CF7016081718144815581C301EB
:1022C0000E941420F70184809580680C791CF50128
:1022D000C481D581C40DD51DF801848195818C0DF3
:1022E0009D1D95838483D3CFBE01C301DF91CF9120
:1022F0001F910F91FF90EF90DF90CF90BF90AF9024
:102300009F908F907F906F905F904F903F902F9015
:102310000C9443204814590409F448C0F801828100
:10232000938188159905E0F1F80144815581415068
:10233000510957FD3BC0B501C8010E943510EC01A1
:1023400097FD34C0F50124813581280F391FF8012C
:1023500080819181820F931F44815581421B530BD1
:10236000BC018C0D9D1D0E941D20F801848195816A
:102370008C0D9D1D9583848320813181820F931F55
:10238000FC011082F80180819181F70160817181E7
:10239000448155818C0F9D1F0E941420AE01C7CF30
:1023A000B401C8010E948A0A8111BECFDF91CF918A
:1023B0001F910F91FF90EF90DF90CF90BF90AF9063
:1023C0009F908F907F906F905F904F903F902F9055
:1023D0000895CF93DF93FC01C081D181209761F0F4
:1023E0008991882349F0082E000C990B0E94042043
:1023F000FE0131978083F4CFDF91CF910895CF9381
:10240000DF93FC01C081D181209761F089918823FD
:1024100049F0082E000C990B0E940C20FE01319708
:102420008083F4CFDF91CF910895AF92BF92CF9286
:10243000DF92EF92FF920F931F93CF93DF938C0164
:10244000DC01ED90FC901197E114F104E1F1149698
:10245000CD91DC912097B9F157016501F50181918A
:102460005F01082E000C990B0E94FB1F892BA9F716
:102470002197CE0DDF1D8881082E000C990B0E943C
:10248000FB1F892B29F0CC15DD0510F02197F3CF28
:10249000AE014F5F5F4F4C195D09D80115965C93F3
:1024A0004E931497EC14FD0420F4B601C7010E946A
:1024B0001420D801ED91FC91119714968D919C9167
:1024C000E80FF91F1082DF91CF911F910F91FF90BC
:1024D000EF90DF90CF90BF90AF900895FC01808186
:1024E0009181009711F00C94931F60E070E0CB0194
:1024F00008950C949C1D0C949C1D0C94311E0C94FE
:10250000311EFC0181E090E02081222311F090E057
:1025100080E0089521E0FC01208308950895089546
:10252000CF93DF9300D0CDB7DEB78C0169017A017C
:1025300085E892E00E9457056AE171E085E892E043
:102540000E9457052AE030E0B701A60185E892E035
:102550000E94970661E271E085E892E00E945705CB
:10256000B80185E892E00E9457056EE271E085E8C7
:1025700092E00E94A2051A82198289819A810196AD
:102580009A838983FACFCF93DF9300D000D0CDB761
:10259000DEB720E330E03C832B8399E2899F912DC5
:1025A000112492959F709130D9F1923019F592E3F0
:1025B0009983885C9DEC899F912D11249695969521
:1025C000969520E3290F2A83292F220F220F920F9D
:1025D000990F891B805D8B83BE016F5F7F4F85E8FC
:1025E00092E00E9457050F900F900F900F90DF918F
:1025F000CF91089540E249839DEC899F912D11244C
:1026000096959695969530E3390F3A83292F220FA8
:10261000220F920F990F891B3033E1F64A83DACFEC
:1026200091E399838456C6CFCF93DF9300D000D037
:1026300000D0CDB7DEB7AC0186E0EDE3F1E0DE011E
:10264000119601900D928A95E1F79A0132952295A3
:102650002F7023273F702327A7E4B3E00E94391B84
:10266000969587959695879596958795E0E3E80FDB
:10267000E98360E177E2869F9001879F300D969F06
:10268000300D1124CA01821B930B68EE73E00E9487
:10269000031B20E3260F2A8364E670E00E94031BDD
:1026A00030E3360F3B836AE070E00E94031B605DFD
:1026B0006C83805D8D83E03391F490E299832033C5
:1026C00071F49A83303359F49B83603341F49C83D3
:1026D000803329F49D832E81203389F49E83BE01AB
:1026E0006F5F7F4F85E892E00E94570526960FB6F0
:1026F000F894DEBF0FBECDBFDF91CF9108952111B9
:10270000EECF8D83ECCFAF92BF92CF92DF92EF925C
:10271000FF920F931F93CF93DF93CDB7DEB72B9725
:102720000FB6F894DEBF0FBECDBF2BE0E8E3F1E0BB
:10273000DE01119601900D922A95E1F720E03AEC26
:102740004AE95BE30E94171B10E3120F198320E094
:1027500031EE45EF55E00E94171B00E3020F0A839C
:1027600020E836E948E950E00E94171B30E3F32ED9
:10277000F20EFB8220E432E44FE050E00E94171B8F
:1027800040E3E42EE20EEC8220EA36E841E050E03D
:102790000E94171B50E3D52ED20EDD8220E137E2D6
:1027A00040E050E00E94171BE0E3CE2EC20ECE8226
:1027B00028EE33E040E050E00E94171BF0E3BF2E0C
:1027C000B20EBF8224E630E040E050E00E94171BCA
:1027D000A0E3AA2EA20EA8862AE030E040E050E056
:1027E0000E94171B205D2987605D6A87103311F5F1
:1027F00080E289830033F1F48A8390E3F9121AC0EE
:102800008B83E91217C08C83D91214C08D83C9122F
:1028100011C08E83B9120EC08F83A9120BC0888796
:10282000203341F48987603329F48A879B8590336C
:10283000C9F48B87BE016F5F7F4F85E892E00E94ED
:1028400057052B960FB6F894DEBF0FBECDBFDF91B4
:10285000CF911F910F91FF90EF90DF90CF90BF909D
:10286000AF9008959111E6CF80E38A87E3CF089572
:1028700040E052EC61E070E085E892E00E9479036C
:1028800063E471E085E892E00E94A20585E892E0A9
:102890000E9479024FEF5FEF6FEF7FE785E892E0EC
:1028A0000E94630862E088E00E94990161E08DE087
:1028B0000E94990160E08EE00E9499010E94111728
:1028C000559A229A4FEF48BD2FEF30E030938B009E
:1028D00020938A0084B5806284BDE0E8F0E08081C6
:1028E0008062808391E090931101569A219A47BDAE
:1028F000309389002093880084B5806884BD8081EE
:102900008068808390930C010E941D1A63E571E03A
:1029100085E892E00E94A20585E892E00C94790295
:10292000CF93DF93CDB7DEB728970FB6F894DEBF0D
:102930000FBECDBF68E571E085E892E00E945705C3
:1029400085E892E00E94500969837A838B839C8397
:1029500004C085E892E00E94570285E892E00E9458
:102960002C0218161906ACF31FEF01E022C020E07C
:1029700030E048E453E4C701B6010E94251D181653
:102980000CF47BC1C701B6010E94441C6095E62E81
:10299000F12C80911101813009F477C1F0928B0004
:1029A000E0928A0085E892E00E942C02892B09F0CF
:1029B0003CC180900D0190900E01A0900F01B0904D
:1029C000100169817A818B819C81681979098A0952
:1029D0009B09C0903003D0903103E0903203F09017
:1029E00033039B01AC012C193D094E095F092D836E
:1029F0003E834F8358872B013C01442477FC43944A
:102A0000552466247724CC24F7FCC394DD24EE24DB
:102A1000FF244C1409F424C16B017C016093300342
:102A2000709331038093320390933303C092340345
:102A3000D0923503E0923603F09237030E94751C62
:102A40009B01AC010E945A1B2B013C01C701B6013E
:102A50000E94751C2DEC3CEC4CEC5DE30E942A1DA1
:102A60009B01AC01C301B2010E945A1B6B017C01A6
:102A70006D817E818F8198850E94751C20E030E0F9
:102A800040E450EC0E942A1D9B01AC01C701B60135
:102A90000E945A1B6B017C016EE571E085E892E0B3
:102AA0000E9457052AE030E049815A816B817C8180
:102AB00085E892E00E94340668E671E085E892E0DD
:102AC0000E9457052AE030E0B501A40185E892E0B4
:102AD0000E94340662E771E085E892E00E945705A3
:102AE000409108015091090160910A0170910B0118
:102AF0002AE030E085E892E00E9434066DE771E05C
:102B000085E892E00E94570522E030E0B701A60177
:102B100085E892E00E94D70764E871E085E892E0DA
:102B20000E94570568B54AE050E085E892E00E94AF
:102B3000B6066BE871E085E892E00E945705609167
:102B40008A0070918B004AE050E085E892E00E9494
:102B5000B60662E971E085E892E00E94570567B524
:102B60004AE050E085E892E00E94B60669E971E02B
:102B700085E892E00E945705609188007091890075
:102B80004AE050E085E892E00E94BD0620E030E097
:102B9000A901C701B6010E94C61B87FFE8CE20E04D
:102BA00030E048E453ECC701B6010E94C61B97E32E
:102BB000B92E87FD07C0C701B60190580E94441C7A
:102BC000B62EB09480911101813039F118BD4FEFCC
:102BD00050E050938B0040938A00C0900D01D0903C
:102BE0000E01E0900F01F090100102C06C017D0118
:102BF00061E070E080E090E00E94050180910D01AD
:102C000090910E01A0910F01B09110018C159D05BE
:102C1000AE05BF0559F700931101B8BC85E892E0F5
:102C20000E942C02892B09F4C4CE60EA71E085E889
:102C300092E00E94A20585E892E00E945009698313
:102C40007A838B839C8304C085E892E00E945702BC
:102C500085E892E00E942C0218161906ACF3A9CE62
:102C6000C0903403D0903503E0903603F0903703E2
:102C7000C60ED71EE81EF91ED1CE87E3E82EF12C32
:102C800080911101813009F089CE18BD8FEF90E05D
:102C900090938B0080938A0080900D0190900E019C
:102CA000A0900F01B090100102C04C015D0161E0E5
:102CB00070E080E090E00E94050180910D0190910C
:102CC0000E01A0910F01B091100188159905AA0578
:102CD000BB0559F71092110161CE0E9435010E9487
:102CE00038140E949014E22FF32F4DBF5EBF099558
:102CF00021E040910601509107014817590711F052
:102D0000822F089520E0822F0895FC018091060112
:102D100090910701E817F90711F080E0089581E02C
:102D200020813181232BC9F30895FC018081918199
:102D3000892B11F080E0089581E0E853F340D1F34E
:102D40000895CF93DF93CDB7DEB76B970FB6F894A6
:102D5000DEBF0FBECDBF9B8F8A8F209106013091C1
:102D60000701398F288F28173907C9F0F901CE01DB
:102D70000196918380830E94BA1F892B09F43FC07A
:102D8000288D398D30930701209306016B960FB67D
:102D9000F894DEBF0FBECDBFDF91CF91089565EBF4
:102DA00071E085E892E00E9457056AE171E085E8EC
:102DB00092E00E9457052AE030E04EE250E060E0E9
:102DC00070E085E892E00E94970661E271E085E894
:102DD00092E00E9457056EEB71E085E892E00E9458
:102DE00057056EE271E085E892E00E94A2051A8222
:102DF000198289819A8101969A838983FACF61E049
:102E000070E0EA8DFB8D808191810E94DA1F209114
:102E10000601309107012817390711F00C94A1160B
:102E2000089561E082E10E94D50161E083E10E94A2
:102E3000D501E9EBF0E080818E7F808380818D7FFA
:102E400080838CE08093B80085E48093BC00089573
:102E5000CF93DF9300D0CDB7DEB7DC0184EA809357
:102E6000BC009091BC0097FFFCCF9091B900987F77
:102E7000903159F0983309F46AC08FEF983029F0F7
:102E80000F900F90DF91CF91089583E18093BB0065
:102E900084E88093BC009091BC0097FFFCCF8091A8
:102EA000B900887F883309F44FC0803409F043C0EB
:102EB000FD019D01295F3F4F84EC8093BC00909100
:102EC000BC0097FFFCCF9091B900987F903599F5A1
:102ED0009091BB0091938093BC009091BC0097FFB0
:102EE000FCCF9091B900987F903529F59091BB0067
:102EF000E217F30711F784EC8093BC009091BC00BB
:102F000097FFFCCF8091B900887F8035A1F4809134
:102F1000BB0017968C9384E88093BC008091BC0022
:102F200087FFFCCF8091B900887F883521F480919C
:102F3000BB0080E001C08FEF94E99093BC000F903C
:102F40000F90DF91CF91089584E98093BC0069E2EE
:102F500072E085E892E00E9457056AE171E085E839
:102F600092E00E9457052AE030E040ED50E060E03A
:102F700070E085E892E00E94970661E271E085E8E2
:102F800092E00E9457056FE372E085E892E00E94AC
:102F900057056EE271E085E892E00E94A2051A8270
:102FA000198289819A8101969A838983FACFCF9376
:102FB000DF93FC01EB0140818881481B550B2FEF0B
:102FC000249FC001259F900D1124698170E00E940B
:102FD000EF1A608341818A81481B550B249FC001F1
:102FE000259F900D11246B8170E00E94EF1A618380
:102FF00042818C81481B550B249FC001259F900D59
:1030000011246D8170E00E94EF1A628343818E81EA
:10301000481B550B249FC001259F900D11246F81E3
:1030200070E00E94EF1A638344818885481B550B2A
:10303000249FC001259F900D1124698570E00E9496
:10304000EF1A648345818A85481B550B249FC00174
:10305000259F900D11246B8570E00E94EF1A658307
:1030600046818C85481B550B249FC001259F900DE0
:1030700011246D8570E00E94EF1A668347818E856A
:10308000481B550B249FC001259F900D11246F856F
:1030900070E00E94EF1A6783DF91CF9108955F92ED
:1030A0006F927F928F929F92AF92BF92CF92DF9258
:1030B000EF92FF920F931F93CF93DF93CDB7DEB7BD
:1030C0006A970FB6F894DEBF0FBECDBF8C01A62E57
:1030D00061E08DE00E94990160E08DE00E94D501E1
:1030E0008A2D0E9403020197D9F361E08DE00E94CE
:1030F000D50188E0E2E1F1E0DE01519601900D9208
:103100008A95E1F7FE01399688E0DF011D928A95E4
:10311000E9F768EE73E080E090E00E94050188E046
:10312000882EFE0131967F0194EA992E23E1522EDA
:1031300034E8732E44E9642E6E01F8E0CF0ED11C02
:1031400054ECB52E8A2D0E940302019709F066C047
:10315000D701E82D1D92EA95E9F79092BC00809185
:10316000BC0087FFFCCF8091B900887F803109F4D3
:10317000B4C0883309F431C1883009F4AEC0898104
:103180009989891708F4FAC09985981708F48987EE
:103190008A819A89891708F4F7C09A85981708F4E4
:1031A0008A878B819B89891708F4F4C09B859817BF
:1031B00008F48B878C819C89891708F4F1C09C8561
:1031C000981708F48C878D819D89891708F4EEC0C3
:1031D0009D85981708F48D878E819E89891708F43C
:1031E000EBC09E85981708F48E878F819F89891779
:1031F00008F4E8C09F85981708F48F878885988D14
:10320000891708F4E5C09889981708F09BCF888B38
:103210008A2D0E940302019709F49ACF8985998922
:10322000891BD8019C9311968C9311978A859A8952
:10323000891B12969C93129713968C9313978B85E8
:103240009B89891B14969C93149715968C931597BC
:103250008C859C89891B16969C93169717968C9340
:1032600017978D859D89891B18969C931897199699
:103270008C9319978E859E89891B1A969C931A9711
:103280001B968C931B978F859F89891B1C969C93FB
:103290001C971D968C931D978889988D891B1E9667
:1032A0009C931E971F968C9360E08DE06A960FB6F4
:1032B000F894DEBF0FBECDBFDF91CF911F910F916C
:1032C000FF90EF90DF90CF90BF90AF909F908F9046
:1032D0007F906F905F900C94D5015092BB007092DC
:1032E000BC008091BC0087FFFCCF8091B900887F33
:1032F000883309F46FC08034D1F5F701B092BC0077
:103300008091BC0087FFFCCF8091B900887F803519
:1033100071F58091BB008193B092BC008091BC009C
:1033200087FFFCCF8091B900887F803501F58091BF
:10333000BB00CE16DF0611F7B092BC008091BC0036
:1033400087FFFCCF8091B900887F803581F4809120
:10335000BB0088877092BC008091BC0087FFFCCFC7
:103360008091B900887F883511F48091BB0060920C
:10337000BC0089819989891708F006CF898B8A81D9
:103380009A89891708F009CF8A8B8B819B898917C5
:1033900008F00CCF8B8B8C819C89891708F00FCF9C
:1033A0008C8B8D819D89891708F012CF8D8B8E8132
:1033B0009E89891708F015CF8E8B8F819F89891779
:1033C00008F018CF8F8B8885988D891708F01BCF50
:1033D000888FB8CE84E98093BC0069E272E085E80A
:1033E00092E00E9457056AE171E085E892E00E9450
:1033F00057052AE030E040ED50E060E070E085E8FD
:1034000092E00E94970661E271E085E892E00E94F6
:1034100057056FE372E085E892E00E9457056EE27F
:1034200071E085E892E00E94A2051A8E198E898DBE
:103430009A8D01969A8F898FFACF8DB31DBA5298C3
:103440005A9853985B9885E08093690083E08DBB20
:1034500008951F921FB61F9211248F939F93AF93CD
:10346000BF93809111018823D9F080910D01909133
:103470000E01A0910F01B09110010197A109B109AE
:1034800080930D0190930E01A0930F01B093100152
:10349000BF91AF919F918F911F901FBE1F90189564
:1034A00080910D0190910E01A0910F01B09110013A
:1034B0000196A11DB11D80930D0190930E01A09363
:1034C0000F01B0931001E4CF1F921FB61F92112479
:1034D0008F939F93AF93BF9380910C018823D9F072
:1034E0008091080190910901A0910A01B0910B010E
:1034F0000197A109B1098093080190930901A09354
:103500000A01B0930B01BF91AF919F918F911F90D2
:103510001FBE1F9018958091080190910901A091FC
:103520000A01B0910B010196A11DB11D8093080104
:1035300090930901A0930A01B0930B01E4CFE5E851
:10354000F2E01382128288EE93E0A0E0B0E0848380
:103550009583A683B7838BE592E0918380838BEE7E
:1035600092E09587848787EA92E09787868785EC43
:1035700090E0918B808B84EC90E0938B828B80EC3D
:1035800090E0958B848B81EC90E0978B868B82EC1E
:1035900090E0918F808F86EC90E0938F828F84E013
:1035A000848F83E0858F87E0868F85E0878F81E039
:1035B00080A308956115710579F0FB010190002049
:1035C000E9F73197AF01461B570BDC01ED91FC91F8
:1035D0000280F381E02D099490E080E00895AA1B19
:1035E000BB1B51E107C0AA1FBB1FA617B70710F0EE
:1035F000A61BB70B881F991F5A95A9F78095909520
:10360000BC01CD01089597FB072E16F4009407D056
:1036100077FD09D00E94EF1A07FC05D03EF4909583
:1036200081959F4F0895709561957F4F0895A1E210
:103630001A2EAA1BBB1BFD010DC0AA1FBB1FEE1F2C
:10364000FF1FA217B307E407F50720F0A21BB30B77
:10365000E40BF50B661F771F881F991F1A9469F7F3
:1036600060957095809590959B01AC01BD01CF014F
:103670000895A29FB001B39FC001A39F700D811D4B
:103680001124911DB29F700D811D1124911D08956B
:103690000E94391BA59F900DB49F900DA49F800D93
:1036A000911D11240895EE0FFF1F0590F491E02D58
:1036B00009945058BB27AA270E94711B0C94EB1C3D
:1036C0000E94DD1C38F00E94E41C20F039F49F3F7A
:1036D00019F426F40C94DA1C0EF4E095E7FB0C9434
:1036E000D41CE92F0E94FC1C58F3BA176207730719
:1036F0008407950720F079F4A6F50C941E1D0EF4AE
:10370000E0950B2EBA2FA02D0B01B90190010C01F1
:10371000CA01A0011124FF27591B99F0593F50F409
:10372000503E68F11A16F040A22F232F342F442761
:10373000585FF3CF469537952795A795F040539559
:10374000C9F77EF41F16BA0B620B730B840BBAF029
:103750009150A1F0FF0FBB1F661F771F881FC2F794
:103760000EC0BA0F621F731F841F48F487957795A8
:103770006795B795F7959E3F08F0B0CF9395880F62
:1037800008F09927EE0F9795879508950E94B01C31
:1037900008F481E008950E94DF1B0C94EB1C0E944A
:1037A000E41C58F00E94DD1C40F029F45F3F29F032
:1037B0000C94D41C51110C941F1D0C94DA1C0E9403
:1037C000FC1C68F39923B1F3552391F3951B550B1A
:1037D000BB27AA2762177307840738F09F5F5F4FE4
:1037E000220F331F441FAA1FA9F335D00E2E3AF023
:1037F000E0E832D091505040E695001CCAF72BD03B
:10380000FE2F29D0660F771F881FBB1F261737078B
:103810004807AB07B0E809F0BB0B802DBF01FF27BD
:1038200093585F4F3AF09E3F510578F00C94D41CAA
:103830000C941F1D5F3FE4F3983ED4F38695779573
:103840006795B795F7959F5FC9F7880F911D969576
:10385000879597F90895E1E0660F771F881FBB1FD2
:10386000621773078407BA0720F0621B730B840B7F
:10387000BA0BEE1F88F7E09508950E94441C6894E7
:10388000B1110C941F1D08950E94041D88F09F57CC
:1038900098F0B92F9927B751B0F0E1F0660F771F74
:1038A000881F991F1AF0BA95C9F714C0B13091F06A
:1038B0000E941E1DB1E008950C941E1D672F782FE5
:1038C0008827B85F39F0B93FCCF38695779567952F
:1038D000B395D9F73EF490958095709561957F4F9B
:1038E0008F4F9F4F0895E89409C097FB3EF4909541
:1038F0008095709561957F4F8F4F9F4F9923A9F0C9
:10390000F92F96E9BB279395F69587957795679557
:10391000B795F111F8CFFAF4BB0F11F460FF1BC09B
:103920006F5F7F4F8F4F9F4F16C0882311F096E92E
:1039300011C0772321F09EE8872F762F05C06623DC
:1039400071F096E8862F70E060E02AF09A95660F95
:10395000771F881FDAF7880F9695879597F908954E
:10396000990F0008550FAA0BE0E8FEEF1616170690
:10397000E807F907C0F012161306E407F50798F0F8
:10398000621B730B840B950B39F40A2661F0232B11
:10399000242B252B21F408950A2609F4A140A6958D
:1039A0008FEF811D811D089597F99F6780E870E072
:1039B00060E008959FEF80EC089500240A941616A5
:1039C000170618060906089500240A94121613060D
:1039D000140605060895092E0394000C11F488239B
:1039E00052F0BB0F40F4BF2B11F460FF04C06F5FB7
:1039F0007F4F8F4F9F4F089557FD9058440F551F8D
:103A000059F05F3F71F04795880F97FB991F61F060
:103A10009F3F79F087950895121613061406551FD7
:103A2000F2CF4695F1DF08C0161617061806991F43
:103A3000F1CF86957105610508940895E894BB2738
:103A400066277727CB0197F908950E94B01C08F4E8
:103A50008FEF08950E943D1D0C94EB1C0E94DD1C0D
:103A600038F00E94E41C20F0952311F00C94D41C33
:103A70000C94DA1C11240C941F1D0E94FC1C70F382
:103A8000959FC1F3950F50E0551F629FF001729F03
:103A9000BB27F00DB11D639FAA27F00DB11DAA1F12
:103AA000649F6627B00DA11D661F829F2227B00D5F
:103AB000A11D621F739FB00DA11D621F839FA00DEA
:103AC000611D221F749F3327A00D611D231F849F3A
:103AD000600D211D822F762F6A2F11249F57504091
:103AE0009AF0F1F088234AF0EE0FFF1FBB1F661F0C
:103AF000771F881F91505040A9F79E3F510580F0D5
:103B00000C94D41C0C941F1D5F3FE4F3983ED4F337
:103B1000869577956795B795F795E7959F5FC1F778
:103B2000FE2B880F911D9695879597F908950E9411
:103B3000B01C880B990B0895CF93DF9382309105C9
:103B400010F482E090E0E0914003F091410320E026
:103B500030E0C0E0D0E0309711F14081518148174A
:103B60005907C0F04817590761F482819381209763
:103B700019F09B838A832BC0909341038093400369
:103B800026C02115310519F04217530718F49A0180
:103B9000BE01DF01EF010280F381E02DDCCF2115B2
:103BA000310509F1281B390B2430310590F41296A8
:103BB0008D919C9113976115710521F0FB01938301
:103BC000828304C09093410380934003FD013296A9
:103BD00044C0FD01E20FF31F8193919322503109FC
:103BE0002D933C933AC020913E0330913F03232B09
:103BF00041F4209102013091030130933F0320935F
:103C00003E0320910001309101012115310541F45D
:103C10002DB73EB74091040150910501241B350B8F
:103C2000E0913E03F0913F03E217F307A0F42E1B4F
:103C30003F0B2817390778F0AC014E5F5F4F241710
:103C4000350748F04E0F5F1F50933F0340933E03EC
:103C50008193919302C0E0E0F0E0CF01DF91CF913A
:103C600008950F931F93CF93DF93009709F48CC0AF
:103C7000FC0132971382128200914003109141039C
:103C80000115110581F420813181820F931F20914C
:103C90003E0330913F032817390779F5F0933F032E
:103CA000E0933E0371C0D80140E050E0AE17BF077B
:103CB00050F412962D913C911397AD0121153105C9
:103CC00009F1D901F3CF9D01DA01338322836081A9
:103CD0007181860F971F8217930769F4EC01288181
:103CE0003981260F371F2E5F3F4F318320838A8112
:103CF0009B8193838283452B29F4F0934103E093C6
:103D0000400342C01396FC93EE931297ED01499144
:103D100059919E01240F351FE217F30771F480813A
:103D20009181840F951F029611969C938E938281A8
:103D3000938113969C938E931297E0E0F0E0D80164
:103D400012968D919C911397009719F0F8018C01B0
:103D5000F6CF8D919C9198012E5F3F4F820F931F5C
:103D600020913E0330913F032817390769F43097BB
:103D700029F4109241031092400302C01382128270
:103D800010933F0300933E03DF91CF911F910F915A
:103D90000895A0E0B0E0EFECFEE10C943A21EC01D4
:103DA000009721F4CB010E949C1DB8C0FC01E60FD6
:103DB000F71F9C0122503109E217F30708F4ACC049
:103DC000D9010D911C91119706171707B0F0053016
:103DD000110508F49FC0C80104978617970708F4D7
:103DE00099C002501109061B170B019311936D9393
:103DF0007C93CF010E94311E8DC05B01A01AB10AD5
:103E00004C01800E911EA0914003B091410340E00F
:103E100050E0E12CF12C109709F44AC0A815B9051F
:103E2000D1F56D907C901197630182E0C80ED11C92
:103E3000CA14DB0480F1A3014A195B096A0182E01C
:103E4000C80ED11C1296BC9012971396AC91B5E097
:103E5000CB16D10440F0B282A38351834083D901B1
:103E60006D937C930AC00E5F1F4FC301800F911F9B
:103E7000F90191838083EB2DFA2FE114F10431F0E5
:103E8000D7011396FC93EE93129744C0F09341032D
:103E9000E09340033FC08D919C91119748175907BB
:103EA00008F4AC017D0112960D90BC91A02DB3CF0A
:103EB00080913E0390913F0388159905E1F44617E0
:103EC0005707C8F48091000190910101009741F4D7
:103ED0008DB79EB74091040150910501841B950B4D
:103EE000E817F907C8F4F0933F03E0933E03F901A4
:103EF000718360830FC0CB010E949C1D7C010097E1
:103F000059F0A801BE010E941420CE010E94311E6A
:103F1000C70104C0CE0102C080E090E0CDB7DEB79B
:103F2000EEE00C9456211F93FC0199278827BC01D1
:103F3000E89411911032E9F3193010F01E30C8F3F3
:103F40001B3251F01D3249F4689406C00E94BC2017
:103F5000610F711D811D911D119110531A30B0F325
:103F60003EF490958095709561957F4F8F4F9F4F50
:103F70001F910895DC012D923D924D925D926D92BC
:103F80007D928D929D92AD92BD92CD92DD92ED92F9
:103F9000FD920D931D93CD93DD93FF91EF918DB71E
:103FA0008D938EB78D938FB78D93ED93FD93882767
:103FB00099270994DC01CB0181309105811D2D9059
:103FC0003D904D905D906D907D908D909D90AD90C9
:103FD000BD90CD90DD90ED90FD900D911D91CD9116
:103FE000DD91ED91FD910D90F894FEBF0FBEEDBFF8
:103FF000ED91FD91099491110C942321803219F0D7
:1040000089508550C8F708959111089581548A51B7
:1040100008F4805E855A08959111089581568A5159
:1040200008F4805285580895FB01DC0102C001901C
:104030000D9241505040D8F708956817790768F4F9
:10404000FB01DC01E40FF51FA40FB51F02C00290B5
:104050000E9241505040D8F708950C941420FC0162
:104060008191861721F08823D9F7992708953197F0
:10407000CF010895FB01DC018D91019080190110A1
:10408000D9F3990B0895FB01DC0101900D920020FA
:10409000E1F70895FB01DC014150504030F08D9173
:1040A0000190801919F40020B9F7881B990B089525
:1040B000FB01DC014150504048F001900D9200207E
:1040C000C9F701C01D9241505040E0F70895FC012E
:1040D00081E090E00190061609F4CF010020D1F7AD
:1040E00001970895FB0151915523A9F0BF01DC010F
:1040F0004D9145174111E1F759F4CD010190002090
:1041000049F04D9140154111C9F3FB014111EFCF29
:1041100081E090E0019708954532510520F4423046
:1041200010F00C949720FB011082CB010895BB275F
:104130004A3031F4992322F4BDE2909581959F4F46
:104140000C940A212532310520F4223010F00C9411
:10415000AD20FA011082CA010895BB272A3051F41C
:10416000992342F4BDE290958095709561957F4FBB
:104170008F4F9F4F0C94DD20592F482F372F262F1C
:10418000660F771F881F991F660F771F881F991F5B
:10419000620F731F841F951F660F771F881F991F5B
:1041A00008952532310520F4223010F00C94DC20E3
:1041B000FA011082CA010895BB27FA01A62F6217DF
:1041C000710581059105330B30FB66F0AA27660F58
:1041D000771F881F991FAA1FA21710F0A21B6395B3
:1041E0003850A9F7A05DAA3308F0A95DA19336F76E
:1041F000B111B1931082CA010C94262145325105A8
:1042000020F4423010F00C940921FB011082CB0104
:104210000895BB27FB015527AA27880F991FAA1FBE
:10422000A41710F0A41B83955051B9F7A05DAA33D1
:1042300008F0A95DA193009779F7B111B19311929C
:10424000CB010C942621992788270895DC01FC01D5
:10425000672F71917723E1F7329704C07C916D93BA
:1042600070836291AE17BF07C8F308952F923F92F3
:104270004F925F926F927F928F929F92AF92BF9276
:10428000CF92DF92EF92FF920F931F93CF93DF9322
:10429000CDB7DEB7CA1BDB0B0FB6F894DEBF0FBE7F
:1042A000CDBF09942A88398848885F846E847D84CC
:1042B0008C849B84AA84B984C884DF80EE80FD80CE
:1042C0000C811B81AA81B981CE0FD11D0FB6F89444
:0E42D000DEBF0FBECDBFED010895F894FFCF05
:1042DE00000042032000380300000000010000002F
:1042EE000001FFFFFFFFFFFFFFFF206C696E6520DF
:1042FE0000417373657274696F6E3A20220022203A
:10430E006661696C65642E0030303030303030308C
:10431E00303000496E697469616C697A696E672E16
:10432E002E2E00446F6E6500696E6F3E2000736521
:10433E0074706F696E743D002C2061637475616CCE
:10434E003D002C2061637475616C323D002C207031
:10435E0069643D002C206C70313D002C206C703255
:10436E003D002C207270313D002C207270323D00C9
:10437E0052656164696E672066726F6D2073657237
:10438E0069616C2100636F726F2E63707000436FF2
:10439E00726F7574696E653A3A63757272656E7492
:1043AE006C795F72756E6E696E6720213D20266393
:1043BE006F726F202626202243616E6E6F7420630B
:1043CE00616C6C207969656C645F666173745F748F
:1043DE006F2829206F6E2074686520637572726570
:1043EE006E746C792D72756E6E696E6720636F7266
:1043FE006F7574696E652E22006932635F6C696E2B
:10440E00655F666F6C6C6F7765722E637070006699
:10441E00616C73652026262022556E726561636875
:10442E0061626C652E2200000000008402D7042C0D
:10443E000257023E0279026E616E00696E66006F6F
:0C444E00766600000000008F12D704000A
:00000001FF
