:100000000C9462000C94561C0C94911C0C948A0065
:100010000C948A000C948A000C948A000C948A0038
:100020000C948A000C948A000C948A000C948A0028
:100030000C948A000C948A000C948A000C948A0018
:100040000C9407010C948A000C943C030C947A03E2
:100050000C948A000C948A000C948A000C948A00F8
:100060000C948A000C948A00000000070002010032
:100070000003040600000000000000000102040864
:100080001020408001020408102001020408102002
:10009000040404040404040402020202020203032E
:1000A00003030303000000002300260029000000D2
:1000B0000000250028002B0000000000240027007D
:1000C0002A00CC1C11241FBECFEFD8E0DEBFCDBF6D
:1000D00012E0A0E0B1E0EEE4F7E402C005900D927A
:1000E000A431B107D9F722E0A4E1B2E001C01D922A
:1000F000A23FB207E1F710E0C2E6D0E004C02197CA
:10010000FE010E948B1DC136D107C9F70E940B1753
:100110000C94A5230C9400008093000108958E3068
:1001200008F08E502091000190E4299F9001112445
:100130008770822B80937C0080917A00806480930A
:100140007A0080917A0086FDFCCF809178009091B2
:10015000790008951F93CF93DF93182FEB0161E08F
:100160000E941402209739F460E0812FDF91CF9133
:100170001F910C945002CF3FD10511F461E0F5CFEF
:10018000E12FF0E0E859FF4FE491E33031F140F422
:10019000E130B1F0E230E1F0C038D1052CF3EECF20
:1001A000E63029F1E73059F1E430B1F78091800071
:1001B000806280938000D0938B00C0938A0004C03B
:1001C00084B5806884BDC7BDDF91CF911F9108952C
:1001D00084B5806284BDC8BDF7CF809180008068FF
:1001E00080938000D0938900C0938800EDCF8091E8
:1001F000B00080688093B000C093B300E5CF8091D9
:10020000B00080628093B000C093B400DDCF1F9235
:100210001FB61F9211242F933F938F939F93AF93F9
:10022000BF938091140290911502A0911602B09193
:10023000170230911C0223E0230F2D3750F5019651
:10024000A11DB11D20931C028093140290931502EE
:10025000A0931602B0931702809118029091190290
:10026000A0911A02B0911B020196A11DB11D8093AD
:10027000180290931902A0931A02B0931B02BF9127
:10028000AF919F918F913F912F911F901FBE1F9013
:10029000189526E8230F0296A11DB11DD3CF2FB7C5
:1002A000F894609114027091150280911602909159
:1002B00017022FBF08953FB7F894809118029091CC
:1002C0001902A0911A02B0911B0226B5A89B05C085
:1002D0002F3F19F00196A11DB11D3FBFBA2FA92FC5
:1002E000982F8827BC01CD01620F711D811D911DC2
:1002F00042E0660F771F881F991F4A95D1F708952E
:10030000CF92DF92EF92FF92CF93DF936B017C014C
:100310000E945B01EB01C114D104E104F10439F442
:10032000DF91CF91FF90EF90DF90CF9008950E94E2
:100330005B016C1B7D0B683E734068F381E0C81A5B
:10034000D108E108F108C851DC4FE5CF019739F039
:10035000880F991F880F991F02970197F1F7089549
:10036000789484B5826084BD84B5816084BD85B590
:10037000826085BD85B5816085BDEEE6F0E0808157
:1003800081608083E1E8F0E0108280818260808378
:10039000808181608083E0E8F0E0808181608083FB
:1003A000E1EBF0E0808184608083E0EBF0E080812D
:1003B00081608083EAE7F0E08081846080838081CF
:1003C0008260808380818160808380818068808377
:1003D0001092C1000895833081F028F4813099F0A3
:1003E0008230A9F008958630A9F08730C9F08430B2
:1003F000B1F4809180008F7D03C0809180008F7761
:1004000080938000089584B58F7784BD089584B566
:100410008F7DFBCF8091B0008F778093B0000895DF
:100420008091B0008F7DF9CFCF93DF9390E0FC01F6
:10043000E458FF4F249180579F4FFC0184918823FB
:10044000C9F090E0880F991FFC01E854FF4FA59177
:10045000B491FC01E255FF4FC591D49161110DC0DB
:100460009FB7F8948C91209582238C9388812823C0
:1004700028839FBFDF91CF910895623051F49FB7D9
:10048000F8943C91822F809583238C93E8812E2BC6
:10049000EFCF8FB7F894EC912E2B2C938FBFEACF30
:1004A0001F93CF93DF93162F282F30E0F901E859DF
:1004B000FF4F8491F901E458FF4FD491F901E057BF
:1004C000FF4FC491CC23A1F081110E94EB01EC2FCE
:1004D000F0E0EE0FFF1FE255FF4FA591B4918FB7EB
:1004E000F894EC91111108C0D095DE23DC938FBFF6
:1004F000DF91CF911F910895DE2BF8CFCF93DF933B
:10050000282F30E0F901E859FF4F8491F901E458B0
:10051000FF4FD491F901E057FF4FC491CC23A1F0D4
:1005200081110E94EB01EC2FF0E0EE0FFF1FEC5564
:10053000FF4FA591B491EC91ED2381E090E009F497
:1005400080E0DF91CF91089580E090E0FACFFC0148
:1005500024853585F901E05CFF4F808191812E5B18
:100560003F4FF90120813181821B930B8F739927B3
:100570000895FC0184859585FC01E05CFF4F408176
:1005800051813296208131814217530741F02081F9
:100590003181820F931FFC01808190E008958FEFDD
:1005A0009FEF0895DC011C968D919C91FC01E05C0D
:1005B000FF4F40815181329620813181421753078C
:1005C00081F020813181820F931FDC018C91208189
:1005D00031812F5F3F4F2F7333273183208390E08A
:1005E00008958FEF9FEF0895FC0191A1992329F0C1
:1005F000A489B5898C9186FFF9CF11A20895CF9374
:10060000DF93FC0126853785D901A05CBF4F8D9112
:100610009C91119701968F739927E901CE5BDF4F6B
:100620004881598148175907D9F34D915C91240F9E
:10063000351FD9016C93A685B785A05CBF4F119675
:100640009C938E93A689B7898C91978D21E030E099
:1006500001C0220F9A95EAF7822B8C9381E081A347
:100660000488F589E02D80818064808381E090E0BA
:10067000DF91CF91089508952F932FB72F934F9324
:100680005F938F939F93EF93FF938091C00082FDC0
:1006900025C02091C6008091C3029091C402409170
:1006A000C5025091C60201968F73992748175907C2
:1006B00059F0E091C302F091C402ED57FD4F208341
:1006C0009093C4028093C302FF91EF919F918F9109
:1006D0005F914F912F912FBF2F9118958091C60058
:1006E000F3CF8DE192E00E94A702892B11F00C94C8
:1006F0003B0308952F932FB72F933F938F939F938F
:10070000EF93FF9320917F023091800280918102CC
:10071000909182022817390771F48091C1008F7D72
:100720008093C100FF91EF919F918F913F912F9105
:100730002FBF2F911895E0918102F0918202E15C28
:10074000FD4F2081809181029091820201968F73EA
:10075000992790938202809381022093C600E2CF72
:100760008F929F92AF92BF92CF92DF92EF92FF92C1
:100770000F931F93CF93DF93CDB7DEB7FC011382A6
:10078000128288EE93E0A0E0B0E084839583A68394
:10079000B78384EF91E0918380837587648757875F
:1007A0004687318B208B138B028BF58AE48AD78A9C
:1007B000C68AB18EA08E938E828E8F85848F888913
:1007C000858F8989868F8A89878F8B8980A3DF911E
:1007D000CF911F910F91FF90EF90DF90CF90BF903E
:1007E000AF909F908F900895CF92DF92EF92FF92FB
:1007F000CF93DF93EC016A017B01C11481EED8062F
:10080000E104F10409F04FC0EC89FD89108260E831
:1008100074E88EE190E0A70196010E94301D2150FE
:100820003109410951095695479537952795E8892A
:10083000F9893083EA89FB89208319A2EE89FF892F
:1008400020813C8D81E090E0AC0101C0440F3A95DD
:10085000EAF7242B2083EE89FF8920813D8DAC01AE
:1008600001C0440F3A95EAF7242B2083EE89FF89D3
:1008700020813E8DAC0101C0440F3A95EAF7242B4C
:100880002083EE89FF8920813F8D01C0880F3A9532
:10089000EAF7809582238083DF91CF91FF90EF90DC
:1008A000DF90CF900895EC89FD8928A181E090E048
:1008B00001C0880F2A95EAF7808360E079E08DE334
:1008C00090E0A70196010E94301D21503109410995
:1008D00051095695479537952795211580E1380799
:1008E00008F092CFA4CFCF92DF92EF92FF921F93A6
:1008F000CF93DF93EC016A017B01122FC11481EECB
:10090000D806E104F10409F052C0EC89FD89108297
:1009100060E874E88EE190E0A70196010E94301D26
:100920002150310941095109569547953795279529
:10093000E889F9893083EA89FB892083E88DF98D7C
:100940001083EE89FF8920813C8D81E090E0AC012D
:1009500001C0440F3A95EAF7242B2083EE89FF89E2
:1009600020813D8DAC0101C0440F3A95EAF7242B5C
:100970002083EE89FF8920813E8DAC0101C0440FA8
:100980003A95EAF7242B2083EE89FF8920813F8D59
:1009900001C0880F3A95EAF7809582238083DF9122
:1009A000CF911F91FF90EF90DF90CF900895EC8949
:1009B000FD8928A181E090E001C0880F2A95EAF71F
:1009C000808360E079E08DE390E0A70196010E94CA
:1009D000301D2150310941095109569547953795E8
:1009E0002795211580E1380708F08FCFA1CFCF934D
:1009F000DF93FC0186859785DC01A05CBF4F8E5B91
:100A00009F4F4D915C911197EC01288139814217DC
:100A10005307B9F7A689B7894C91248D81E090E0FE
:100A2000BC0102C0660F771F2A95E2F79B01209553
:100A300024232C93A689B7894C91258DEC0102C003
:100A4000CC0FDD1F2A95E2F79E01209524232C93DD
:100A5000A689B7894C91268DBC0102C0660F771F0D
:100A60002A95E2F79B01209524232C93A689B78928
:100A70002C91378D01C0880F3A95EAF78095822333
:100A80008C9384859585FC01EE5BFF4F208131813D
:100A9000805C9F4FEC0139832883DF91CF910895CB
:100AA00081E00895CF92DF92EF92FF920F931F9310
:100AB000CF93DF936C017B01E40EF51E10E000E0A4
:100AC0006E157F0571F0EB01D601ED91FC9101905F
:100AD000F081E02D6991C6010995080F191FBE012B
:100AE000EFCFC801DF91CF911F910F91FF90EF9051
:100AF000DF90CF900895EF92FF920F931F93CF93C3
:100B0000DF937C018B01D0E0C0E0F80164910F5FBE
:100B10001F4F662359F0D701ED91FC910190F081B0
:100B2000E02DC7010995C80FD91FEFCFCE01DF9186
:100B3000CF911F910F91FF90EF900895AF92BF92C8
:100B4000CF92DF92EF92FF920F931F93CF93DF9399
:100B50007C016B01D0E0C0E010E000E0D60114960B
:100B60008D919C91C817D90788F4D701ED91FC911C
:100B7000A080B180BE01C6010E94F30F682FC7019B
:100B8000F5010995080F191F2196E8CFC801DF91DB
:100B9000CF911F910F91FF90EF90DF90CF90BF907A
:100BA000AF9008950C94071DDC01ED91FC9101902C
:100BB000F081E02D0994DB01ED91FC9111970190FA
:100BC000F081E02DBC01CD0109940F931F93CF93C9
:100BD000DF93EC016DE00E94D4058C016AE0CE0148
:100BE0000E94D405800F911FDF91CF911F910F912B
:100BF00008950F931F93CF93DF93EC010E947B0521
:100C00008C01CE010E94E505800F911FDF91CF91ED
:100C10001F910F9108950F931F93CF93DF93EC01D2
:100C20000E949E058C01CE010E94E505800F911F58
:100C3000DF91CF911F910F9108950F931F93CF9341
:100C4000DF93EC010E94071D8C01CE010E94E50597
:100C5000800F911FDF91CF911F910F9108950F93F6
:100C60001F93CF93DF93EC010E94D4058C01CE013A
:100C70000E94E505800F911FDF91CF911F910F9189
:100C800008950F931F93CF93DF93EC010E94DB0530
:100C90008C01CE010E94E505800F911FDF91CF915D
:100CA0001F910F9108954F925F926F927F929F9242
:100CB000AF92BF92CF92DF92EF92FF920F931F936A
:100CC000CF93DF93CDB7DEB7A1970FB6F894DEBF11
:100CD0000FBECDBF5C016A017B01922E19A281E09B
:100CE000821710F08AE0982E8E010F5D1F4F492C5D
:100CF000512C712C612CC701B601A30192010E94F5
:100D0000301D8C2D929E801911248A3034F5805D1F
:100D1000F80182938F01C414D504E604F704D0F4DB
:100D2000BF01C5010E94071DA1960FB6F894DEBF52
:100D30000FBECDBFDF91CF911F910F91FF90EF902C
:100D4000DF90CF90BF90AF909F907F906F905F901B
:100D50004F90089569017A01CECF895CD9CFCF92A7
:100D6000DF92EF92FF920F931F93CF93DF93EC01EB
:100D70006A017B012115310579F4E881F98101903F
:100D8000F081E02D642FDF91CF911F910F91FF90A3
:100D9000EF90DF90CF9009942A303105E9F42AE0F2
:100DA000F7FE1AC06DE20E94D4058C014427552736
:100DB000BA014C195D096E097F092AE0CE010E9433
:100DC0005306800F911FDF91CF911F910F91FF90DC
:100DD000EF90DF90CF900895B701A601CE01DF918B
:100DE000CF911F910F91FF90EF90DF90CF900C94D7
:100DF00053069A01AB01770F660B770B0C94AF0685
:100E00000F931F93CF93DF93EC010E94F9068C019F
:100E1000CE010E94E505800F911FDF91CF911F91B8
:100E20000F9108950F931F93CF93DF93EC010E94CE
:100E3000AF068C01CE010E94E505800F911FDF9166
:100E4000CF911F910F9108952115310541F4DC01D7
:100E5000ED91FC910190F081E02D642F09940C94A8
:100E600053069A01462F50E070E060E00C9424078E
:100E70000F931F93CF93DF93EC010E9431078C01F6
:100E8000CE010E94E505800F911FDF91CF911F9148
:100E90000F9108959A01AB0170E060E00C94240773
:100EA0000F931F93CF93DF93EC010E944A078C01AD
:100EB000CE010E94E505800F911FDF91CF911F9118
:100EC0000F9108950F931F93CF93DF93EC010E942E
:100ED00024078C01CE010E94E505800F911FDF9150
:100EE000CF911F910F9108954F925F926F927F92D1
:100EF0008F929F92AF92BF92CF92DF92EF92FF922A
:100F00001F93CF93DF93EC016A017B01122FAB019A
:100F10009601CB01B6010E94CF1F60E072E0811103
:100F200026C046015701E894B7F82FEF3FEF4FE78F
:100F30005FE7C501B4010E94CF1F81110CC02FEFE4
:100F40003FEF4FE75FE7C501B4010E94FE1D64E07B
:100F500072E0181664F02FEF3FEF4FE75FE4C70130
:100F6000B6010E945D1F1816A4F468E072E0CE017D
:100F7000DF91CF911F91FF90EF90DF90CF90BF90C6
:100F8000AF909F908F907F906F905F904F900C9458
:100F9000071D2FEF3FEF4FE75FECC701B6010E943F
:100FA000FE1D87FDE2CF20E030E0A901C701B601B8
:100FB0000E94FE1DB12CA12C87FF09C06DE2CE015D
:100FC0000E94D4055C01F7FAF094F7F8F094912CA4
:100FD00060E070E080E09FE3191541F020E030E030
:100FE00040E251E40E94031E9394F6CFA7019601BC
:100FF0000E94921D2B013C010E947C1E6B017C0112
:101000000E94AB1E9B01AC01C301B2010E94911D65
:101010002B013C012AE0B701A601CE010E94530634
:101020007C01EA0CFB1C112339F069E271E0CE016E
:101030000E94071DE80EF91E115018F120E030E063
:1010400040E251E4C301B2010E94621F2B013C0146
:101050000E94751E4B014AE050E0CE010E94F90645
:10106000E80EF91EB401990C880B990B0E94AD1E75
:101070009B01AC01C301B2010E94911D2B013C01F7
:10108000DBCFC701DF91CF911F91FF90EF90DF90F1
:10109000CF90BF90AF909F908F907F906F905F9018
:1010A0004F9008950C9474070F931F93CF93DF9381
:1010B000EC010E9474078C01CE010E94E505800FAF
:1010C000911FDF91CF911F910F9108950F931F935F
:1010D000CF93DF93EC010E944F01688779878A875D
:1010E0009B87E881F9810680F781E02DCE01099583
:1010F00097FF15C00E944F01088519852A853B85F9
:10110000601B710B820B930B0C811D812E813F8123
:10111000601771078207930720F38FEF9FEFDF912E
:10112000CF911F910F9108950F931F93CF93DF934A
:10113000EC010E944F01688779878A879B87E88145
:10114000F9810084F185E02DCE01099597FF15C046
:101150000E944F01088519852A853B85601B710B0C
:10116000820B930B0C811D812E813F8160177107CB
:101170008207930720F38FEF9FEFDF91CF911F91AD
:101180000F910895CF93DF93EC01CE010E94940854
:1011900097FD11C08D32910571F09C0120533109EA
:1011A0002A30310540F0E881F9810680F781E02D91
:1011B000CE010995EACFDF91CF910895FC014483D8
:1011C00055836683778308956F927F928F929F9263
:1011D000AF92BF92CF92DF92EF92FF920F931F9345
:1011E000CF93DF935C016B013A014901FB018081E0
:1011F000811145C081E0DF91CF911F910F91FF9048
:10120000EF90DF90CF90BF90AF909F908F907F90A6
:101210006F900895D0E0C0E0C5010E9466081816DE
:1012200019065CF5F601EE0DFF1D2081022E000C63
:10123000330B8217930751F0F6012081022E000C28
:10124000330BF12CE12C8217930731F4FFEFEF1AE7
:10125000FF0AE614F70470F601151105D9F2F4013E
:10126000EC0FFD1F2081022E000C330B8217930719
:1012700089F62196C017D10778F280E0BCCFD0E084
:10128000C0E0F12CE12CC8CF0F931F9310E000E0D9
:1012900030E020E00E94E4081F910F9108950F9321
:1012A0001F939A01FA0101900020E9F731978F010D
:1012B000041B150BFB0101900020E9F73197AF01EA
:1012C000461B570B0E94E4081F910F91089550E0B0
:1012D00040E00C944F09BF92CF92DF92EF92FF92C1
:1012E0000F931F93CF93DF938C01C62F0E94C208E8
:1012F000FC01C12CD12C760197FD3EC0B12C0C2EE7
:10130000000CDD0BCE17DF07D9F0ED32F10509F443
:101310003FC0CF01C0970A9798F4AAE0B0E0A701B8
:1013200096010E94801D6F01FF0FEE08FF08C60E98
:10133000D71EE81EF91E80E3C81AD108E108F1089B
:10134000D801ED91FC910680F781E02DC801099547
:10135000C8010E949408FC01C0970A9798F2CE1722
:10136000DF0781F2BB2041F0F094E094D094C09468
:10137000C11CD11CE11CF11CC701B601DF91CF914A
:101380001F910F91FF90EF90DF90CF90BF90089545
:10139000BB24B394D5CF61E00C946B097F928F92FC
:1013A0009F92AF92BF92CF92DF92EF92FF920F93F4
:1013B0001F93CF93DF93EC01762E0E94C208E82F93
:1013C00060E070E0CB01E7FD5EC0812C912C80E8ED
:1013D000A82E8FE3B82EC12CD12C760110E000E0AE
:1013E000E71551F1ED3209F45CC0EE3209F45BC04F
:1013F00080ED8E0F8A3000F5AAE0B0E0A7019601DB
:101400000E94801DCE2EEE0FDD08EE08FF08C60EEE
:10141000D71EE81EF91E80E3C81AD108E108F108BA
:10142000112351F02DEC3CEC4CEC5DE3C501B40113
:101430000E94621F4B015C01E881F9810680F781FF
:10144000E02DCE010995CE010E949408E82F90ED81
:10145000980F9A3028F28E3219F2781609F200238A
:1014600041F0F094E094D094C094C11CD11CE11CD4
:10147000F11CC701B6010E94AD1E112321F0A50188
:1014800094010E94621FDF91CF911F910F91FF90F5
:10149000EF90DF90CF90BF90AF909F908F907F9014
:1014A000089501E0C9CF11E0C7CF61E00C94CE09E7
:1014B000CF92DF92EF92FF920F931F93CF93DF9320
:1014C0007C018B016A01D0E0C0E0CC15DD0551F054
:1014D000C7010E94660897FD05C0F8018193219617
:1014E0008F01F3CFCE01DF91CF911F910F91FF902C
:1014F000EF90DF90CF900895AF92BF92CF92DF929E
:10150000EF92FF920F931F93CF93DF936C015A01D9
:101510007901D0E0C0E0062F660F110B232B69F490
:10152000CE01DF91CF911F910F91FF90EF90DF904F
:10153000CF90BF90AF9008955F01C6010E946608EA
:1015400097FDEECF0817190759F3F50181932196FE
:10155000EC16FD0689F7E4CF0F931F93CF93DF932B
:10156000EC018B016FE371E00E945D0BC8010E94EA
:10157000660897FD05C0682FCE010E944B0DF6CF7F
:10158000CE01DF91CF911F910F910895EF92FF92BD
:101590000F931F93CF93DF93EC017B01042F6FE335
:1015A00071E00E945D0BC7010E946608002E000CCE
:1015B000110B97FD0BC00817190741F0682FCE01DA
:1015C0000E944B0DC7010E946608F3CFCE01DF9148
:1015D000CF911F910F91FF90EF900895FC018081B2
:1015E00091810C946920CF93DF93EC0188819981DC
:1015F000009711F00E946920198218821D821C82B6
:101600001B821A82DF91CF9108950F931F93CF937E
:10161000DF93EC018B016F5F7F4F888199810E947E
:101620000121009751F0998388831B830A8381E00D
:10163000DF91CF911F910F91089580E0F9CFCF9363
:10164000DF93EC0188819981892B49F08A819B8104
:101650008617970720F081E0DF91CF910895CE01A2
:101660000E94050B8823C1F38C819D81892B99F7FA
:10167000E881F9811082EFCFEF92FF920F931F93D1
:10168000CF93DF93EC017B018A01BA010E941F0B0B
:1016900081110BC0CE010E94F30ACE01DF91CF91E0
:1016A0001F910F91FF90EF9008951D830C83B70158
:1016B000888199810E947B22F0CFFC0111821082E7
:1016C000138212821582148216826115710551F0FF
:1016D000FB0101900020E9F73197AF01461B570B42
:1016E0000C943C0B08950F931F93CF93DF938C01C1
:1016F000EB01FC01808191810097C9F04281538107
:101700002C813D814217530780F0688179810E94C6
:101710007B228C819D81F801958384831D821C82AC
:10172000DF91CF911F910F9108950E9469208881C8
:101730009981F801918380838A819B81938382833D
:101740008C819D8195838483198218821B821A82E1
:10175000E5CFFC011182108213821282158214825D
:1017600016820C94730BFC01118210821382128278
:101770001582148216820C94730BCF93DF93EC01C5
:10178000FB018617970749F060817181611571052A
:1017900041F0448155810E943C0BCE01DF91CF91F5
:1017A00008950E94F30AF9CFFC011182108213827E
:1017B00012821582148216820C94BD0BCF93DF9394
:1017C000EC018617970711F00E94730BCE01DF9191
:1017D000CF910895CF93DF93EC016817790711F04B
:1017E0000E94730BCE01DF91CF910895CF93DF93C9
:1017F000EC016115710571F0FB0101900020E9F722
:101800003197AF01461B570B0E943C0BCE01DF9175
:10181000CF9108950E94F30AF9CFCF93DF9300D0C0
:10182000CDB7DEB7FC0111821082138212821582BD
:101830001482168269831A82BE016F5F7F4F0E94F5
:10184000F60B0F900F90DF91CF9108950F931F9398
:10185000CF93DF93CDB7DEB729970FB6F894DEBFED
:101860000FBECDBF8C01862FF8011182108213822A
:10187000128215821482168250E0BE016F5F7F4F84
:1018800090E00E943623BE016F5F7F4FC8010E9427
:10189000F60B29960FB6F894DEBF0FBECDBFDF91D1
:1018A000CF911F910F9108950F931F93CF93DF93C3
:1018B000CDB7DEB762970FB6F894DEBF0FBECDBFCF
:1018C0008C01CB01F80111821082138212821582E1
:1018D0001482168250E0BE016F5F7F4F0E94C422C7
:1018E000BE016F5F7F4FC8010E94F60B62960FB674
:1018F000F894DEBF0FBECDBFDF91CF911F910F9146
:1019000008950F931F93CF93DF93CDB7DEB7619701
:101910000FB6F894DEBF0FBECDBF8C01CB01F8012E
:10192000118210821382128215821482168250E074
:10193000BE016F5F7F4F0E943623BE016F5F7F4FF6
:10194000C8010E94F60B61960FB6F894DEBF0FBE79
:10195000CDBFDF91CF911F910F9108950F931F93EA
:10196000CF93DF93CDB7DEB7A2970FB6F894DEBF63
:101970000FBECDBF8C01CB01BA01F80111821082DC
:101980001382128215821482168230E0AE014F5FFC
:101990005F4F0E94DA22BE016F5F7F4FC8010E9435
:1019A000F60BA2960FB6F894DEBF0FBECDBFDF9147
:1019B000CF911F910F9108950F931F93CF93DF93B2
:1019C000CDB7DEB7A1970FB6F894DEBF0FBECDBF7F
:1019D0008C01CB01BA01F8011182108213821282AC
:1019E00015821482168230E0AE014F5F5F4F0E9475
:1019F0000923BE016F5F7F4FC8010E94F60BA196BD
:101A00000FB6F894DEBF0FBECDBFDF91CF911F910F
:101A10000F910895EF92FF920F931F93CF93DF934F
:101A2000EC017B01672B41F480E0DF91CF911F91A6
:101A30000F91FF90EF90089541155105A1F00C8191
:101A40001D81040F151FB8010E941F0B882361F32D
:101A5000288139818C819D81B701820F931F0E945B
:101A60007B221D830C8381E0E0CFFB014481558103
:101A7000608171810C940A0D6115710551F0FB01B3
:101A800001900020E9F73197AF01461B570B0C94EA
:101A90000A0D80E00895CF93DF9300D0CDB7DEB775
:101AA00069831A8241E050E0BE016F5F7F4F0E9460
:101AB0000A0D0F900F90DF91CF910895EF92FF9252
:101AC0000F931F93CF93DF9300D000D0CDB7DEB735
:101AD0007C01862F4AE08E010F5F1F4FB80190E016
:101AE0000E94CF22F80101900020E9F73197AF0161
:101AF000401B510BB801C7010E940A0D0F900F90B7
:101B00000F900F90DF91CF911F910F91FF90EF9069
:101B10000895EF92FF920F931F93CF93DF9300D01E
:101B200000D000D00F92CDB7DEB77C01CB014AE0E8
:101B30008E010F5F1F4FB8010E94CF22F801019064
:101B40000020E9F73197AF01401B510BB801C701E5
:101B50000E940A0D27960FB6F894DEBF0FBECDBFC8
:101B6000DF91CF911F910F91FF90EF900895EF9229
:101B7000FF920F931F93CF93DF9300D000D000D03C
:101B8000CDB7DEB77C01CB014AE08E010F5F1F4F5E
:101B9000B8010E944123F80101900020E9F7319734
:101BA000AF01401B510BB801C7010E940A0D2696D8
:101BB0000FB6F894DEBF0FBECDBFDF91CF911F915E
:101BC0000F91FF90EF900895EF92FF920F931F9364
:101BD000CF93DF93CDB7DEB72C970FB6F894DEBF67
:101BE0000FBECDBF7C01CB01BA012AE08E010F5F91
:101BF0001F4FA8010E94E522F80101900020E9F79B
:101C00003197AF01401B510BB801C7010E940A0D6B
:101C10002C960FB6F894DEBF0FBECDBFDF91CF91EB
:101C20001F910F91FF90EF900895EF92FF920F9305
:101C30001F93CF93DF93CDB7DEB72B970FB6F894F2
:101C4000DEBF0FBECDBF7C01CB01BA012AE08E0101
:101C50000F5F1F4FA8010E941423F801019000207C
:101C6000E9F73197AF01401B510BB801C7010E9442
:101C70000A0D2B960FB6F894DEBF0FBECDBFDF91D5
:101C8000CF911F910F91FF90EF900895CF93DF9325
:101C9000EC01FB0144815581608171810E940A0D34
:101CA000811103C0CE010E94F30ACE01DF91CF91D2
:101CB0000895CF93DF93EC016115710539F4CE01DE
:101CC0000E94F30ACE01DF91CF910895FB010190AC
:101CD0000020E9F73197AF01461B570B0E940A0D10
:101CE000882369F3EFCFCF93DF93EC010E944B0D74
:101CF000811103C0CE010E94F30ACE01DF91CF9182
:101D00000895CF93DF93EC010E945E0D811103C013
:101D1000CE010E94F30ACE01DF91CF910895CF93B7
:101D2000DF93EC010E94890D811103C0CE010E9456
:101D3000F30ACE01DF91CF910895CF93DF93EC01A9
:101D40000E94B70D811103C0CE010E94F30ACE019B
:101D5000DF91CF910895CF93DF93EC010E94E40DC2
:101D6000811103C0CE010E94F30ACE01DF91CF9111
:101D70000895CF93DF93EC010E94150E811103C0EB
:101D8000CE010E94F30ACE01DF91CF910895CF9347
:101D9000DF93EC01A881B981EB01E881F98110970B
:101DA000F1F03097B1F4EC018C819D81892BC9F061
:101DB0008C9190E00BC0DB0114968D919C91892B46
:101DC00081F0808190E0919581959109DF91CF918B
:101DD0000895BF01CD01DF91CF910C94722230970D
:101DE00051F790E080E0F2CFFC0144815581FB0186
:101DF000248135814217530729F40E94C70E21E040
:101E0000892B09F020E0822F0895FC01248135817F
:101E1000232B31F421E0FB01672B49F4822F089535
:101E2000808191816115710539F421E0FC01808187
:101E30008823A1F320E0F2CF0E94722221E0892BB7
:101E400069F3F8CF0E94C70E892F881F8827881F43
:101E500008950E94C70E21E0181619060CF020E024
:101E6000822F08950E94C70E21E0181619060CF45F
:101E700020E0822F08950E94C70E892F8095881F29
:101E80008827881F0895CF92DF92EF92FF920F93D9
:101E90001F93CF93DF93FB018617970789F1DC012E
:101EA00014962D913C91159744815581241735073F
:101EB000D9F4232B29F100811181ED90FC90F701D9
:101EC00081917F018823E1F0082E000C990B0E947C
:101ED0003C226C01E8018991082E000C990B0E94AC
:101EE0003C22C816D90651F080E0DF91CF911F91B6
:101EF0000F91FF90EF90DF90CF9008958E01DFCF8C
:101F000081E0F3CFFA01DB0114964D915C91DC0185
:101F100014962D913C911597241B350B2E173F07D6
:101F200088F08D919C91009769F0DB016D917C9117
:101F30006115710539F08E0F9F1F0E94822221E0EA
:101F4000892B09F020E0822F0895FC0144815581FE
:101F5000FB01248135814217530720F050E040E017
:101F60000C94820F80E00895FC0124813581FB01EF
:101F70004481558124173507A0F0FC0180819181AF
:101F8000009779F0FB01608171816115710549F05D
:101F9000241B350B820F931F0E94722221E0892B94
:101FA00009F020E0822F0895FC0124813581621719
:101FB000730730F480819181860F971FFC01408365
:101FC0000895FC01248135816217730720F4808114
:101FD0009181009729F41092C70287EC92E008954E
:101FE000860F971F0895FC012481358162177307BE
:101FF00048F480819181009729F0860F971FFC019A
:102000008081089580E008950C94F30F0F931F933F
:10201000CF93DF938B014115510559F0611571057F
:1020200041F0FC01C481D5812C173D0738F0FB013C
:102030001082DF91CF911F910F9108954150510966
:10204000C21BD30B4C175D0708F4EA01FC01608149
:102050007181620F731FAE01C8010E949022C00FF0
:10206000D11F1882E6CFCF93DF93FC012481358105
:102070004217530788F4C081D181062E000C770BDC
:10208000CE01840F951F0E946722009729F08C1BB8
:102090009D0BDF91CF9108958FEF9FEFFACF50E026
:1020A00040E00C943310CF93DF93FC012481358101
:1020B0004217530788F4C081D181FB01608171818F
:1020C000CE01840F951F0E94AA22009729F08C1B35
:1020D0009D0BDF91CF9108958FEF9FEFFACF50E0E6
:1020E00040E00C945310DF92EF92FF920F931F93F6
:1020F000CF93DF938C01DC0114968D919C91159701
:102100004817590750F08FEF9FEFDF91CF911F9144
:102110000F91FF90EF90DF900895EA012196ED91E5
:10212000FC911197EC0FFD1FD0801082ED90FC9078
:10213000062E000C770BC7010E949F22CE0DDF1DDB
:10214000D882009701F3F80120813181821B930B23
:10215000DCCFFC0144815581415051090C9473102E
:10216000AF92BF92CF92DF92EF92FF920F931F93A5
:10217000CF93DF936B01EA01FB0144815581411547
:10218000510561F1FC01248135812115310531F1C1
:102190002417350718F1C217D30710F0E90121976A
:1021A000FC0100811181C801AA24AA94BB24BA941D
:1021B0007801EC0EFD1EE816F906A0F0F60160812C
:1021C00071810E94AA22009769F09C01201B310BAB
:1021D000C217D30708F059010196EDCFAA24AA949B
:1021E000BB24BA94C501DF91CF911F910F91FF904D
:1021F000EF90DF90CF90BF90AF900895FC014481A5
:102200005581FB0124813581421B530B0C94B01086
:10221000AF92BF92CF92DF92EF92FF920F931F93F4
:10222000CF93DF935C016B017A0189012417350795
:1022300020F48F2D7901042F182F6FE371E0C50171
:102240000E945D0BD6011496CD91DC91CE15DF0571
:10225000C8F00C171D0708F4E801D601ED91FC91B8
:102260001197EC0FFD1F108110826D917C916E0D06
:102270007F1DC5010E94F60BF60180819181C80F78
:10228000D91F1883C501DF91CF911F910F91FF9046
:10229000EF90DF90CF90BF90AF900895CF93DF93F2
:1022A000EC01FB01248135810E940811CE01DF91F0
:1022B000CF910895DC01ED91FC91309749F0819127
:1022C000882331F08613FBCFDF0111974C93F7CFB2
:1022D00008952F923F924F925F926F927F928F92CA
:1022E0009F92AF92BF92CF92DF92EF92FF920F93A5
:1022F0001F93CF93DF938C015B017A01FC01448033
:1023000055804114510409F4CCC0FB0164807580F0
:102310006114710409F4C5C0FA01C480D580C618DF
:10232000D708FC01C081D181C114D104B9F4F501F1
:1023300060817181CE010E94AA22EC01009709F40C
:10234000B0C0F70160817181448155810E944C22A7
:10235000F70184819581C80FD91FE9CFD7FC11C03F
:10236000FB01208031804201B101CE010E94AA22EE
:10237000009709F44AC0EC01C60DD71D8C0C9D1CBA
:10238000F3CF3E01F50160817181CE010E94AA2246
:102390002C01009721F14C018C1A9D0AA401BE0169
:1023A000C3010E944C22680C791CF7016081718185
:1023B00044815581C3010E944C22F701848095809D
:1023C000680C791CF501C481D581C40DD51DF801B7
:1023D000848195818C0D9D1D95838483D3CFBE010F
:1023E000C301DF91CF911F910F91FF90EF90DF908C
:1023F000CF90BF90AF909F908F907F906F905F90A5
:102400004F903F902F900C947B224814590409F46C
:1024100048C0F8018281938188159905E0F1F8019F
:10242000448155814150510957FD3BC0B501C80158
:102430000E94B010EC0197FD34C0F5012481358174
:10244000280F391FF80180819181820F931F4481E9
:102450005581421B530BBC018C0D9D1D0E945522C2
:10246000F801848195818C0D9D1D95838483208145
:102470003181820F931FFC011082F80180819181CC
:10248000F70160817181448155818C0F9D1F0E94ED
:102490004C22AE01C7CFB401C8010E94050B8111C7
:1024A000BECFDF91CF911F910F91FF90EF90DF9002
:1024B000CF90BF90AF909F908F907F906F905F90E4
:1024C0004F903F902F900895CF93DF93FC01C081F0
:1024D000D181209761F08991882349F0082E000C62
:1024E000990B0E943C22FE0131978083F4CFDF914B
:1024F000CF910895CF93DF93FC01C081D1812097C4
:1025000061F08991882349F0082E000C990B0E94F4
:102510004422FE0131978083F4CFDF91CF9108955B
:10252000AF92BF92CF92DF92EF92FF920F931F93E1
:10253000CF93DF938C01DC01ED90FC901197E114B7
:10254000F104E1F11496CD91DC912097B9F1570196
:102550006501F50181915F01082E000C990B0E9425
:102560003322892BA9F72197CE0DDF1D8881082EF4
:10257000000C990B0E943322892B29F0CC15DD0524
:1025800010F02197F3CFAE014F5F5F4F4C195D09FB
:10259000D80115965C934E931497EC14FD0420F427
:1025A000B601C7010E944C22D801ED91FC91119710
:1025B00014968D919C91E80FF91F1082DF91CF91B5
:1025C0001F910F91FF90EF90DF90CF90BF90AF9051
:1025D0000895FC0180819181009711F00C94CB212A
:1025E00060E070E0CB0108950C94D41F0C94D41FCC
:1025F0000C9469200C946920FC0181E090E020811A
:10260000222311F090E080E0089521E0FC01208376
:102610000895089508950895FB0181309105A1F171
:1026200082309105B9F48081481760F5818148179F
:1026300048F18281481730F18381481718F184816D
:10264000481700F185814817E8F081E09681491725
:10265000C8F00895892B79F58081481798F0818119
:10266000481780F08281481768F08381481750F03E
:102670008481481738F08581481720F081E09681E1
:10268000491738F780E0089580814817D8F3818191
:102690004817C0F382814817A8F38381481790F345
:1026A0008481481778F38581481760F381E096812B
:1026B000491740F708952F923F924F925F926F9281
:1026C0007F928F929F92AF92BF92CF92DF92EF92C2
:1026D000FF920F931F93CF93DF93D1E01FEF0AE593
:1026E00022242A94312C88ED92E00E94551968EC3E
:1026F00072E088ED92E00E94041AA091D802B0E046
:1027000020E83FEF4FEF5FEF0E94801D6B017C01DF
:10271000A091D902B0E02AEA3FEF4FEF5FEF0E94AD
:10272000801DC60ED71EE81EF91EA091DA02B0E089
:1027300024ED3FEF4FEF5FEF0E94801DC60ED71EC6
:10274000E81EF91E8091DB0290E0B0E0A0E020E0FE
:1027500030E0A901281B390B4A0B5B0BCA01B901F8
:10276000660F771F881F991F6C0D7D1D8E1D9F1D85
:10277000C090DC028C2C912CB12CA12C7501640131
:10278000CC0CDD1CEE1CFF1CCC0CDD1CEE1CFF1C5D
:10279000C80CD91CEA1CFB1CCC0CDD1CEE1CFF1C5D
:1027A000CC0CDD1CEE1CFF1CCC0CDD1CEE1CFF1C3D
:1027B000C60ED71EE81EF91E2091DD0230E0A2E50C
:1027C000B0E00E94711DC60ED71EE81EF91E2091B2
:1027D000DE0230E0ACE7B0E00E94711DC60ED71EED
:1027E000E81EF91EC701B60120E037E040E050E0E6
:1027F0000E94521DC22F8091E0029091E102A091AF
:10280000E202B091E30249015A01881A990AAA0A20
:10281000BB0A61E071E0C71679EFD7067FEFE706E4
:10282000F7060CF060E08827B7FD83959927AA2763
:10283000BB2769017A0168130CC0C090E402D090F4
:10284000E502E090E602F090E702C20ED31EE41E1D
:10285000F51E2093E0023093E1024093E202509390
:10286000E302C092E402D092E502E092E602F09226
:10287000E702622F220F770B880B990B0E94AD1E87
:102880002DEC3CEC4CE45EE30E94621F2B013C010A
:10289000C701B6010E94AD1E2DEC3CEC4CEC5DE393
:1028A0000E94621F9B01AC01C301B2010E94921DF4
:1028B0006B017C01C501B4010E94AD1E9B01AC01FE
:1028C000C701B6010E94911D6B017C0120E030E040
:1028D00040E053EC0E94FE1D87FDF0C020E030E098
:1028E0004EEF52E4C701B6010E945D1F18160CF4AA
:1028F000E5C0C701B6010E94751EC7FDE9C06B3572
:1029000008F06AE5CAE5C60FC095B02EB61AB094B5
:1029100080911201813029F118BD30928B002092F4
:102920008A00C0900E01D0900F01E0901001F0904D
:10293000110102C06C017D0161E070E080E090E077
:102940000E94800180910E0190910F01A0911001D1
:10295000B09111018C159D05AE05BF0559F7D093B7
:102960001201B8BC80910D01813029F117BD309260
:10297000890020928800C0900901D0900A01E0905F
:102980000B01F0900C0102C06C017D0161E070E070
:1029900080E090E00E9480018091090190910A01FD
:1029A000A0910B01B0910C018C159D05AE05BF05E2
:1029B00059F7D0930D01C7BD8091D8028F3108F02F
:1029C00092CE8091D9028F3108F08DCE8091DA02BB
:1029D0008F3108F088CE8091DB028F3108F083CEF2
:1029E0008091DC028F3108F07ECE8091DD028F3144
:1029F00008F079CE8091DE028F3108F474CE8FEF2B
:102A000088BD8FEF90E090938B0080938A00C090F8
:102A10000E01D0900F01E0901001F090110102C062
:102A20006C017D0161E070E080E090E00E94800137
:102A300080910E0190910F01A0911001B0911101B0
:102A40008C159D05AE05BF0559F78FEF87BD8FEF3C
:102A500090E09093890080938800C0900901D09005
:102A60000A01E0900B01F0900C0102C06C017D01A5
:102A700061E070E080E090E00E94800180910901B7
:102A800090910A01A0910B01B0910C018C159D054C
:102A9000AE05BF0559F7DF91CF911F910F91FF90C0
:102AA000EF90DF90CF90BF90AF909F908F907F90EE
:102AB0006F905F904F903F902F900895C7FD04C096
:102AC000BB24BA94CBE424CF8BE4B82ECFEF20CF35
:102AD00061956B3538F4C02FC61BC095665AB62E6B
:102AE000B09416CF6AE5C02FC61BC095665AB62EA5
:102AF000B0940ECF4F925F926F927F928F929F927F
:102B0000AF92BF92CF92DF92EF92FF921F93CF933B
:102B1000DF9340900E0150900F0160901001709073
:102B200011014C01B12CA12C480C591C6A1C7B1CB6
:102B30008091090190910A01A0910B01B0910C01C3
:102B4000880E991EAA1EBB1E80911201813049F188
:102B50008FEF88BD8FEF90E090938B0080938A0079
:102B6000C0900E01D0900F01E0901001F090110183
:102B700002C06C017D0161E070E080E090E00E94A5
:102B8000800180910E0190910F01A0911001B091F0
:102B900011018C159D05AE05BF0559F781E08093A5
:102BA000120185EA88BD80910D01813049F18FEFD6
:102BB00087BD8FEF90E09093890080938800C0904C
:102BC0000901D0900A01E0900B01F0900C0102C0C5
:102BD0006C017D0161E070E080E090E00E94800186
:102BE0008091090190910A01A0910B01B0910C0113
:102BF0008C159D05AE05BF0559F781E080930D0149
:102C000085EA87BD1FEFCFEFD0E080910E01909154
:102C10000F01A0911001B091110184159505A60531
:102C2000B7050CF466C018BDD0938B00C0938A0022
:102C3000C0900E01D0900F01E0901001F0901101B2
:102C400002C06C017D0161E070E080E090E00E94D4
:102C5000800180910E0190910F01A0911001B0911F
:102C600011018C159D05AE05BF0559F7809109012D
:102C700090910A01A0910B01B0910C018815990562
:102C8000AA05BB0514F28FEF87BD8FEF90E09093FC
:102C9000890080938800C0900901D0900A01E090DB
:102CA0000B01F0900C0102C06C017D0161E070E04D
:102CB00080E090E00E9480018091090190910A01DA
:102CC000A0910B01B0910C018C159D05AE05BF05BF
:102CD00059F7DF91CF911F91FF90EF90DF90CF9048
:102CE000BF90AF909F908F907F906F905F904F902C
:102CF00008958091090190910A01A0910B01B09172
:102D00000C0188159905AA05BB050CF47ECF17BDEB
:102D1000D0938900C0938800C0900901D0900A0127
:102D2000E0900B01F0900C0102C06C017D0161E0AC
:102D300070E080E090E00E94800180910901909114
:102D40000A01A0910B01B0910C018C159D05AE05F7
:102D5000BF0559F75ACF40E052EC61E070E08DE1D9
:102D600092E00E94F4036BE171E08DE192E00E9439
:102D70001D068DE192E00E94F4024FEF5FEF6FEFCE
:102D80007FE78DE192E00E94DE0862E088E00E9429
:102D9000140261E08DE00E94140260E08EE00E9467
:102DA00014020E943E19559A229A4FEF48BD2FEF08
:102DB00030E030938B0020938A0084B5806284BD1C
:102DC000E0E8F0E080818062808391E090931201DE
:102DD000569A219A47BD309389002093880084B584
:102DE000806884BD80818068808390930D010E94FB
:102DF0004A1C60E08EE00E94140260E08FE00E94B6
:102E000014026BE271E08DE192E00E941D068DE1FB
:102E100092E00C94F4020E94B0010E94AB1668E0AC
:102E200070E088EC92E00E947C1A1FEFCFEFD0E0B8
:102E3000BB24B39405EAC0900E01D0900F01E0903E
:102E40001001F090110188E2C80ED11CE11CF11CA8
:102E500080911201813029F118BDD0938B00C0936D
:102E60008A0040900E0150900F0160901001709008
:102E7000110102C02C013D0161E070E080E090E0B2
:102E80000E94800180910E0190910F01A09110018C
:102E9000B091110184159505A605B70559F7B092B3
:102EA000120108BD80910E0190910F01A0911001B7
:102EB000B09111018C159D05AE05BF050CF05AC0EF
:102EC00040910E0150910F0160911001709111011C
:102ED0002AE030E08DE192E00E94AF0660E28DE1F1
:102EE00092E00E94D4058FE00E948F004AE050E0FB
:102EF000BC018DE192E00E94F90660E28DE192E072
:102F00000E94D4054091090150910A0160910B0182
:102F100070910C012AE030E08DE192E00E94AF0652
:102F200060E28DE192E00E94D4058EE00E948F0065
:102F30004AE050E0BC018DE192E00E94F90660E2B7
:102F40008DE192E00E94D4052AE030E0B701A601AD
:102F50008DE192E00E94120780910E0190910F0185
:102F6000A0911001B09111018C159D05AE05BF0512
:102F70000CF4A6CF18BDD0938B00C0938A00C090EC
:102F80000E01D0900F01E0901001F090110102C0ED
:102F90006C017D0161E070E080E090E00E948001C2
:102FA00080910E0190910F01A0911001B09111013B
:102FB0008C159D05AE05BF0559F7C0900901D0904D
:102FC0000A01E0900B01F0900C0188E2C80ED11CC0
:102FD000E11CF11C80910D01813029F117BDD093C6
:102FE0008900C09388004090090150900A016090C8
:102FF0000B0170900C0102C02C013D0161E070E0FA
:1030000080E090E00E9480018091090190910A0186
:10301000A0910B01B0910C0184159505A605B7058B
:1030200059F7B0920D0107BD8091090190910A01F5
:10303000A0910B01B0910C018C159D05AE05BF054B
:103040000CF05AC040910E0150910F016091100197
:10305000709111012AE030E08DE192E00E94AF060C
:1030600060E28DE192E00E94D4058FE00E948F0023
:103070004AE050E0BC018DE192E00E94F90660E276
:103080008DE192E00E94D4054091090150910A011E
:1030900060910B0170910C012AE030E08DE192E02B
:1030A0000E94AF0660E28DE192E00E94D4058EE0BE
:1030B0000E948F004AE050E0BC018DE192E00E9446
:1030C000F90660E28DE192E00E94D4052AE030E04A
:1030D000B701A6018DE192E00E94120780910901DB
:1030E00090910A01A0910B01B0910C018C159D05E6
:1030F000AE05BF050CF4A6CF17BDD0938900C093D1
:103100008800C0900901D0900A01E0900B01F09076
:103110000C0102C06C017D0161E070E080E090E094
:103120000E9480018091090190910A01A0910B01F8
:10313000B0910C018C159D05AE05BF0559F77BCEEE
:10314000E22FF32F4DBF5EBF099521E040910701AB
:10315000509108014817590711F0822F089520E077
:10316000822F0895FC018091070190910801E817D2
:10317000F90711F080E0089581E020813181232B4F
:10318000C9F30895FC0180819181892B11F080E0C1
:10319000089581E0E85EF240D1F30895CF93DF9384
:1031A000CDB7DEB76B970FB6F894DEBF0FBECDBFBD
:1031B0009B8F8A8F2091070130910801398F288FCA
:1031C00028173907C9F0F901CE0101969183808350
:1031D0000E94F221892B09F43FC0288D398D30934C
:1031E0000801209307016B960FB6F894DEBF0FBE5F
:1031F000CDBFDF91CF91089560E371E08DE192E062
:103200000E94D20569E371E08DE192E00E94D2054F
:103210002AE030E04EE250E060E070E08DE192E0C4
:103220000E94120760E471E08DE192E00E94D205F5
:103230006DE471E08DE192E00E94D20568EB71E0EF
:103240008DE192E00E941D061A82198289819A817D
:1032500001969A838983FACF61E070E0EA8DFB8D55
:10326000808191810E9412222091070130910801F2
:103270002817390711F00C94CE18089561E082E107
:103280000E94500261E083E10E945002E9EBF0E00D
:1032900080818E7F808380818D7F80838CE080938E
:1032A000B80085E48093BC000895CF93DF9300D0ED
:1032B000CDB7DEB7DC0184EA8093BC009091BC00FE
:1032C00097FFFCCF9091B900987F903159F09833D7
:1032D00009F46AC08FEF983029F00F900F90DF91BA
:1032E000CF91089583E18093BB0084E88093BC0074
:1032F0009091BC0097FFFCCF8091B900887F883304
:1033000009F44FC0803409F043C0FD019D01295FDD
:103310003F4F84EC8093BC009091BC0097FFFCCFA2
:103320009091B900987F903599F59091BB00919359
:103330008093BC009091BC0097FFFCCF9091B900A6
:10334000987F903529F59091BB00E217F30711F7AC
:1033500084EC8093BC009091BC0097FFFCCF8091DF
:10336000B900887F8035A1F48091BB0017968C93BB
:1033700084E88093BC008091BC0087FFFCCF8091E3
:10338000B900887F883521F48091BB0080E001C0BE
:103390008FEF94E99093BC000F900F90DF91CF9145
:1033A000089584E98093BC0062EC71E08DE192E0C5
:1033B0000E94D20569E371E08DE192E00E94D2059E
:1033C0002AE030E040ED50E060E070E08DE192E016
:1033D0000E94120760E471E08DE192E00E94D20544
:1033E00068ED71E08DE192E00E94D20568EB71E03A
:1033F0008DE192E00E941D061A82198289819A81CC
:1034000001969A838983FACFCF93DF93FC01EB0176
:1034100040818881481B550B2FEF249FC001259FB9
:10342000900D1124698170E00E941C1D6083418110
:103430008A81481B550B249FC001259F900D1124A4
:103440006B8170E00E941C1D618342818C81481B4E
:10345000550B249FC001259F900D11246D8170E0B4
:103460000E941C1D628343818E81481B550B249F43
:10347000C001259F900D11246F8170E00E941C1DDA
:10348000638344818885481B550B249FC001259F79
:10349000900D1124698570E00E941C1D6483458194
:1034A0008A85481B550B249FC001259F900D112430
:1034B0006B8570E00E941C1D658346818C85481BCE
:1034C000550B249FC001259F900D11246D8570E040
:1034D0000E941C1D668347818E85481B550B249FC7
:1034E000C001259F900D11246F8570E00E941C1D66
:1034F0006783DF91CF9108955F926F927F928F9251
:103500009F92AF92BF92CF92DF92EF92FF920F9372
:103510001F93CF93DF93CDB7DEB76A970FB6F894BA
:10352000DEBF0FBECDBF8C01A62E61E08DE00E94F4
:10353000140261E08DE00E9450028A2D0E947E02FA
:103540000197D9F360E08DE00E94500288E0E3E14A
:10355000F1E0DE01519601900D928A95E1F7FE01AE
:10356000399688E0DF011D928A95E9F768EE73E0ED
:1035700080E090E00E94800188E0882EFE01319674
:103580007F0194EA992E23E1522E34E8732E44E908
:10359000642E6E01F8E0CF0ED11C54ECB52E8A2DAE
:1035A0000E947E02019709F066C0D701E82D1D92A6
:1035B000EA95E9F79092BC008091BC0087FFFCCFB0
:1035C0008091B900887F803109F4B4C0883309F450
:1035D00031C1883009F4AEC089819989891708F40E
:1035E000FAC09985981708F489878A819A8989177A
:1035F00008F4F7C09A85981708F48A878B819B890D
:10360000891708F4F4C09B85981708F48B878C8180
:103610009C89891708F4F1C09C85981708F48C8759
:103620008D819D89891708F4EEC09D85981708F44F
:103630008D878E819E89891708F4EBC09E85981727
:1036400008F48E878F819F89891708F4E8C09F85C9
:10365000981708F48F878885988D891708F4E5C036
:103660009889981708F09BCF888B8A2D0E947E023C
:10367000019709F49ACF89859989891BD8019C9370
:1036800011968C9311978A859A89891B12969C931F
:10369000129713968C9313978B859B89891B14968D
:1036A0009C93149715968C9315978C859C89891BF0
:1036B00016969C93169717968C9317978D859D89D0
:1036C000891B18969C93189719968C9319978E8539
:1036D0009E89891B1A969C931A971B968C931B970D
:1036E0008F859F89891B1C969C931C971D968C9394
:1036F0001D978889988D891B1E969C931E971F96EF
:103700008C9361E08DE06A960FB6F894DEBF0FBE31
:10371000CDBFDF91CF911F910F91FF90EF90DF9080
:10372000CF90BF90AF909F908F907F906F905F9061
:103730000C9450025092BB007092BC008091BC006F
:1037400087FFFCCF8091B900887F883309F46FC070
:103750008034D1F5F701B092BC008091BC0087FFA6
:10376000FCCF8091B900887F803571F58091BB00D6
:103770008193B092BC008091BC0087FFFCCF809108
:10378000B900887F803501F58091BB00CE16DF0639
:1037900011F7B092BC008091BC0087FFFCCF8091F4
:1037A000B900887F803581F48091BB008887709252
:1037B000BC008091BC0087FFFCCF8091B900887F5E
:1037C000883511F48091BB006092BC008981998991
:1037D000891708F006CF898B8A819A89891708F0A2
:1037E00009CF8A8B8B819B89891708F00CCF8B8B33
:1037F0008C819C89891708F00FCF8C8B8D819D89D6
:10380000891708F012CF8D8B8E819E89891708F059
:1038100015CF8E8B8F819F89891708F018CF8F8BDA
:103820008885988D891708F01BCF888FB8CE84E9DA
:103830008093BC0062EC71E08DE192E00E94D205C1
:1038400069E371E08DE192E00E94D2052AE030E068
:1038500040ED50E060E070E08DE192E00E941207E0
:1038600060E471E08DE192E00E94D20568ED71E0C4
:103870008DE192E00E94D20568EB71E08DE192E06B
:103880000E941D061A8E198E898D9A8D01969A8F27
:10389000898FFACF8DB31DBA52985A9853985B9876
:1038A00085E08093690083E08DBB08951F921FB669
:1038B0001F9211248F939F93AF93BF938091120116
:1038C0008823D9F080910E0190910F01A0911001F1
:1038D000B09111010196A11DB11D80930E0190932D
:1038E0000F01A0931001B0931101BF91AF919F916F
:1038F0008F911F901FBE1F90189580910E0190917F
:103900000F01A0911001B09111010197A109B10916
:1039100080930E0190930F01A0931001B0931101B9
:10392000E4CF1F921FB61F9211248F939F93AF93E2
:10393000BF9380910D018823D9F080910901909166
:103940000A01A0910B01B0910C010196A11DB11DBE
:103950008093090190930A01A0930B01B0930C018D
:10396000BF91AF919F918F911F901FBE1F9018958F
:103970008091090190910A01A0910B01B0910C0175
:103980000197A109B1098093090190930A01A093BD
:103990000B01B0930C01E4CFEDE1F2E0138212824F
:1039A00088EE93E0A0E0B0E084839583A683B7839C
:1039B00084EF91E09183808383E892E09587848708
:1039C0008FE392E09787868785EC90E0918B808BE0
:1039D00084EC90E0938B828B80EC90E0958B848BD1
:1039E00081EC90E0978B868B82EC90E0918F808FBA
:1039F00086EC90E0938F828F84E0848F83E0858FC4
:103A000087E0868F85E0878F81E080A30895611528
:103A1000710579F0FB0101900020E9F73197AF01C2
:103A2000461B570BDC01ED91FC910280F381E02DE8
:103A3000099490E080E00895AA1BBB1B51E107C0E8
:103A4000AA1FBB1FA617B70710F0A61BB70B881F2E
:103A5000991F5A95A9F780959095BC01CD010895BD
:103A6000A1E21A2EAA1BBB1BFD010DC0AA1FBB1F82
:103A7000EE1FFF1FA217B307E407F50720F0A21BF4
:103A8000B30BE40BF50B661F771F881F991F1A9461
:103A900069F760957095809590959B01AC01BD018B
:103AA000CF010895052E97FB1EF400940E94691D16
:103AB00057FD07D00E94301D07FC03D04EF40C9434
:103AC000691D50954095309521953F4F4F4F5F4F61
:103AD000089590958095709561957F4F8F4F9F4F7A
:103AE0000895A29FB001B39FC001A39F700D811DD7
:103AF0001124911DB29F700D811D1124911D0895F7
:103B00000E94711DA59F900DB49F900DA49F800DE4
:103B1000911D11240895EE0FFF1F0590F491E02DE3
:103B200009945058BB27AA270E94A91D0C94231F53
:103B30000E94151F38F00E941C1F20F039F49F3F8F
:103B400019F426F40C94121F0EF4E095E7FB0C9484
:103B50000C1FE92F0E94341F58F3BA17620773072E
:103B60008407950720F079F4A6F50C94561F0EF4FF
:103B7000E0950B2EBA2FA02D0B01B90190010C017D
:103B8000CA01A0011124FF27591B99F0593F50F495
:103B9000503E68F11A16F040A22F232F342F4427ED
:103BA000585FF3CF469537952795A795F0405395E5
:103BB000C9F77EF41F16BA0B620B730B840BBAF0B5
:103BC0009150A1F0FF0FBB1F661F771F881FC2F720
:103BD0000EC0BA0F621F731F841F48F48795779534
:103BE0006795B795F7959E3F08F0B0CF9395880FEE
:103BF00008F09927EE0F9795879508950E94E81E83
:103C000008F481E008950E94171E0C94231F0E945F
:103C10001C1F58F00E94151F40F029F45F3F29F047
:103C20000C940C1F51110C94571F0C94121F0E94DE
:103C3000341F68F39923B1F3552391F3951B550B6A
:103C4000BB27AA2762177307840738F09F5F5F4F6F
:103C5000220F331F441FAA1FA9F335D00E2E3AF0AE
:103C6000E0E832D091505040E695001CCAF72BD0C6
:103C7000FE2F29D0660F771F881FBB1F2617370717
:103C80004807AB07B0E809F0BB0B802DBF01FF2749
:103C900093585F4F3AF09E3F510578F00C940C1FFB
:103CA0000C94571F5F3FE4F3983ED4F386957795C5
:103CB0006795B795F7959F5FC9F7880F911D969502
:103CC000879597F90895E1E0660F771F881FBB1F5E
:103CD000621773078407BA0720F0621B730B840B0B
:103CE000BA0BEE1F88F7E09508950E947C1E689439
:103CF000B1110C94571F08950E943C1F88F09F57E4
:103D000098F0B92F9927B751B0F0E1F0660F771FFF
:103D1000881F991F1AF0BA95C9F714C0B13091F0F5
:103D20000E94561FB1E008950C94561F672F782FFC
:103D30008827B85F39F0B93FCCF3869577956795BA
:103D4000B395D9F73EF490958095709561957F4F26
:103D50008F4F9F4F0895E89409C097FB3EF49095CC
:103D60008095709561957F4F8F4F9F4F9923A9F054
:103D7000F92F96E9BB279395F695879577956795E3
:103D8000B795F111F8CFFAF4BB0F11F460FF1BC027
:103D90006F5F7F4F8F4F9F4F16C0882311F096E9BA
:103DA00011C0772321F09EE8872F762F05C0662368
:103DB00071F096E8862F70E060E02AF09A95660F21
:103DC000771F881FDAF7880F9695879597F90895DA
:103DD000990F0008550FAA0BE0E8FEEF161617061C
:103DE000E807F907C0F012161306E407F50798F084
:103DF000621B730B840B950B39F40A2661F0232B9D
:103E0000242B252B21F408950A2609F4A140A69518
:103E10008FEF811D811D089597F99F6780E870E0FD
:103E200060E008959FEF80EC089500240A94161630
:103E3000170618060906089500240A941216130698
:103E4000140605060895092E0394000C11F4882326
:103E500052F0BB0F40F4BF2B11F460FF04C06F5F42
:103E60007F4F8F4F9F4F089557FD9058440F551F18
:103E700059F05F3F71F04795880F97FB991F61F0EC
:103E80009F3F79F087950895121613061406551F63
:103E9000F2CF4695F1DF08C0161617061806991FCF
:103EA000F1CF86957105610508940895E894BB27C4
:103EB00066277727CB0197F908950E94E81E08F43A
:103EC0008FEF08950E94751F0C94231F0E94151FE9
:103ED00038F00E941C1F20F0952311F00C940C1F49
:103EE0000C94121F11240C94571F0E94341F70F35E
:103EF000959FC1F3950F50E0551F629FF001729F8F
:103F0000BB27F00DB11D639FAA27F00DB11DAA1F9D
:103F1000649F6627B00DA11D661F829F2227B00DEA
:103F2000A11D621F739FB00DA11D621F839FA00D75
:103F3000611D221F749F3327A00D611D231F849FC5
:103F4000600D211D822F762F6A2F11249F5750401C
:103F50009AF0F1F088234AF0EE0FFF1FBB1F661F97
:103F6000771F881F91505040A9F79E3F510580F060
:103F70000C940C1F0C94571F5F3FE4F3983ED4F34E
:103F8000869577956795B795F795E7959F5FC1F704
:103F9000FE2B880F911D9695879597F908950E949D
:103FA000E81E880B990B0895CF93DF93823091051B
:103FB00010F482E090E0E091F002F091F10220E054
:103FC00030E0C0E0D0E0309711F1408151814817D6
:103FD0005907C0F04817590761F4828193812097EF
:103FE00019F09B838A832BC09093F1028093F00297
:103FF00026C02115310519F04217530718F49A010C
:10400000BE01DF01EF010280F381E02DDCCF21153D
:10401000310509F1281B390B2430310590F4129633
:104020008D919C9113976115710521F0FB0193838C
:10403000828304C09093F1028093F002FD013296D6
:1040400044C0FD01E20FF31F819391932250310987
:104050002D933C933AC02091EE023091EF02232B36
:1040600041F420910301309104013093EF02209339
:10407000EE0220910101309102012115310541F438
:104080002DB73EB74091050150910601241B350B19
:10409000E091EE02F091EF02E217F307A0F42E1B7D
:1040A0003F0B2817390778F0AC014E5F5F4F24179C
:1040B000350748F04E0F5F1F5093EF024093EE021A
:1040C0008193919302C0E0E0F0E0CF01DF91CF91C6
:1040D00008950F931F93CF93DF93009709F48CC03B
:1040E000FC013297138212820091F0021091F102CA
:1040F0000115110581F420813181820F931F2091D8
:10410000EE023091EF022817390779F5F093EF02AC
:10411000E093EE0271C0D80140E050E0AE17BF0757
:1041200050F412962D913C911397AD012115310554
:1041300009F1D901F3CF9D01DA0133832283608134
:104140007181860F971F8217930769F4EC0128810C
:104150003981260F371F2E5F3F4F318320838A819D
:104160009B8193838283452B29F4F093F102E093A2
:10417000F00242C01396FC93EE931297ED01499121
:1041800059919E01240F351FE217F30771F48081C6
:104190009181840F951F029611969C938E93828134
:1041A000938113969C938E931297E0E0F0E0D801F0
:1041B00012968D919C911397009719F0F8018C013C
:1041C000F6CF8D919C9198012E5F3F4F820F931FE8
:1041D0002091EE023091EF022817390769F43097E9
:1041E00029F41092F1021092F00202C0138212829E
:1041F0001093EF020093EE02DF91CF911F910F9188
:104200000895A0E0B0E0E7E0F1E20C947223EC0145
:10421000009721F4CB010E94D41FB8C0FC01E60F27
:10422000F71F9C0122503109E217F30708F4ACC0D4
:10423000D9010D911C91119706171707B0F00530A1
:10424000110508F49FC0C80104978617970708F462
:1042500099C002501109061B170B019311936D931E
:104260007C93CF010E9469208DC05B01A01AB10A26
:104270004C01800E911EA091F002B091F10240E03D
:1042800050E0E12CF12C109709F44AC0A815B905AB
:10429000D1F56D907C901197630182E0C80ED11C1E
:1042A000CA14DB0480F1A3014A195B096A0182E0A8
:1042B000C80ED11C1296BC9012971396AC91B5E023
:1042C000CB16D10440F0B282A38351834083D9013D
:1042D0006D937C930AC00E5F1F4FC301800F911F27
:1042E000F90191838083EB2DFA2FE114F10431F071
:1042F000D7011396FC93EE93129744C0F093F1020A
:10430000E093F0023FC08D919C9111974817590797
:1043100008F4AC017D0112960D90BC91A02DB3CF95
:104320008091EE029091EF0288159905E1F446170D
:104330005707C8F48091010190910201009741F460
:104340008DB79EB74091050150910601841B950BD6
:10435000E817F907C8F4F093EF02E093EE02F901D1
:10436000718360830FC0CB010E94D41F7C01009732
:1043700059F0A801BE010E944C22CE010E94692082
:10438000C70104C0CE0102C080E090E0CDB7DEB727
:10439000EEE00C948E231F93FC0199278827BC0123
:1043A000E89411911032E9F3193010F01E30C8F37F
:1043B0001B3251F01D3249F4689406C00E94F42269
:1043C000610F711D811D911D119110531A30B0F3B1
:1043D0003EF490958095709561957F4F8F4F9F4FDC
:1043E0001F910895DC012D923D924D925D926D9248
:1043F0007D928D929D92AD92BD92CD92DD92ED9285
:10440000FD920D931D93CD93DD93FF91EF918DB7A9
:104410008D938EB78D938FB78D93ED93FD938827F2
:1044200099270994DC01CB0181309105811D2D90E4
:104430003D904D905D906D907D908D909D90AD9054
:10444000BD90CD90DD90ED90FD900D911D91CD91A1
:10445000DD91ED91FD910D90F894FEBF0FBEEDBF83
:10446000ED91FD91099491110C945B23803219F028
:1044700089508550C8F708959111089581548A5143
:1044800008F4805E855A08959111089581568A51E5
:1044900008F4805285580895FB01DC0102C00190A8
:1044A0000D9241505040D8F708956817790768F485
:1044B000FB01DC01E40FF51FA40FB51F02C0029041
:1044C0000E9241505040D8F708950C944C22FC01B4
:1044D0008191861721F08823D9F79927089531977C
:1044E000CF010895FB01DC018D910190801901102D
:1044F000D9F3990B0895FB01DC0101900D92002086
:10450000E1F70895FB01DC014150504030F08D91FE
:104510000190801919F40020B9F7881B990B0895B0
:10452000FB01DC014150504048F001900D92002009
:10453000C9F701C01D9241505040E0F70895FC01B9
:1045400081E090E00190061609F4CF010020D1F738
:1045500001970895FB0151915523A9F0BF01DC019A
:104560004D9145174111E1F759F4CD01019000201B
:1045700049F04D9140154111C9F3FB014111EFCFB5
:1045800081E090E0019708954532510520F44230D2
:1045900010F00C94CF22FB011082CB010895BB27B1
:1045A0004A3031F4992322F4BDE2909581959F4FD2
:1045B0000C9442232532310520F4223010F00C9463
:1045C000E522FA011082CA010895BB272A3051F46E
:1045D000992342F4BDE290958095709561957F4F47
:1045E0008F4F9F4F0C941523592F482F372F262F6D
:1045F000660F771F881F991F660F771F881F991FE7
:10460000620F731F841F951F660F771F881F991FE6
:1046100008952532310520F4223010F00C94142333
:10462000FA011082CA010895BB27FA01A62F62176A
:10463000710581059105330B30FB66F0AA27660FE3
:10464000771F881F991FAA1FA21710F0A21B63953E
:104650003850A9F7A05DAA3308F0A95DA19336F7F9
:10466000B111B1931082CA010C945E2345325105F9
:1046700020F4423010F00C944123FB011082CB0156
:104680000895BB27FB015527AA27880F991FAA1F4A
:10469000A41710F0A41B83955051B9F7A05DAA335D
:1046A00008F0A95DA193009779F7B111B193119228
:1046B000CB010C945E23992788270895DC01FC0127
:1046C000672F71917723E1F7329704C07C916D9346
:1046D00070836291AE17BF07C8F308952F923F927F
:1046E0004F925F926F927F928F929F92AF92BF9202
:1046F000CF92DF92EF92FF920F931F93CF93DF93AE
:10470000CDB7DEB7CA1BDB0B0FB6F894DEBF0FBE0A
:10471000CDBF09942A88398848885F846E847D8457
:104720008C849B84AA84B984C884DF80EE80FD8059
:104730000C811B81AA81B981CE0FD11D0FB6F894CF
:0E474000DEBF0FBECDBFED010895F894FFCF90
:10474E00010000F2022000E802000000000100005B
:10475E00000001FFFFFFFFFFFFFFFF496E69746955
:10476E00616C697A696E672E2E2E00446F6E65003D
:10477E00636F726F2E63707000206C696E6520001F
:10478E00417373657274696F6E3A202200436F72C3
:10479E006F7574696E653A3A63757272656E746C94
:1047AE00795F72756E6E696E6720213D2026636F8C
:1047BE00726F202626202243616E6E6F7420636115
:1047CE006C6C207969656C645F666173745F746F7D
:1047DE002829206F6E207468652063757272656E6D
:1047EE00746C792D72756E6E696E6720636F726F61
:1047FE007574696E652E220022206661696C65648F
:10480E002E006932635F6C696E655F666F6C6C6FEC
:10481E007765722E6370700066616C736520262654
:10482E002022556E726561636861626C652E22008E
:10483E0000000000FF025205A702D202B902F402E4
:10484E006E616E00696E66006F7666000000000095
:04485E000A135205E2
:00000001FF
